{"contracts/Gateway.sol":{"Gateway":{"abi":[{"inputs":[],"stateMutability":"nonpayable","type":"constructor"},{"anonymous":false,"inputs":[{"indexed":true,"internalType":"address","name":"sender","type":"address"},{"indexed":true,"internalType":"address","name":"token","type":"address"},{"indexed":true,"internalType":"uint256","name":"amount","type":"uint256"}],"name":"Deposit","type":"event"},{"anonymous":false,"inputs":[{"indexed":false,"internalType":"uint8","name":"version","type":"uint8"}],"name":"Initialized","type":"event"},{"anonymous":false,"inputs":[{"indexed":true,"internalType":"address","name":"sender","type":"address"},{"indexed":true,"internalType":"address","name":"token","type":"address"},{"indexed":true,"internalType":"uint256","name":"amount","type":"uint256"},{"indexed":false,"internalType":"uint256","name":"protocolFee","type":"uint256"},{"indexed":false,"internalType":"bytes32","name":"orderId","type":"bytes32"},{"indexed":false,"internalType":"uint256","name":"rate","type":"uint256"},{"indexed":false,"internalType":"string","name":"messageHash","type":"string"}],"name":"OrderCreated","type":"event"},{"anonymous":false,"inputs":[{"indexed":false,"internalType":"uint256","name":"fee","type":"uint256"},{"indexed":true,"internalType":"bytes32","name":"orderId","type":"bytes32"}],"name":"OrderRefunded","type":"event"},{"anonymous":false,"inputs":[{"indexed":false,"internalType":"bytes32","name":"splitOrderId","type":"bytes32"},{"indexed":true,"internalType":"bytes32","name":"orderId","type":"bytes32"},{"indexed":true,"internalType":"address","name":"liquidityProvider","type":"address"},{"indexed":false,"internalType":"uint96","name":"settlePercent","type":"uint96"}],"name":"OrderSettled","type":"event"},{"anonymous":false,"inputs":[{"indexed":true,"internalType":"address","name":"previousOwner","type":"address"},{"indexed":true,"internalType":"address","name":"newOwner","type":"address"}],"name":"OwnershipTransferStarted","type":"event"},{"anonymous":false,"inputs":[{"indexed":true,"internalType":"address","name":"previousOwner","type":"address"},{"indexed":true,"internalType":"address","name":"newOwner","type":"address"}],"name":"OwnershipTransferred","type":"event"},{"anonymous":false,"inputs":[{"indexed":false,"internalType":"address","name":"account","type":"address"}],"name":"Paused","type":"event"},{"anonymous":false,"inputs":[{"indexed":true,"internalType":"bytes32","name":"what","type":"bytes32"},{"indexed":true,"internalType":"address","name":"treasuryAddress","type":"address"}],"name":"ProtocolAddressUpdated","type":"event"},{"anonymous":false,"inputs":[{"indexed":false,"internalType":"uint64","name":"protocolFee","type":"uint64"}],"name":"ProtocolFeeUpdated","type":"event"},{"anonymous":false,"inputs":[{"indexed":true,"internalType":"address","name":"sender","type":"address"},{"indexed":true,"internalType":"uint256","name":"amount","type":"uint256"}],"name":"SenderFeeTransferred","type":"event"},{"anonymous":false,"inputs":[{"indexed":true,"internalType":"address","name":"treasuryAddress","type":"address"}],"name":"SetFeeRecipient","type":"event"},{"anonymous":false,"inputs":[{"indexed":true,"internalType":"bytes32","name":"what","type":"bytes32"},{"indexed":true,"internalType":"address","name":"value","type":"address"},{"indexed":false,"internalType":"uint256","name":"status","type":"uint256"}],"name":"SettingManagerBool","type":"event"},{"anonymous":false,"inputs":[{"indexed":false,"internalType":"address","name":"account","type":"address"}],"name":"Unpaused","type":"event"},{"inputs":[],"name":"acceptOwnership","outputs":[],"stateMutability":"nonpayable","type":"function"},{"inputs":[{"internalType":"address","name":"_token","type":"address"},{"internalType":"uint256","name":"_amount","type":"uint256"},{"internalType":"uint96","name":"_rate","type":"uint96"},{"internalType":"address","name":"_senderFeeRecipient","type":"address"},{"internalType":"uint256","name":"_senderFee","type":"uint256"},{"internalType":"address","name":"_refundAddress","type":"address"},{"internalType":"string","name":"messageHash","type":"string"}],"name":"createOrder","outputs":[{"internalType":"bytes32","name":"orderId","type":"bytes32"}],"stateMutability":"nonpayable","type":"function"},{"inputs":[{"internalType":"address","name":"_token","type":"address"},{"internalType":"uint256","name":"_amount","type":"uint256"}],"name":"deposit","outputs":[{"internalType":"bool","name":"","type":"bool"}],"stateMutability":"nonpayable","type":"function"},{"inputs":[{"internalType":"address","name":"_token","type":"address"},{"internalType":"address","name":"_provider","type":"address"}],"name":"getBalance","outputs":[{"internalType":"uint256","name":"","type":"uint256"}],"stateMutability":"view","type":"function"},{"inputs":[],"name":"getFeeDetails","outputs":[{"internalType":"uint64","name":"","type":"uint64"},{"internalType":"uint256","name":"","type":"uint256"}],"stateMutability":"view","type":"function"},{"inputs":[{"internalType":"bytes32","name":"_orderId","type":"bytes32"}],"name":"getOrderInfo","outputs":[{"components":[{"internalType":"address","name":"sender","type":"address"},{"internalType":"address","name":"token","type":"address"},{"internalType":"address","name":"senderFeeRecipient","type":"address"},{"internalType":"uint256","name":"senderFee","type":"uint256"},{"internalType":"uint256","name":"protocolFee","type":"uint256"},{"internalType":"bool","name":"isFulfilled","type":"bool"},{"internalType":"bool","name":"isRefunded","type":"bool"},{"internalType":"address","name":"refundAddress","type":"address"},{"internalType":"uint96","name":"currentBPS","type":"uint96"},{"internalType":"uint256","name":"amount","type":"uint256"}],"internalType":"struct IGateway.Order","name":"","type":"tuple"}],"stateMutability":"view","type":"function"},{"inputs":[],"name":"initialize","outputs":[],"stateMutability":"nonpayable","type":"function"},{"inputs":[{"internalType":"address","name":"_token","type":"address"}],"name":"isTokenSupported","outputs":[{"internalType":"bool","name":"","type":"bool"}],"stateMutability":"view","type":"function"},{"inputs":[],"name":"owner","outputs":[{"internalType":"address","name":"","type":"address"}],"stateMutability":"view","type":"function"},{"inputs":[],"name":"pause","outputs":[],"stateMutability":"nonpayable","type":"function"},{"inputs":[],"name":"paused","outputs":[{"internalType":"bool","name":"","type":"bool"}],"stateMutability":"view","type":"function"},{"inputs":[],"name":"pendingOwner","outputs":[{"internalType":"address","name":"","type":"address"}],"stateMutability":"view","type":"function"},{"inputs":[{"internalType":"uint256","name":"_fee","type":"uint256"},{"internalType":"bytes32","name":"_orderId","type":"bytes32"}],"name":"refund","outputs":[{"internalType":"bool","name":"","type":"bool"}],"stateMutability":"nonpayable","type":"function"},{"inputs":[],"name":"renounceOwnership","outputs":[],"stateMutability":"nonpayable","type":"function"},{"inputs":[{"internalType":"bytes32","name":"what","type":"bytes32"},{"internalType":"address","name":"value","type":"address"},{"internalType":"uint256","name":"status","type":"uint256"}],"name":"settingManagerBool","outputs":[],"stateMutability":"nonpayable","type":"function"},{"inputs":[{"internalType":"bytes32","name":"_splitOrderId","type":"bytes32"},{"internalType":"bytes32","name":"_orderId","type":"bytes32"},{"internalType":"address","name":"_liquidityProvider","type":"address"},{"internalType":"uint64","name":"_settlePercent","type":"uint64"}],"name":"settle","outputs":[{"internalType":"bool","name":"","type":"bool"}],"stateMutability":"nonpayable","type":"function"},{"inputs":[{"internalType":"address","name":"newOwner","type":"address"}],"name":"transferOwnership","outputs":[],"stateMutability":"nonpayable","type":"function"},{"inputs":[],"name":"unpause","outputs":[],"stateMutability":"nonpayable","type":"function"},{"inputs":[{"internalType":"bytes32","name":"what","type":"bytes32"},{"internalType":"address","name":"value","type":"address"}],"name":"updateProtocolAddress","outputs":[],"stateMutability":"nonpayable","type":"function"},{"inputs":[{"internalType":"uint64","name":"_protocolFeePercent","type":"uint64"}],"name":"updateProtocolFee","outputs":[],"stateMutability":"nonpayable","type":"function"}],"devdoc":{"events":{"Deposit(address,address,uint256)":{"params":{"amount":"The amount of the deposit.","sender":"The address of the sender.","token":"The address of the deposited token."}},"Initialized(uint8)":{"details":"Triggered when the contract has been initialized or reinitialized."},"OrderCreated(address,address,uint256,uint256,bytes32,uint256,string)":{"params":{"amount":"The amount of the deposit.","messageHash":"The hash of the message.","orderId":"The ID of the order.","rate":"The rate at which the deposit is made.","sender":"The address of the sender.","token":"The address of the deposited token."}},"OrderRefunded(uint256,bytes32)":{"params":{"fee":"The fee deducted from the refund amount.","orderId":"The ID of the order."}},"OrderSettled(bytes32,bytes32,address,uint96)":{"params":{"liquidityProvider":"The address of the liquidity provider.","orderId":"The ID of the order.","settlePercent":"The percentage at which the transaction is settled.","splitOrderId":"The ID of the split order."}},"Paused(address)":{"details":"Emitted when the pause is triggered by `account`."},"SenderFeeTransferred(address,uint256)":{"params":{"amount":"The amount of the fee transferred.","sender":"The address of the sender."}},"Unpaused(address)":{"details":"Emitted when the pause is lifted by `account`."}},"kind":"dev","methods":{"acceptOwnership()":{"details":"The new owner accepts the ownership transfer."},"constructor":{"custom:oz-upgrades-unsafe-allow":"constructor"},"createOrder(address,uint256,uint96,address,uint256,address,string)":{"details":"See {createOrder-IGateway}. "},"deposit(address,uint256)":{"details":"See {deposit-IGateway}. "},"getBalance(address,address)":{"details":"See {getBalance-IGateway}. "},"getFeeDetails()":{"details":"See {getFeeDetails-IGateway}. "},"getOrderInfo(bytes32)":{"details":"See {getOrderInfo-IGateway}. "},"initialize()":{"details":"Initialize function."},"isTokenSupported(address)":{"details":"See {isTokenSupported-IGateway}. "},"owner()":{"details":"Returns the address of the current owner."},"pause()":{"details":"Pause the contract."},"paused()":{"details":"Returns true if the contract is paused, and false otherwise."},"pendingOwner()":{"details":"Returns the address of the pending owner."},"refund(uint256,bytes32)":{"details":"See {refund-IGateway}. "},"renounceOwnership()":{"details":"Leaves the contract without owner. It will not be possible to call `onlyOwner` functions. Can only be called by the current owner. NOTE: Renouncing ownership will leave the contract without an owner, thereby disabling any functionality that is only available to the owner."},"settingManagerBool(bytes32,address,uint256)":{"details":"Sets the boolean value for a specific setting.","params":{"status":"The boolean value to be set. Requirements: - The value must not be a zero address.","value":"The address or value associated with the setting.","what":"The setting to be updated."}},"settle(bytes32,bytes32,address,uint64)":{"details":"See {settle-IGateway}. "},"transferOwnership(address)":{"details":"Starts the ownership transfer of the contract to a new account. Replaces the pending transfer if there is one. Can only be called by the current owner."},"unpause()":{"details":"Unpause the contract."},"updateProtocolAddress(bytes32,address)":{"details":"Updates a protocol address.","params":{"value":"The new address to be set. Requirements: - The value must not be a zero address.","what":"The address type to be updated (treasury or aggregator)."}},"updateProtocolFee(uint64)":{"details":"Updates the protocol fee percentage.","params":{"_protocolFeePercent":"The new protocol fee percentage to be set."}}},"title":"Gateway","version":1},"evm":{"bytecode":{"linkReferences":{},"object":"608080604052346100c1576000549060ff8260081c1661006f575060ff80821603610034575b60405161199390816100c78239f35b60ff90811916176000557f7f26b83ff96e1f2b6a682f133852f6798a09c465da95921460cefb3847402498602060405160ff8152a138610025565b62461bcd60e51b815260206004820152602760248201527f496e697469616c697a61626c653a20636f6e747261637420697320696e697469604482015266616c697a696e6760c81b6064820152608490fd5b600080fdfe6080604052600436101561001257600080fd5b60003560e01c80633f4ba83a146114f857806340ebc6771461134f57806347094e2e146112e157806347e7ef24146111ec5780635c975abb146111c9578063715018a61461116257806371eedb8814610f1757806375151b6314610eea578063768c6ec014610d5857806379ba509714610cd1578063809804f7146108385780638129fc1c146106df5780638456cb59146106855780638da5cb5b1461065c578063b810c6361461062d578063cd99240014610543578063d4fac45d146104f1578063e30c3978146104c8578063f22ee7041461016a5763f2fde38b146100f857600080fd5b34610165576020366003190112610165576101116115a2565b610119611609565b606580546001600160a01b0319166001600160a01b039283169081179091556033549091167f38d16b8cac22d99fc7c124b9cd0de2d3fa1faef420bfe791d8c362d765e22700600080a3005b600080fd5b34610165576080366003190112610165576044356001600160a01b0380821690602435908284036101655760643567ffffffffffffffff91828216809203610165576101bb8160995416331461182d565b8360005260ff906020968288526101dc83600560406000200154161561186a565b856000528288526101fa8360056040600020015460081c16156118a7565b856000528288526040600020906006836001840154169201938454946001600160601b03908782881603968288116104b257828d9816906001600160601b03191617905588600052818652604060002090600682015416156103d7575b50936102ed9461027b6102728860076040600020015461177f565b60975490611792565b9089600052825260076040600020016102958282546118e3565b90556102b36102ac6102726098549a8b168461177f565b80926118e3565b6040805163a9059cbb60e01b8082529a90911c969096166001600160a01b0316600487015260248601919091529394859081906044820190565b03816000865af180156103ae57610335968a956000926103ba575b506040519081526001600160a01b0390921660048301526024820193909352948592839182906044820190565b03925af19081156103ae577f98ece21e01a01cbe1d1c0dad3b053c8fbd368f99be78be958fcf1d1d13fd249a92604092610381575b50815190600435825286820152a360405160018152f35b6103a090873d89116103a7575b6103988183611745565b810190611767565b508661036a565b503d61038e565b6040513d6000823e3d90fd5b6103d090873d89116103a7576103988183611745565b508b610308565b60058101805460ff19166001179055600381015490816103f8575b50610257565b600181015460029091015460405163a9059cbb60e01b81529087166001600160a01b03166004820152602481019290925290959086908616816000816044810103925af19081156103ae576102ed958b92610495575b50886000528082526040600020600386600283015416910154907f44f6938ca4a10313aabb76f874cced61e35710a734a126e4afb34461bf8c2501600080a390948b6103f2565b6104ab90833d85116103a7576103988183611745565b508b61044e565b634e487b7160e01b600052601160045260246000fd5b34610165576000366003190112610165576065546040516001600160a01b039091168152602090f35b346101655760403660031901126101655761050a6115a2565b61051261158c565b9060018060a01b03809116600052610133602052604060002091166000526020526020604060002054604051908152f35b346101655760603660031901126101655760043561055f61158c565b906044359161056c611609565b6001600160a01b031691610581831515611919565b600181148015610623575b156105de57643a37b5b2b760d91b82146105a257005b60207fcfa976492af7c14a916cc3a239f4c9c75bbd7f5f0e398beb41d892c7eeccae4c9184600052609a825280604060002055604051908152a3005b60405162461bcd60e51b815260206004820152601760248201527f476174657761793a20696e76616c6964207374617475730000000000000000006044820152606490fd5b506002811461058c565b3461016557600036600319011261016557604067ffffffffffffffff6098541660975482519182526020820152f35b34610165576000366003190112610165576033546040516001600160a01b039091168152602090f35b346101655760003660031901126101655761069e611609565b6106a66116c1565b600160ff1960cd54161760cd557f62e78cea01bee320cd4e420270b5ea74000d11b0c9f74754ebdbfc544b05a2586020604051338152a1005b346101655760003660031901126101655760005460ff8160081c161580809161082b575b8015610814575b156107b85760ff1982811660011760005591816107a6575b50620186a060975561074460ff60005460081c1661073f81611661565b611661565b61074d336115b8565b6000549161076460ff8460081c1661073f81611661565b60cd541660cd5561077157005b61ff0019166000557f7f26b83ff96e1f2b6a682f133852f6798a09c465da95921460cefb3847402498602060405160018152a1005b61ffff19166101011760005582610722565b60405162461bcd60e51b815260206004820152602e60248201527f496e697469616c697a61626c653a20636f6e747261637420697320616c72656160448201526d191e481a5b9a5d1a585b1a5e995960921b6064820152608490fd5b50303b15801561070a5750600160ff83161461070a565b50600160ff831610610703565b346101655760e0366003190112610165576108516115a2565b6044356001600160601b0381168103610165576064356001600160a01b03811681036101655760a4356001600160a01b03811681036101655767ffffffffffffffff60c435116101655736602360c4350112156101655767ffffffffffffffff60c43560040135116101655736602460c4356004013560c435010111610165576108d96116c1565b6001600160a01b0384166000908152609a60205260409020546108fe906001146117b2565b61090b60243515156117f2565b6001600160a01b03811615610c9957608435610c46575b60c4356004013515610c0c5761096e6020610941608435602435611705565b6040516323b872dd60e01b8152336004820152306024820152604481019190915291829081906064820190565b038160006001600160a01b038a165af180156103ae57610bed575b5033600052610100602052604060002091825460001981146104b25760209560079460017f40ccd1ceb111a3c186ef9911e1b876dc1f789ed331b86097b3b8851055b6a137930190553360005261010087526001600160601b03610a13610a21604060002054604051928391338d840160209093929193604081019460018060a01b031681520152565b03601f198101835282611745565b8881519101209667ffffffffffffffff610a41816098541660243561177f565b610a4e6097548092611792565b9760405197610a5c89611712565b33895260018060a01b0387168d8a015260018060a01b031660408901526084356060890152886080890152600060a0890152600060c089015260018060a01b031660e0880152166101008601526024356101208601528760005260ff8952604060002061012060018060a01b03875116968460a01b88818554161784556001840160018060a01b038e8401511682825416179055600284019060018060a01b036040840151169082541617905560608101516003840155608081015160048401556005830160a08201511515815461ff0060c0850151151560081b169060ff62010000600160b01b0360e087015160101b1693169069ffffffffffffffffffff60b01b16171717905560068301856101008301511686198254161790550151978891015560405195865287898701521660408501526080606085015260c43560040135608085015260c43560040135602460c4350160a0860137600060a060c435600401358601015260018060a01b03169260a081601f19601f60c4356004013501168101030190a4604051908152f35b610c059060203d6020116103a7576103988183611745565b5084610989565b60405162461bcd60e51b8152602060048201526012602482015271092dcecc2d8d2c89acae6e6c2ceca90c2e6d60731b6044820152606490fd5b6001600160a01b0382166109225760405162461bcd60e51b815260206004820152601960248201527f496e76616c696453656e646572466565526563697069656e74000000000000006044820152606490fd5b60405162461bcd60e51b815260206004820152601060248201526f5468726f775a65726f4164647265737360801b6044820152606490fd5b3461016557600036600319011261016557606554336001600160a01b0390911603610d0157610cff336115b8565b005b60405162461bcd60e51b815260206004820152602960248201527f4f776e61626c6532537465703a2063616c6c6572206973206e6f7420746865206044820152683732bb9037bbb732b960b91b6064820152608490fd5b34610165576020366003190112610165576000610120604051610d7a81611712565b8281528260208201528260408201528260608201528260808201528260a08201528260c08201528260e082015282610100820152015260043560005260ff6020526101406040600020610120604051610dd281611712565b600760018060a01b038454169384835260018060a01b03600182015416602084015260018060a01b0360028201541660408401526003810154606084015260048101546080840152600581015460ff8116151560a085015260ff8160081c16151560c085015260018060a01b039060101c1660e08401526001600160601b0360068201541661010084015201548282015260405192835260018060a01b03602082015116602084015260018060a01b036040820151166040840152606081015160608401526080810151608084015260a0810151151560a084015260c0810151151560c084015260018060a01b0360e08201511660e08401526001600160601b03610100820151166101008401520151610120820152f35b34610165576020366003190112610165576020610f0d610f086115a2565b6118f0565b6040519015158152f35b346101655760403660031901126101655760043560243560018060a01b03610f448160995416331461182d565b8160005260ff92602093808552610f6581600560406000200154161561186a565b83600052808552610f838160056040600020015460081c16156118a7565b836000528085528160046040600020015410611125578490826110a4575b6110429385600052818352610fe184600760406000206005810161010061ff0019825416179055600681016001600160601b0319815416905501546118e3565b9186600052835261100d60406000209260038360018601541693600586015460101c1694015490611705565b60405163a9059cbb60e01b81526001600160a01b03909316600484015260248301529093849190829060009082906044820190565b03925af19081156103ae577f0736fe428e1747ca8d387c2e6fa1a31a0cde62d3a167c40a46ade59a3cdc828e928592611087575b50604051908152a260405160018152f35b61109d90833d85116103a7576103988183611745565b5085611076565b6000858152818752604080822060010154609854825163a9059cbb60e01b8152921c87166001600160a01b03166004830152602482018690529095935087918691604491839187165af19182156103ae57611042948793611108575b509350610fa1565b61111e90843d86116103a7576103988183611745565b5087611100565b60405162461bcd60e51b81526004810186905260156024820152744665654578636565647350726f746f636f6c46656560581b6044820152606490fd5b346101655760003660031901126101655761117b611609565b606580546001600160a01b03199081169091556033805491821690556000906001600160a01b03167f8be0079c531659141344cd1fd0a4f28419497f9722a3daafe3b4186f6b6457e08280a3005b3461016557600036600319011261016557602060ff60cd54166040519015158152f35b34610165576040366003190112610165576112056115a2565b6024359060018060a01b031680600052602091609a835261122d6001604060002054146117b2565b6112388115156117f2565b6040516323b872dd60e01b81523360048201523060248201526044810182905283816064816000875af180156103ae576112c4575b5081600052610133835260406000203360005283526040600020611292828254611705565b905560405191337f5548c837ab068cf56a2c2479df0882a4922fd203edb7517321831d95078c5f62600080a460018152f35b6112da90843d86116103a7576103988183611745565b508361126d565b346101655760203660031901126101655760043567ffffffffffffffff81168091036101655760207f1ce29a697a4765bd17d91df93ba75b250b629ecf030553ff1f6ab59f15ae6c7b91611333611609565b8067ffffffffffffffff196098541617609855604051908152a1005b346101655760403660031901126101655760043561136b61158c565b90611374611609565b6001600160a01b038281169261138b841515611919565b600067747265617375727960c01b8403611461575083609854928360401c161461140e5768010000000000000000600160e01b031990911660409190911b68010000000000000000600160e01b03161760985560015b6113e757005b7fbbc5b96e57cfecb3dbeeadf92e87f15e58e64fcd75cbe256dcc5d9ef2e51e8a4600080a3005b60405162461bcd60e51b815260206004820152602560248201527f476174657761793a207472656173757279206164647265737320616c726561646044820152641e481cd95d60da1b6064820152608490fd5b9190506930b3b3b932b3b0ba37b960b11b831461147f575b506113e1565b6099549150811683146114a3576001600160a01b0319168217609955600183611479565b60405162461bcd60e51b815260206004820152602760248201527f476174657761793a2061676772656761746f72206164647265737320616c726560448201526618591e481cd95d60ca1b6064820152608490fd5b3461016557600036600319011261016557611511611609565b60cd5460ff8116156115505760ff191660cd557f5db9ee0a495bf2e6ff9c91a7834c1ba4fdd244a5e8aa4e537bd38aeae4b073aa6020604051338152a1005b60405162461bcd60e51b815260206004820152601460248201527314185d5cd8589b194e881b9bdd081c185d5cd95960621b6044820152606490fd5b602435906001600160a01b038216820361016557565b600435906001600160a01b038216820361016557565b6001600160601b0360a01b90816065541660655560335460018060a01b038092168093821617603355167f8be0079c531659141344cd1fd0a4f28419497f9722a3daafe3b4186f6b6457e0600080a3565b6033546001600160a01b0316330361161d57565b606460405162461bcd60e51b815260206004820152602060248201527f4f776e61626c653a2063616c6c6572206973206e6f7420746865206f776e65726044820152fd5b1561166857565b60405162461bcd60e51b815260206004820152602b60248201527f496e697469616c697a61626c653a20636f6e7472616374206973206e6f74206960448201526a6e697469616c697a696e6760a81b6064820152608490fd5b60ff60cd54166116cd57565b60405162461bcd60e51b815260206004820152601060248201526f14185d5cd8589b194e881c185d5cd95960821b6044820152606490fd5b919082018092116104b257565b610140810190811067ffffffffffffffff82111761172f57604052565b634e487b7160e01b600052604160045260246000fd5b90601f8019910116810190811067ffffffffffffffff82111761172f57604052565b90816020910312610165575180151581036101655790565b818102929181159184041417156104b257565b811561179c570490565b634e487b7160e01b600052601260045260246000fd5b156117b957565b60405162461bcd60e51b8152602060048201526011602482015270151bdad95b939bdd14dd5c1c1bdc9d1959607a1b6044820152606490fd5b156117f957565b60405162461bcd60e51b815260206004820152600c60248201526b416d6f756e7449735a65726f60a01b6044820152606490fd5b1561183457565b60405162461bcd60e51b815260206004820152600e60248201526d27b7363ca0b3b3b932b3b0ba37b960911b6044820152606490fd5b1561187157565b60405162461bcd60e51b815260206004820152600e60248201526d13dc99195c919d5b199a5b1b195960921b6044820152606490fd5b156118ae57565b60405162461bcd60e51b815260206004820152600d60248201526c13dc99195c9499599d5b991959609a1b6044820152606490fd5b919082039182116104b257565b6001600160a01b03166000908152609a602052604090205460011461191457600090565b600190565b1561192057565b60405162461bcd60e51b8152602060048201526015602482015274476174657761793a207a65726f206164647265737360581b6044820152606490fdfea26469706673582212200ef09afd6ea06ce77d51285cf717f95ab3ee7baf9cf47a9fc964c8e9f5854fb164736f6c63430008120033","opcodes":"PUSH1 0x80 DUP1 PUSH1 0x40 MSTORE CALLVALUE PUSH2 0xC1 JUMPI PUSH1 0x0 SLOAD SWAP1 PUSH1 0xFF DUP3 PUSH1 0x8 SHR AND PUSH2 0x6F JUMPI POP PUSH1 0xFF DUP1 DUP3 AND SUB PUSH2 0x34 JUMPI JUMPDEST PUSH1 0x40 MLOAD PUSH2 0x1993 SWAP1 DUP2 PUSH2 0xC7 DUP3 CODECOPY RETURN JUMPDEST PUSH1 0xFF SWAP1 DUP2 NOT AND OR PUSH1 0x0 SSTORE PUSH32 0x7F26B83FF96E1F2B6A682F133852F6798A09C465DA95921460CEFB3847402498 PUSH1 0x20 PUSH1 0x40 MLOAD PUSH1 0xFF DUP2 MSTORE LOG1 CODESIZE PUSH2 0x25 JUMP JUMPDEST PUSH3 0x461BCD PUSH1 0xE5 SHL DUP2 MSTORE PUSH1 0x20 PUSH1 0x4 DUP3 ADD MSTORE PUSH1 0x27 PUSH1 0x24 DUP3 ADD MSTORE PUSH32 0x496E697469616C697A61626C653A20636F6E747261637420697320696E697469 PUSH1 0x44 DUP3 ADD MSTORE PUSH7 0x616C697A696E67 PUSH1 0xC8 SHL PUSH1 0x64 DUP3 ADD MSTORE PUSH1 0x84 SWAP1 REVERT JUMPDEST PUSH1 0x0 DUP1 REVERT INVALID PUSH1 0x80 PUSH1 0x40 MSTORE PUSH1 0x4 CALLDATASIZE LT ISZERO PUSH2 0x12 JUMPI PUSH1 0x0 DUP1 REVERT JUMPDEST PUSH1 0x0 CALLDATALOAD PUSH1 0xE0 SHR DUP1 PUSH4 0x3F4BA83A EQ PUSH2 0x14F8 JUMPI DUP1 PUSH4 0x40EBC677 EQ PUSH2 0x134F JUMPI DUP1 PUSH4 0x47094E2E EQ PUSH2 0x12E1 JUMPI DUP1 PUSH4 0x47E7EF24 EQ PUSH2 0x11EC JUMPI DUP1 PUSH4 0x5C975ABB EQ PUSH2 0x11C9 JUMPI DUP1 PUSH4 0x715018A6 EQ PUSH2 0x1162 JUMPI DUP1 PUSH4 0x71EEDB88 EQ PUSH2 0xF17 JUMPI DUP1 PUSH4 0x75151B63 EQ PUSH2 0xEEA JUMPI DUP1 PUSH4 0x768C6EC0 EQ PUSH2 0xD58 JUMPI DUP1 PUSH4 0x79BA5097 EQ PUSH2 0xCD1 JUMPI DUP1 PUSH4 0x809804F7 EQ PUSH2 0x838 JUMPI DUP1 PUSH4 0x8129FC1C EQ PUSH2 0x6DF JUMPI DUP1 PUSH4 0x8456CB59 EQ PUSH2 0x685 JUMPI DUP1 PUSH4 0x8DA5CB5B EQ PUSH2 0x65C JUMPI DUP1 PUSH4 0xB810C636 EQ PUSH2 0x62D JUMPI DUP1 PUSH4 0xCD992400 EQ PUSH2 0x543 JUMPI DUP1 PUSH4 0xD4FAC45D EQ PUSH2 0x4F1 JUMPI DUP1 PUSH4 0xE30C3978 EQ PUSH2 0x4C8 JUMPI DUP1 PUSH4 0xF22EE704 EQ PUSH2 0x16A JUMPI PUSH4 0xF2FDE38B EQ PUSH2 0xF8 JUMPI PUSH1 0x0 DUP1 REVERT JUMPDEST CALLVALUE PUSH2 0x165 JUMPI PUSH1 0x20 CALLDATASIZE PUSH1 0x3 NOT ADD SLT PUSH2 0x165 JUMPI PUSH2 0x111 PUSH2 0x15A2 JUMP JUMPDEST PUSH2 0x119 PUSH2 0x1609 JUMP JUMPDEST PUSH1 0x65 DUP1 SLOAD PUSH1 0x1 PUSH1 0x1 PUSH1 0xA0 SHL SUB NOT AND PUSH1 0x1 PUSH1 0x1 PUSH1 0xA0 SHL SUB SWAP3 DUP4 AND SWAP1 DUP2 OR SWAP1 SWAP2 SSTORE PUSH1 0x33 SLOAD SWAP1 SWAP2 AND PUSH32 0x38D16B8CAC22D99FC7C124B9CD0DE2D3FA1FAEF420BFE791D8C362D765E22700 PUSH1 0x0 DUP1 LOG3 STOP JUMPDEST PUSH1 0x0 DUP1 REVERT JUMPDEST CALLVALUE PUSH2 0x165 JUMPI PUSH1 0x80 CALLDATASIZE PUSH1 0x3 NOT ADD SLT PUSH2 0x165 JUMPI PUSH1 0x44 CALLDATALOAD PUSH1 0x1 PUSH1 0x1 PUSH1 0xA0 SHL SUB DUP1 DUP3 AND SWAP1 PUSH1 0x24 CALLDATALOAD SWAP1 DUP3 DUP5 SUB PUSH2 0x165 JUMPI PUSH1 0x64 CALLDATALOAD PUSH8 0xFFFFFFFFFFFFFFFF SWAP2 DUP3 DUP3 AND DUP1 SWAP3 SUB PUSH2 0x165 JUMPI PUSH2 0x1BB DUP2 PUSH1 0x99 SLOAD AND CALLER EQ PUSH2 0x182D JUMP JUMPDEST DUP4 PUSH1 0x0 MSTORE PUSH1 0xFF SWAP1 PUSH1 0x20 SWAP7 DUP3 DUP9 MSTORE PUSH2 0x1DC DUP4 PUSH1 0x5 PUSH1 0x40 PUSH1 0x0 KECCAK256 ADD SLOAD AND ISZERO PUSH2 0x186A JUMP JUMPDEST DUP6 PUSH1 0x0 MSTORE DUP3 DUP9 MSTORE PUSH2 0x1FA DUP4 PUSH1 0x5 PUSH1 0x40 PUSH1 0x0 KECCAK256 ADD SLOAD PUSH1 0x8 SHR AND ISZERO PUSH2 0x18A7 JUMP JUMPDEST DUP6 PUSH1 0x0 MSTORE DUP3 DUP9 MSTORE PUSH1 0x40 PUSH1 0x0 KECCAK256 SWAP1 PUSH1 0x6 DUP4 PUSH1 0x1 DUP5 ADD SLOAD AND SWAP3 ADD SWAP4 DUP5 SLOAD SWAP5 PUSH1 0x1 PUSH1 0x1 PUSH1 0x60 SHL SUB SWAP1 DUP8 DUP3 DUP9 AND SUB SWAP7 DUP3 DUP9 GT PUSH2 0x4B2 JUMPI DUP3 DUP14 SWAP9 AND SWAP1 PUSH1 0x1 PUSH1 0x1 PUSH1 0x60 SHL SUB NOT AND OR SWAP1 SSTORE DUP9 PUSH1 0x0 MSTORE DUP2 DUP7 MSTORE PUSH1 0x40 PUSH1 0x0 KECCAK256 SWAP1 PUSH1 0x6 DUP3 ADD SLOAD AND ISZERO PUSH2 0x3D7 JUMPI JUMPDEST POP SWAP4 PUSH2 0x2ED SWAP5 PUSH2 0x27B PUSH2 0x272 DUP9 PUSH1 0x7 PUSH1 0x40 PUSH1 0x0 KECCAK256 ADD SLOAD PUSH2 0x177F JUMP JUMPDEST PUSH1 0x97 SLOAD SWAP1 PUSH2 0x1792 JUMP JUMPDEST SWAP1 DUP10 PUSH1 0x0 MSTORE DUP3 MSTORE PUSH1 0x7 PUSH1 0x40 PUSH1 0x0 KECCAK256 ADD PUSH2 0x295 DUP3 DUP3 SLOAD PUSH2 0x18E3 JUMP JUMPDEST SWAP1 SSTORE PUSH2 0x2B3 PUSH2 0x2AC PUSH2 0x272 PUSH1 0x98 SLOAD SWAP11 DUP12 AND DUP5 PUSH2 0x177F JUMP JUMPDEST DUP1 SWAP3 PUSH2 0x18E3 JUMP JUMPDEST PUSH1 0x40 DUP1 MLOAD PUSH4 0xA9059CBB PUSH1 0xE0 SHL DUP1 DUP3 MSTORE SWAP11 SWAP1 SWAP2 SHR SWAP7 SWAP1 SWAP7 AND PUSH1 0x1 PUSH1 0x1 PUSH1 0xA0 SHL SUB AND PUSH1 0x4 DUP8 ADD MSTORE PUSH1 0x24 DUP7 ADD SWAP2 SWAP1 SWAP2 MSTORE SWAP4 SWAP5 DUP6 SWAP1 DUP2 SWAP1 PUSH1 0x44 DUP3 ADD SWAP1 JUMP JUMPDEST SUB DUP2 PUSH1 0x0 DUP7 GAS CALL DUP1 ISZERO PUSH2 0x3AE JUMPI PUSH2 0x335 SWAP7 DUP11 SWAP6 PUSH1 0x0 SWAP3 PUSH2 0x3BA JUMPI JUMPDEST POP PUSH1 0x40 MLOAD SWAP1 DUP2 MSTORE PUSH1 0x1 PUSH1 0x1 PUSH1 0xA0 SHL SUB SWAP1 SWAP3 AND PUSH1 0x4 DUP4 ADD MSTORE PUSH1 0x24 DUP3 ADD SWAP4 SWAP1 SWAP4 MSTORE SWAP5 DUP6 SWAP3 DUP4 SWAP2 DUP3 SWAP1 PUSH1 0x44 DUP3 ADD SWAP1 JUMP JUMPDEST SUB SWAP3 GAS CALL SWAP1 DUP2 ISZERO PUSH2 0x3AE JUMPI PUSH32 0x98ECE21E01A01CBE1D1C0DAD3B053C8FBD368F99BE78BE958FCF1D1D13FD249A SWAP3 PUSH1 0x40 SWAP3 PUSH2 0x381 JUMPI JUMPDEST POP DUP2 MLOAD SWAP1 PUSH1 0x4 CALLDATALOAD DUP3 MSTORE DUP7 DUP3 ADD MSTORE LOG3 PUSH1 0x40 MLOAD PUSH1 0x1 DUP2 MSTORE RETURN JUMPDEST PUSH2 0x3A0 SWAP1 DUP8 RETURNDATASIZE DUP10 GT PUSH2 0x3A7 JUMPI JUMPDEST PUSH2 0x398 DUP2 DUP4 PUSH2 0x1745 JUMP JUMPDEST DUP2 ADD SWAP1 PUSH2 0x1767 JUMP JUMPDEST POP DUP7 PUSH2 0x36A JUMP JUMPDEST POP RETURNDATASIZE PUSH2 0x38E JUMP JUMPDEST PUSH1 0x40 MLOAD RETURNDATASIZE PUSH1 0x0 DUP3 RETURNDATACOPY RETURNDATASIZE SWAP1 REVERT JUMPDEST PUSH2 0x3D0 SWAP1 DUP8 RETURNDATASIZE DUP10 GT PUSH2 0x3A7 JUMPI PUSH2 0x398 DUP2 DUP4 PUSH2 0x1745 JUMP JUMPDEST POP DUP12 PUSH2 0x308 JUMP JUMPDEST PUSH1 0x5 DUP2 ADD DUP1 SLOAD PUSH1 0xFF NOT AND PUSH1 0x1 OR SWAP1 SSTORE PUSH1 0x3 DUP2 ADD SLOAD SWAP1 DUP2 PUSH2 0x3F8 JUMPI JUMPDEST POP PUSH2 0x257 JUMP JUMPDEST PUSH1 0x1 DUP2 ADD SLOAD PUSH1 0x2 SWAP1 SWAP2 ADD SLOAD PUSH1 0x40 MLOAD PUSH4 0xA9059CBB PUSH1 0xE0 SHL DUP2 MSTORE SWAP1 DUP8 AND PUSH1 0x1 PUSH1 0x1 PUSH1 0xA0 SHL SUB AND PUSH1 0x4 DUP3 ADD MSTORE PUSH1 0x24 DUP2 ADD SWAP3 SWAP1 SWAP3 MSTORE SWAP1 SWAP6 SWAP1 DUP7 SWAP1 DUP7 AND DUP2 PUSH1 0x0 DUP2 PUSH1 0x44 DUP2 ADD SUB SWAP3 GAS CALL SWAP1 DUP2 ISZERO PUSH2 0x3AE JUMPI PUSH2 0x2ED SWAP6 DUP12 SWAP3 PUSH2 0x495 JUMPI JUMPDEST POP DUP9 PUSH1 0x0 MSTORE DUP1 DUP3 MSTORE PUSH1 0x40 PUSH1 0x0 KECCAK256 PUSH1 0x3 DUP7 PUSH1 0x2 DUP4 ADD SLOAD AND SWAP2 ADD SLOAD SWAP1 PUSH32 0x44F6938CA4A10313AABB76F874CCED61E35710A734A126E4AFB34461BF8C2501 PUSH1 0x0 DUP1 LOG3 SWAP1 SWAP5 DUP12 PUSH2 0x3F2 JUMP JUMPDEST PUSH2 0x4AB SWAP1 DUP4 RETURNDATASIZE DUP6 GT PUSH2 0x3A7 JUMPI PUSH2 0x398 DUP2 DUP4 PUSH2 0x1745 JUMP JUMPDEST POP DUP12 PUSH2 0x44E JUMP JUMPDEST PUSH4 0x4E487B71 PUSH1 0xE0 SHL PUSH1 0x0 MSTORE PUSH1 0x11 PUSH1 0x4 MSTORE PUSH1 0x24 PUSH1 0x0 REVERT JUMPDEST CALLVALUE PUSH2 0x165 JUMPI PUSH1 0x0 CALLDATASIZE PUSH1 0x3 NOT ADD SLT PUSH2 0x165 JUMPI PUSH1 0x65 SLOAD PUSH1 0x40 MLOAD PUSH1 0x1 PUSH1 0x1 PUSH1 0xA0 SHL SUB SWAP1 SWAP2 AND DUP2 MSTORE PUSH1 0x20 SWAP1 RETURN JUMPDEST CALLVALUE PUSH2 0x165 JUMPI PUSH1 0x40 CALLDATASIZE PUSH1 0x3 NOT ADD SLT PUSH2 0x165 JUMPI PUSH2 0x50A PUSH2 0x15A2 JUMP JUMPDEST PUSH2 0x512 PUSH2 0x158C JUMP JUMPDEST SWAP1 PUSH1 0x1 DUP1 PUSH1 0xA0 SHL SUB DUP1 SWAP2 AND PUSH1 0x0 MSTORE PUSH2 0x133 PUSH1 0x20 MSTORE PUSH1 0x40 PUSH1 0x0 KECCAK256 SWAP2 AND PUSH1 0x0 MSTORE PUSH1 0x20 MSTORE PUSH1 0x20 PUSH1 0x40 PUSH1 0x0 KECCAK256 SLOAD PUSH1 0x40 MLOAD SWAP1 DUP2 MSTORE RETURN JUMPDEST CALLVALUE PUSH2 0x165 JUMPI PUSH1 0x60 CALLDATASIZE PUSH1 0x3 NOT ADD SLT PUSH2 0x165 JUMPI PUSH1 0x4 CALLDATALOAD PUSH2 0x55F PUSH2 0x158C JUMP JUMPDEST SWAP1 PUSH1 0x44 CALLDATALOAD SWAP2 PUSH2 0x56C PUSH2 0x1609 JUMP JUMPDEST PUSH1 0x1 PUSH1 0x1 PUSH1 0xA0 SHL SUB AND SWAP2 PUSH2 0x581 DUP4 ISZERO ISZERO PUSH2 0x1919 JUMP JUMPDEST PUSH1 0x1 DUP2 EQ DUP1 ISZERO PUSH2 0x623 JUMPI JUMPDEST ISZERO PUSH2 0x5DE JUMPI PUSH5 0x3A37B5B2B7 PUSH1 0xD9 SHL DUP3 EQ PUSH2 0x5A2 JUMPI STOP JUMPDEST PUSH1 0x20 PUSH32 0xCFA976492AF7C14A916CC3A239F4C9C75BBD7F5F0E398BEB41D892C7EECCAE4C SWAP2 DUP5 PUSH1 0x0 MSTORE PUSH1 0x9A DUP3 MSTORE DUP1 PUSH1 0x40 PUSH1 0x0 KECCAK256 SSTORE PUSH1 0x40 MLOAD SWAP1 DUP2 MSTORE LOG3 STOP JUMPDEST PUSH1 0x40 MLOAD PUSH3 0x461BCD PUSH1 0xE5 SHL DUP2 MSTORE PUSH1 0x20 PUSH1 0x4 DUP3 ADD MSTORE PUSH1 0x17 PUSH1 0x24 DUP3 ADD MSTORE PUSH32 0x476174657761793A20696E76616C696420737461747573000000000000000000 PUSH1 0x44 DUP3 ADD MSTORE PUSH1 0x64 SWAP1 REVERT JUMPDEST POP PUSH1 0x2 DUP2 EQ PUSH2 0x58C JUMP JUMPDEST CALLVALUE PUSH2 0x165 JUMPI PUSH1 0x0 CALLDATASIZE PUSH1 0x3 NOT ADD SLT PUSH2 0x165 JUMPI PUSH1 0x40 PUSH8 0xFFFFFFFFFFFFFFFF PUSH1 0x98 SLOAD AND PUSH1 0x97 SLOAD DUP3 MLOAD SWAP2 DUP3 MSTORE PUSH1 0x20 DUP3 ADD MSTORE RETURN JUMPDEST CALLVALUE PUSH2 0x165 JUMPI PUSH1 0x0 CALLDATASIZE PUSH1 0x3 NOT ADD SLT PUSH2 0x165 JUMPI PUSH1 0x33 SLOAD PUSH1 0x40 MLOAD PUSH1 0x1 PUSH1 0x1 PUSH1 0xA0 SHL SUB SWAP1 SWAP2 AND DUP2 MSTORE PUSH1 0x20 SWAP1 RETURN JUMPDEST CALLVALUE PUSH2 0x165 JUMPI PUSH1 0x0 CALLDATASIZE PUSH1 0x3 NOT ADD SLT PUSH2 0x165 JUMPI PUSH2 0x69E PUSH2 0x1609 JUMP JUMPDEST PUSH2 0x6A6 PUSH2 0x16C1 JUMP JUMPDEST PUSH1 0x1 PUSH1 0xFF NOT PUSH1 0xCD SLOAD AND OR PUSH1 0xCD SSTORE PUSH32 0x62E78CEA01BEE320CD4E420270B5EA74000D11B0C9F74754EBDBFC544B05A258 PUSH1 0x20 PUSH1 0x40 MLOAD CALLER DUP2 MSTORE LOG1 STOP JUMPDEST CALLVALUE PUSH2 0x165 JUMPI PUSH1 0x0 CALLDATASIZE PUSH1 0x3 NOT ADD SLT PUSH2 0x165 JUMPI PUSH1 0x0 SLOAD PUSH1 0xFF DUP2 PUSH1 0x8 SHR AND ISZERO DUP1 DUP1 SWAP2 PUSH2 0x82B JUMPI JUMPDEST DUP1 ISZERO PUSH2 0x814 JUMPI JUMPDEST ISZERO PUSH2 0x7B8 JUMPI PUSH1 0xFF NOT DUP3 DUP2 AND PUSH1 0x1 OR PUSH1 0x0 SSTORE SWAP2 DUP2 PUSH2 0x7A6 JUMPI JUMPDEST POP PUSH3 0x186A0 PUSH1 0x97 SSTORE PUSH2 0x744 PUSH1 0xFF PUSH1 0x0 SLOAD PUSH1 0x8 SHR AND PUSH2 0x73F DUP2 PUSH2 0x1661 JUMP JUMPDEST PUSH2 0x1661 JUMP JUMPDEST PUSH2 0x74D CALLER PUSH2 0x15B8 JUMP JUMPDEST PUSH1 0x0 SLOAD SWAP2 PUSH2 0x764 PUSH1 0xFF DUP5 PUSH1 0x8 SHR AND PUSH2 0x73F DUP2 PUSH2 0x1661 JUMP JUMPDEST PUSH1 0xCD SLOAD AND PUSH1 0xCD SSTORE PUSH2 0x771 JUMPI STOP JUMPDEST PUSH2 0xFF00 NOT AND PUSH1 0x0 SSTORE PUSH32 0x7F26B83FF96E1F2B6A682F133852F6798A09C465DA95921460CEFB3847402498 PUSH1 0x20 PUSH1 0x40 MLOAD PUSH1 0x1 DUP2 MSTORE LOG1 STOP JUMPDEST PUSH2 0xFFFF NOT AND PUSH2 0x101 OR PUSH1 0x0 SSTORE DUP3 PUSH2 0x722 JUMP JUMPDEST PUSH1 0x40 MLOAD PUSH3 0x461BCD PUSH1 0xE5 SHL DUP2 MSTORE PUSH1 0x20 PUSH1 0x4 DUP3 ADD MSTORE PUSH1 0x2E PUSH1 0x24 DUP3 ADD MSTORE PUSH32 0x496E697469616C697A61626C653A20636F6E747261637420697320616C726561 PUSH1 0x44 DUP3 ADD MSTORE PUSH14 0x191E481A5B9A5D1A585B1A5E9959 PUSH1 0x92 SHL PUSH1 0x64 DUP3 ADD MSTORE PUSH1 0x84 SWAP1 REVERT JUMPDEST POP ADDRESS EXTCODESIZE ISZERO DUP1 ISZERO PUSH2 0x70A JUMPI POP PUSH1 0x1 PUSH1 0xFF DUP4 AND EQ PUSH2 0x70A JUMP JUMPDEST POP PUSH1 0x1 PUSH1 0xFF DUP4 AND LT PUSH2 0x703 JUMP JUMPDEST CALLVALUE PUSH2 0x165 JUMPI PUSH1 0xE0 CALLDATASIZE PUSH1 0x3 NOT ADD SLT PUSH2 0x165 JUMPI PUSH2 0x851 PUSH2 0x15A2 JUMP JUMPDEST PUSH1 0x44 CALLDATALOAD PUSH1 0x1 PUSH1 0x1 PUSH1 0x60 SHL SUB DUP2 AND DUP2 SUB PUSH2 0x165 JUMPI PUSH1 0x64 CALLDATALOAD PUSH1 0x1 PUSH1 0x1 PUSH1 0xA0 SHL SUB DUP2 AND DUP2 SUB PUSH2 0x165 JUMPI PUSH1 0xA4 CALLDATALOAD PUSH1 0x1 PUSH1 0x1 PUSH1 0xA0 SHL SUB DUP2 AND DUP2 SUB PUSH2 0x165 JUMPI PUSH8 0xFFFFFFFFFFFFFFFF PUSH1 0xC4 CALLDATALOAD GT PUSH2 0x165 JUMPI CALLDATASIZE PUSH1 0x23 PUSH1 0xC4 CALLDATALOAD ADD SLT ISZERO PUSH2 0x165 JUMPI PUSH8 0xFFFFFFFFFFFFFFFF PUSH1 0xC4 CALLDATALOAD PUSH1 0x4 ADD CALLDATALOAD GT PUSH2 0x165 JUMPI CALLDATASIZE PUSH1 0x24 PUSH1 0xC4 CALLDATALOAD PUSH1 0x4 ADD CALLDATALOAD PUSH1 0xC4 CALLDATALOAD ADD ADD GT PUSH2 0x165 JUMPI PUSH2 0x8D9 PUSH2 0x16C1 JUMP JUMPDEST PUSH1 0x1 PUSH1 0x1 PUSH1 0xA0 SHL SUB DUP5 AND PUSH1 0x0 SWAP1 DUP2 MSTORE PUSH1 0x9A PUSH1 0x20 MSTORE PUSH1 0x40 SWAP1 KECCAK256 SLOAD PUSH2 0x8FE SWAP1 PUSH1 0x1 EQ PUSH2 0x17B2 JUMP JUMPDEST PUSH2 0x90B PUSH1 0x24 CALLDATALOAD ISZERO ISZERO PUSH2 0x17F2 JUMP JUMPDEST PUSH1 0x1 PUSH1 0x1 PUSH1 0xA0 SHL SUB DUP2 AND ISZERO PUSH2 0xC99 JUMPI PUSH1 0x84 CALLDATALOAD PUSH2 0xC46 JUMPI JUMPDEST PUSH1 0xC4 CALLDATALOAD PUSH1 0x4 ADD CALLDATALOAD ISZERO PUSH2 0xC0C JUMPI PUSH2 0x96E PUSH1 0x20 PUSH2 0x941 PUSH1 0x84 CALLDATALOAD PUSH1 0x24 CALLDATALOAD PUSH2 0x1705 JUMP JUMPDEST PUSH1 0x40 MLOAD PUSH4 0x23B872DD PUSH1 0xE0 SHL DUP2 MSTORE CALLER PUSH1 0x4 DUP3 ADD MSTORE ADDRESS PUSH1 0x24 DUP3 ADD MSTORE PUSH1 0x44 DUP2 ADD SWAP2 SWAP1 SWAP2 MSTORE SWAP2 DUP3 SWAP1 DUP2 SWAP1 PUSH1 0x64 DUP3 ADD SWAP1 JUMP JUMPDEST SUB DUP2 PUSH1 0x0 PUSH1 0x1 PUSH1 0x1 PUSH1 0xA0 SHL SUB DUP11 AND GAS CALL DUP1 ISZERO PUSH2 0x3AE JUMPI PUSH2 0xBED JUMPI JUMPDEST POP CALLER PUSH1 0x0 MSTORE PUSH2 0x100 PUSH1 0x20 MSTORE PUSH1 0x40 PUSH1 0x0 KECCAK256 SWAP2 DUP3 SLOAD PUSH1 0x0 NOT DUP2 EQ PUSH2 0x4B2 JUMPI PUSH1 0x20 SWAP6 PUSH1 0x7 SWAP5 PUSH1 0x1 PUSH32 0x40CCD1CEB111A3C186EF9911E1B876DC1F789ED331B86097B3B8851055B6A137 SWAP4 ADD SWAP1 SSTORE CALLER PUSH1 0x0 MSTORE PUSH2 0x100 DUP8 MSTORE PUSH1 0x1 PUSH1 0x1 PUSH1 0x60 SHL SUB PUSH2 0xA13 PUSH2 0xA21 PUSH1 0x40 PUSH1 0x0 KECCAK256 SLOAD PUSH1 0x40 MLOAD SWAP3 DUP4 SWAP2 CALLER DUP14 DUP5 ADD PUSH1 0x20 SWAP1 SWAP4 SWAP3 SWAP2 SWAP4 PUSH1 0x40 DUP2 ADD SWAP5 PUSH1 0x1 DUP1 PUSH1 0xA0 SHL SUB AND DUP2 MSTORE ADD MSTORE JUMP JUMPDEST SUB PUSH1 0x1F NOT DUP2 ADD DUP4 MSTORE DUP3 PUSH2 0x1745 JUMP JUMPDEST DUP9 DUP2 MLOAD SWAP2 ADD KECCAK256 SWAP7 PUSH8 0xFFFFFFFFFFFFFFFF PUSH2 0xA41 DUP2 PUSH1 0x98 SLOAD AND PUSH1 0x24 CALLDATALOAD PUSH2 0x177F JUMP JUMPDEST PUSH2 0xA4E PUSH1 0x97 SLOAD DUP1 SWAP3 PUSH2 0x1792 JUMP JUMPDEST SWAP8 PUSH1 0x40 MLOAD SWAP8 PUSH2 0xA5C DUP10 PUSH2 0x1712 JUMP JUMPDEST CALLER DUP10 MSTORE PUSH1 0x1 DUP1 PUSH1 0xA0 SHL SUB DUP8 AND DUP14 DUP11 ADD MSTORE PUSH1 0x1 DUP1 PUSH1 0xA0 SHL SUB AND PUSH1 0x40 DUP10 ADD MSTORE PUSH1 0x84 CALLDATALOAD PUSH1 0x60 DUP10 ADD MSTORE DUP9 PUSH1 0x80 DUP10 ADD MSTORE PUSH1 0x0 PUSH1 0xA0 DUP10 ADD MSTORE PUSH1 0x0 PUSH1 0xC0 DUP10 ADD MSTORE PUSH1 0x1 DUP1 PUSH1 0xA0 SHL SUB AND PUSH1 0xE0 DUP9 ADD MSTORE AND PUSH2 0x100 DUP7 ADD MSTORE PUSH1 0x24 CALLDATALOAD PUSH2 0x120 DUP7 ADD MSTORE DUP8 PUSH1 0x0 MSTORE PUSH1 0xFF DUP10 MSTORE PUSH1 0x40 PUSH1 0x0 KECCAK256 PUSH2 0x120 PUSH1 0x1 DUP1 PUSH1 0xA0 SHL SUB DUP8 MLOAD AND SWAP7 DUP5 PUSH1 0xA0 SHL DUP9 DUP2 DUP6 SLOAD AND OR DUP5 SSTORE PUSH1 0x1 DUP5 ADD PUSH1 0x1 DUP1 PUSH1 0xA0 SHL SUB DUP15 DUP5 ADD MLOAD AND DUP3 DUP3 SLOAD AND OR SWAP1 SSTORE PUSH1 0x2 DUP5 ADD SWAP1 PUSH1 0x1 DUP1 PUSH1 0xA0 SHL SUB PUSH1 0x40 DUP5 ADD MLOAD AND SWAP1 DUP3 SLOAD AND OR SWAP1 SSTORE PUSH1 0x60 DUP2 ADD MLOAD PUSH1 0x3 DUP5 ADD SSTORE PUSH1 0x80 DUP2 ADD MLOAD PUSH1 0x4 DUP5 ADD SSTORE PUSH1 0x5 DUP4 ADD PUSH1 0xA0 DUP3 ADD MLOAD ISZERO ISZERO DUP2 SLOAD PUSH2 0xFF00 PUSH1 0xC0 DUP6 ADD MLOAD ISZERO ISZERO PUSH1 0x8 SHL AND SWAP1 PUSH1 0xFF PUSH3 0x10000 PUSH1 0x1 PUSH1 0xB0 SHL SUB PUSH1 0xE0 DUP8 ADD MLOAD PUSH1 0x10 SHL AND SWAP4 AND SWAP1 PUSH10 0xFFFFFFFFFFFFFFFFFFFF PUSH1 0xB0 SHL AND OR OR OR SWAP1 SSTORE PUSH1 0x6 DUP4 ADD DUP6 PUSH2 0x100 DUP4 ADD MLOAD AND DUP7 NOT DUP3 SLOAD AND OR SWAP1 SSTORE ADD MLOAD SWAP8 DUP9 SWAP2 ADD SSTORE PUSH1 0x40 MLOAD SWAP6 DUP7 MSTORE DUP8 DUP10 DUP8 ADD MSTORE AND PUSH1 0x40 DUP6 ADD MSTORE PUSH1 0x80 PUSH1 0x60 DUP6 ADD MSTORE PUSH1 0xC4 CALLDATALOAD PUSH1 0x4 ADD CALLDATALOAD PUSH1 0x80 DUP6 ADD MSTORE PUSH1 0xC4 CALLDATALOAD PUSH1 0x4 ADD CALLDATALOAD PUSH1 0x24 PUSH1 0xC4 CALLDATALOAD ADD PUSH1 0xA0 DUP7 ADD CALLDATACOPY PUSH1 0x0 PUSH1 0xA0 PUSH1 0xC4 CALLDATALOAD PUSH1 0x4 ADD CALLDATALOAD DUP7 ADD ADD MSTORE PUSH1 0x1 DUP1 PUSH1 0xA0 SHL SUB AND SWAP3 PUSH1 0xA0 DUP2 PUSH1 0x1F NOT PUSH1 0x1F PUSH1 0xC4 CALLDATALOAD PUSH1 0x4 ADD CALLDATALOAD ADD AND DUP2 ADD SUB ADD SWAP1 LOG4 PUSH1 0x40 MLOAD SWAP1 DUP2 MSTORE RETURN JUMPDEST PUSH2 0xC05 SWAP1 PUSH1 0x20 RETURNDATASIZE PUSH1 0x20 GT PUSH2 0x3A7 JUMPI PUSH2 0x398 DUP2 DUP4 PUSH2 0x1745 JUMP JUMPDEST POP DUP5 PUSH2 0x989 JUMP JUMPDEST PUSH1 0x40 MLOAD PUSH3 0x461BCD PUSH1 0xE5 SHL DUP2 MSTORE PUSH1 0x20 PUSH1 0x4 DUP3 ADD MSTORE PUSH1 0x12 PUSH1 0x24 DUP3 ADD MSTORE PUSH18 0x92DCECC2D8D2C89ACAE6E6C2CECA90C2E6D PUSH1 0x73 SHL PUSH1 0x44 DUP3 ADD MSTORE PUSH1 0x64 SWAP1 REVERT JUMPDEST PUSH1 0x1 PUSH1 0x1 PUSH1 0xA0 SHL SUB DUP3 AND PUSH2 0x922 JUMPI PUSH1 0x40 MLOAD PUSH3 0x461BCD PUSH1 0xE5 SHL DUP2 MSTORE PUSH1 0x20 PUSH1 0x4 DUP3 ADD MSTORE PUSH1 0x19 PUSH1 0x24 DUP3 ADD MSTORE PUSH32 0x496E76616C696453656E646572466565526563697069656E7400000000000000 PUSH1 0x44 DUP3 ADD MSTORE PUSH1 0x64 SWAP1 REVERT JUMPDEST PUSH1 0x40 MLOAD PUSH3 0x461BCD PUSH1 0xE5 SHL DUP2 MSTORE PUSH1 0x20 PUSH1 0x4 DUP3 ADD MSTORE PUSH1 0x10 PUSH1 0x24 DUP3 ADD MSTORE PUSH16 0x5468726F775A65726F41646472657373 PUSH1 0x80 SHL PUSH1 0x44 DUP3 ADD MSTORE PUSH1 0x64 SWAP1 REVERT JUMPDEST CALLVALUE PUSH2 0x165 JUMPI PUSH1 0x0 CALLDATASIZE PUSH1 0x3 NOT ADD SLT PUSH2 0x165 JUMPI PUSH1 0x65 SLOAD CALLER PUSH1 0x1 PUSH1 0x1 PUSH1 0xA0 SHL SUB SWAP1 SWAP2 AND SUB PUSH2 0xD01 JUMPI PUSH2 0xCFF CALLER PUSH2 0x15B8 JUMP JUMPDEST STOP JUMPDEST PUSH1 0x40 MLOAD PUSH3 0x461BCD PUSH1 0xE5 SHL DUP2 MSTORE PUSH1 0x20 PUSH1 0x4 DUP3 ADD MSTORE PUSH1 0x29 PUSH1 0x24 DUP3 ADD MSTORE PUSH32 0x4F776E61626C6532537465703A2063616C6C6572206973206E6F742074686520 PUSH1 0x44 DUP3 ADD MSTORE PUSH9 0x3732BB9037BBB732B9 PUSH1 0xB9 SHL PUSH1 0x64 DUP3 ADD MSTORE PUSH1 0x84 SWAP1 REVERT JUMPDEST CALLVALUE PUSH2 0x165 JUMPI PUSH1 0x20 CALLDATASIZE PUSH1 0x3 NOT ADD SLT PUSH2 0x165 JUMPI PUSH1 0x0 PUSH2 0x120 PUSH1 0x40 MLOAD PUSH2 0xD7A DUP2 PUSH2 0x1712 JUMP JUMPDEST DUP3 DUP2 MSTORE DUP3 PUSH1 0x20 DUP3 ADD MSTORE DUP3 PUSH1 0x40 DUP3 ADD MSTORE DUP3 PUSH1 0x60 DUP3 ADD MSTORE DUP3 PUSH1 0x80 DUP3 ADD MSTORE DUP3 PUSH1 0xA0 DUP3 ADD MSTORE DUP3 PUSH1 0xC0 DUP3 ADD MSTORE DUP3 PUSH1 0xE0 DUP3 ADD MSTORE DUP3 PUSH2 0x100 DUP3 ADD MSTORE ADD MSTORE PUSH1 0x4 CALLDATALOAD PUSH1 0x0 MSTORE PUSH1 0xFF PUSH1 0x20 MSTORE PUSH2 0x140 PUSH1 0x40 PUSH1 0x0 KECCAK256 PUSH2 0x120 PUSH1 0x40 MLOAD PUSH2 0xDD2 DUP2 PUSH2 0x1712 JUMP JUMPDEST PUSH1 0x7 PUSH1 0x1 DUP1 PUSH1 0xA0 SHL SUB DUP5 SLOAD AND SWAP4 DUP5 DUP4 MSTORE PUSH1 0x1 DUP1 PUSH1 0xA0 SHL SUB PUSH1 0x1 DUP3 ADD SLOAD AND PUSH1 0x20 DUP5 ADD MSTORE PUSH1 0x1 DUP1 PUSH1 0xA0 SHL SUB PUSH1 0x2 DUP3 ADD SLOAD AND PUSH1 0x40 DUP5 ADD MSTORE PUSH1 0x3 DUP2 ADD SLOAD PUSH1 0x60 DUP5 ADD MSTORE PUSH1 0x4 DUP2 ADD SLOAD PUSH1 0x80 DUP5 ADD MSTORE PUSH1 0x5 DUP2 ADD SLOAD PUSH1 0xFF DUP2 AND ISZERO ISZERO PUSH1 0xA0 DUP6 ADD MSTORE PUSH1 0xFF DUP2 PUSH1 0x8 SHR AND ISZERO ISZERO PUSH1 0xC0 DUP6 ADD MSTORE PUSH1 0x1 DUP1 PUSH1 0xA0 SHL SUB SWAP1 PUSH1 0x10 SHR AND PUSH1 0xE0 DUP5 ADD MSTORE PUSH1 0x1 PUSH1 0x1 PUSH1 0x60 SHL SUB PUSH1 0x6 DUP3 ADD SLOAD AND PUSH2 0x100 DUP5 ADD MSTORE ADD SLOAD DUP3 DUP3 ADD MSTORE PUSH1 0x40 MLOAD SWAP3 DUP4 MSTORE PUSH1 0x1 DUP1 PUSH1 0xA0 SHL SUB PUSH1 0x20 DUP3 ADD MLOAD AND PUSH1 0x20 DUP5 ADD MSTORE PUSH1 0x1 DUP1 PUSH1 0xA0 SHL SUB PUSH1 0x40 DUP3 ADD MLOAD AND PUSH1 0x40 DUP5 ADD MSTORE PUSH1 0x60 DUP2 ADD MLOAD PUSH1 0x60 DUP5 ADD MSTORE PUSH1 0x80 DUP2 ADD MLOAD PUSH1 0x80 DUP5 ADD MSTORE PUSH1 0xA0 DUP2 ADD MLOAD ISZERO ISZERO PUSH1 0xA0 DUP5 ADD MSTORE PUSH1 0xC0 DUP2 ADD MLOAD ISZERO ISZERO PUSH1 0xC0 DUP5 ADD MSTORE PUSH1 0x1 DUP1 PUSH1 0xA0 SHL SUB PUSH1 0xE0 DUP3 ADD MLOAD AND PUSH1 0xE0 DUP5 ADD MSTORE PUSH1 0x1 PUSH1 0x1 PUSH1 0x60 SHL SUB PUSH2 0x100 DUP3 ADD MLOAD AND PUSH2 0x100 DUP5 ADD MSTORE ADD MLOAD PUSH2 0x120 DUP3 ADD MSTORE RETURN JUMPDEST CALLVALUE PUSH2 0x165 JUMPI PUSH1 0x20 CALLDATASIZE PUSH1 0x3 NOT ADD SLT PUSH2 0x165 JUMPI PUSH1 0x20 PUSH2 0xF0D PUSH2 0xF08 PUSH2 0x15A2 JUMP JUMPDEST PUSH2 0x18F0 JUMP JUMPDEST PUSH1 0x40 MLOAD SWAP1 ISZERO ISZERO DUP2 MSTORE RETURN JUMPDEST CALLVALUE PUSH2 0x165 JUMPI PUSH1 0x40 CALLDATASIZE PUSH1 0x3 NOT ADD SLT PUSH2 0x165 JUMPI PUSH1 0x4 CALLDATALOAD PUSH1 0x24 CALLDATALOAD PUSH1 0x1 DUP1 PUSH1 0xA0 SHL SUB PUSH2 0xF44 DUP2 PUSH1 0x99 SLOAD AND CALLER EQ PUSH2 0x182D JUMP JUMPDEST DUP2 PUSH1 0x0 MSTORE PUSH1 0xFF SWAP3 PUSH1 0x20 SWAP4 DUP1 DUP6 MSTORE PUSH2 0xF65 DUP2 PUSH1 0x5 PUSH1 0x40 PUSH1 0x0 KECCAK256 ADD SLOAD AND ISZERO PUSH2 0x186A JUMP JUMPDEST DUP4 PUSH1 0x0 MSTORE DUP1 DUP6 MSTORE PUSH2 0xF83 DUP2 PUSH1 0x5 PUSH1 0x40 PUSH1 0x0 KECCAK256 ADD SLOAD PUSH1 0x8 SHR AND ISZERO PUSH2 0x18A7 JUMP JUMPDEST DUP4 PUSH1 0x0 MSTORE DUP1 DUP6 MSTORE DUP2 PUSH1 0x4 PUSH1 0x40 PUSH1 0x0 KECCAK256 ADD SLOAD LT PUSH2 0x1125 JUMPI DUP5 SWAP1 DUP3 PUSH2 0x10A4 JUMPI JUMPDEST PUSH2 0x1042 SWAP4 DUP6 PUSH1 0x0 MSTORE DUP2 DUP4 MSTORE PUSH2 0xFE1 DUP5 PUSH1 0x7 PUSH1 0x40 PUSH1 0x0 KECCAK256 PUSH1 0x5 DUP2 ADD PUSH2 0x100 PUSH2 0xFF00 NOT DUP3 SLOAD AND OR SWAP1 SSTORE PUSH1 0x6 DUP2 ADD PUSH1 0x1 PUSH1 0x1 PUSH1 0x60 SHL SUB NOT DUP2 SLOAD AND SWAP1 SSTORE ADD SLOAD PUSH2 0x18E3 JUMP JUMPDEST SWAP2 DUP7 PUSH1 0x0 MSTORE DUP4 MSTORE PUSH2 0x100D PUSH1 0x40 PUSH1 0x0 KECCAK256 SWAP3 PUSH1 0x3 DUP4 PUSH1 0x1 DUP7 ADD SLOAD AND SWAP4 PUSH1 0x5 DUP7 ADD SLOAD PUSH1 0x10 SHR AND SWAP5 ADD SLOAD SWAP1 PUSH2 0x1705 JUMP JUMPDEST PUSH1 0x40 MLOAD PUSH4 0xA9059CBB PUSH1 0xE0 SHL DUP2 MSTORE PUSH1 0x1 PUSH1 0x1 PUSH1 0xA0 SHL SUB SWAP1 SWAP4 AND PUSH1 0x4 DUP5 ADD MSTORE PUSH1 0x24 DUP4 ADD MSTORE SWAP1 SWAP4 DUP5 SWAP2 SWAP1 DUP3 SWAP1 PUSH1 0x0 SWAP1 DUP3 SWAP1 PUSH1 0x44 DUP3 ADD SWAP1 JUMP JUMPDEST SUB SWAP3 GAS CALL SWAP1 DUP2 ISZERO PUSH2 0x3AE JUMPI PUSH32 0x736FE428E1747CA8D387C2E6FA1A31A0CDE62D3A167C40A46ADE59A3CDC828E SWAP3 DUP6 SWAP3 PUSH2 0x1087 JUMPI JUMPDEST POP PUSH1 0x40 MLOAD SWAP1 DUP2 MSTORE LOG2 PUSH1 0x40 MLOAD PUSH1 0x1 DUP2 MSTORE RETURN JUMPDEST PUSH2 0x109D SWAP1 DUP4 RETURNDATASIZE DUP6 GT PUSH2 0x3A7 JUMPI PUSH2 0x398 DUP2 DUP4 PUSH2 0x1745 JUMP JUMPDEST POP DUP6 PUSH2 0x1076 JUMP JUMPDEST PUSH1 0x0 DUP6 DUP2 MSTORE DUP2 DUP8 MSTORE PUSH1 0x40 DUP1 DUP3 KECCAK256 PUSH1 0x1 ADD SLOAD PUSH1 0x98 SLOAD DUP3 MLOAD PUSH4 0xA9059CBB PUSH1 0xE0 SHL DUP2 MSTORE SWAP3 SHR DUP8 AND PUSH1 0x1 PUSH1 0x1 PUSH1 0xA0 SHL SUB AND PUSH1 0x4 DUP4 ADD MSTORE PUSH1 0x24 DUP3 ADD DUP7 SWAP1 MSTORE SWAP1 SWAP6 SWAP4 POP DUP8 SWAP2 DUP7 SWAP2 PUSH1 0x44 SWAP2 DUP4 SWAP2 DUP8 AND GAS CALL SWAP2 DUP3 ISZERO PUSH2 0x3AE JUMPI PUSH2 0x1042 SWAP5 DUP8 SWAP4 PUSH2 0x1108 JUMPI JUMPDEST POP SWAP4 POP PUSH2 0xFA1 JUMP JUMPDEST PUSH2 0x111E SWAP1 DUP5 RETURNDATASIZE DUP7 GT PUSH2 0x3A7 JUMPI PUSH2 0x398 DUP2 DUP4 PUSH2 0x1745 JUMP JUMPDEST POP DUP8 PUSH2 0x1100 JUMP JUMPDEST PUSH1 0x40 MLOAD PUSH3 0x461BCD PUSH1 0xE5 SHL DUP2 MSTORE PUSH1 0x4 DUP2 ADD DUP7 SWAP1 MSTORE PUSH1 0x15 PUSH1 0x24 DUP3 ADD MSTORE PUSH21 0x4665654578636565647350726F746F636F6C466565 PUSH1 0x58 SHL PUSH1 0x44 DUP3 ADD MSTORE PUSH1 0x64 SWAP1 REVERT JUMPDEST CALLVALUE PUSH2 0x165 JUMPI PUSH1 0x0 CALLDATASIZE PUSH1 0x3 NOT ADD SLT PUSH2 0x165 JUMPI PUSH2 0x117B PUSH2 0x1609 JUMP JUMPDEST PUSH1 0x65 DUP1 SLOAD PUSH1 0x1 PUSH1 0x1 PUSH1 0xA0 SHL SUB NOT SWAP1 DUP2 AND SWAP1 SWAP2 SSTORE PUSH1 0x33 DUP1 SLOAD SWAP2 DUP3 AND SWAP1 SSTORE PUSH1 0x0 SWAP1 PUSH1 0x1 PUSH1 0x1 PUSH1 0xA0 SHL SUB AND PUSH32 0x8BE0079C531659141344CD1FD0A4F28419497F9722A3DAAFE3B4186F6B6457E0 DUP3 DUP1 LOG3 STOP JUMPDEST CALLVALUE PUSH2 0x165 JUMPI PUSH1 0x0 CALLDATASIZE PUSH1 0x3 NOT ADD SLT PUSH2 0x165 JUMPI PUSH1 0x20 PUSH1 0xFF PUSH1 0xCD SLOAD AND PUSH1 0x40 MLOAD SWAP1 ISZERO ISZERO DUP2 MSTORE RETURN JUMPDEST CALLVALUE PUSH2 0x165 JUMPI PUSH1 0x40 CALLDATASIZE PUSH1 0x3 NOT ADD SLT PUSH2 0x165 JUMPI PUSH2 0x1205 PUSH2 0x15A2 JUMP JUMPDEST PUSH1 0x24 CALLDATALOAD SWAP1 PUSH1 0x1 DUP1 PUSH1 0xA0 SHL SUB AND DUP1 PUSH1 0x0 MSTORE PUSH1 0x20 SWAP2 PUSH1 0x9A DUP4 MSTORE PUSH2 0x122D PUSH1 0x1 PUSH1 0x40 PUSH1 0x0 KECCAK256 SLOAD EQ PUSH2 0x17B2 JUMP JUMPDEST PUSH2 0x1238 DUP2 ISZERO ISZERO PUSH2 0x17F2 JUMP JUMPDEST PUSH1 0x40 MLOAD PUSH4 0x23B872DD PUSH1 0xE0 SHL DUP2 MSTORE CALLER PUSH1 0x4 DUP3 ADD MSTORE ADDRESS PUSH1 0x24 DUP3 ADD MSTORE PUSH1 0x44 DUP2 ADD DUP3 SWAP1 MSTORE DUP4 DUP2 PUSH1 0x64 DUP2 PUSH1 0x0 DUP8 GAS CALL DUP1 ISZERO PUSH2 0x3AE JUMPI PUSH2 0x12C4 JUMPI JUMPDEST POP DUP2 PUSH1 0x0 MSTORE PUSH2 0x133 DUP4 MSTORE PUSH1 0x40 PUSH1 0x0 KECCAK256 CALLER PUSH1 0x0 MSTORE DUP4 MSTORE PUSH1 0x40 PUSH1 0x0 KECCAK256 PUSH2 0x1292 DUP3 DUP3 SLOAD PUSH2 0x1705 JUMP JUMPDEST SWAP1 SSTORE PUSH1 0x40 MLOAD SWAP2 CALLER PUSH32 0x5548C837AB068CF56A2C2479DF0882A4922FD203EDB7517321831D95078C5F62 PUSH1 0x0 DUP1 LOG4 PUSH1 0x1 DUP2 MSTORE RETURN JUMPDEST PUSH2 0x12DA SWAP1 DUP5 RETURNDATASIZE DUP7 GT PUSH2 0x3A7 JUMPI PUSH2 0x398 DUP2 DUP4 PUSH2 0x1745 JUMP JUMPDEST POP DUP4 PUSH2 0x126D JUMP JUMPDEST CALLVALUE PUSH2 0x165 JUMPI PUSH1 0x20 CALLDATASIZE PUSH1 0x3 NOT ADD SLT PUSH2 0x165 JUMPI PUSH1 0x4 CALLDATALOAD PUSH8 0xFFFFFFFFFFFFFFFF DUP2 AND DUP1 SWAP2 SUB PUSH2 0x165 JUMPI PUSH1 0x20 PUSH32 0x1CE29A697A4765BD17D91DF93BA75B250B629ECF030553FF1F6AB59F15AE6C7B SWAP2 PUSH2 0x1333 PUSH2 0x1609 JUMP JUMPDEST DUP1 PUSH8 0xFFFFFFFFFFFFFFFF NOT PUSH1 0x98 SLOAD AND OR PUSH1 0x98 SSTORE PUSH1 0x40 MLOAD SWAP1 DUP2 MSTORE LOG1 STOP JUMPDEST CALLVALUE PUSH2 0x165 JUMPI PUSH1 0x40 CALLDATASIZE PUSH1 0x3 NOT ADD SLT PUSH2 0x165 JUMPI PUSH1 0x4 CALLDATALOAD PUSH2 0x136B PUSH2 0x158C JUMP JUMPDEST SWAP1 PUSH2 0x1374 PUSH2 0x1609 JUMP JUMPDEST PUSH1 0x1 PUSH1 0x1 PUSH1 0xA0 SHL SUB DUP3 DUP2 AND SWAP3 PUSH2 0x138B DUP5 ISZERO ISZERO PUSH2 0x1919 JUMP JUMPDEST PUSH1 0x0 PUSH8 0x7472656173757279 PUSH1 0xC0 SHL DUP5 SUB PUSH2 0x1461 JUMPI POP DUP4 PUSH1 0x98 SLOAD SWAP3 DUP4 PUSH1 0x40 SHR AND EQ PUSH2 0x140E JUMPI PUSH9 0x10000000000000000 PUSH1 0x1 PUSH1 0xE0 SHL SUB NOT SWAP1 SWAP2 AND PUSH1 0x40 SWAP2 SWAP1 SWAP2 SHL PUSH9 0x10000000000000000 PUSH1 0x1 PUSH1 0xE0 SHL SUB AND OR PUSH1 0x98 SSTORE PUSH1 0x1 JUMPDEST PUSH2 0x13E7 JUMPI STOP JUMPDEST PUSH32 0xBBC5B96E57CFECB3DBEEADF92E87F15E58E64FCD75CBE256DCC5D9EF2E51E8A4 PUSH1 0x0 DUP1 LOG3 STOP JUMPDEST PUSH1 0x40 MLOAD PUSH3 0x461BCD PUSH1 0xE5 SHL DUP2 MSTORE PUSH1 0x20 PUSH1 0x4 DUP3 ADD MSTORE PUSH1 0x25 PUSH1 0x24 DUP3 ADD MSTORE PUSH32 0x476174657761793A207472656173757279206164647265737320616C72656164 PUSH1 0x44 DUP3 ADD MSTORE PUSH5 0x1E481CD95D PUSH1 0xDA SHL PUSH1 0x64 DUP3 ADD MSTORE PUSH1 0x84 SWAP1 REVERT JUMPDEST SWAP2 SWAP1 POP PUSH10 0x30B3B3B932B3B0BA37B9 PUSH1 0xB1 SHL DUP4 EQ PUSH2 0x147F JUMPI JUMPDEST POP PUSH2 0x13E1 JUMP JUMPDEST PUSH1 0x99 SLOAD SWAP2 POP DUP2 AND DUP4 EQ PUSH2 0x14A3 JUMPI PUSH1 0x1 PUSH1 0x1 PUSH1 0xA0 SHL SUB NOT AND DUP3 OR PUSH1 0x99 SSTORE PUSH1 0x1 DUP4 PUSH2 0x1479 JUMP JUMPDEST PUSH1 0x40 MLOAD PUSH3 0x461BCD PUSH1 0xE5 SHL DUP2 MSTORE PUSH1 0x20 PUSH1 0x4 DUP3 ADD MSTORE PUSH1 0x27 PUSH1 0x24 DUP3 ADD MSTORE PUSH32 0x476174657761793A2061676772656761746F72206164647265737320616C7265 PUSH1 0x44 DUP3 ADD MSTORE PUSH7 0x18591E481CD95D PUSH1 0xCA SHL PUSH1 0x64 DUP3 ADD MSTORE PUSH1 0x84 SWAP1 REVERT JUMPDEST CALLVALUE PUSH2 0x165 JUMPI PUSH1 0x0 CALLDATASIZE PUSH1 0x3 NOT ADD SLT PUSH2 0x165 JUMPI PUSH2 0x1511 PUSH2 0x1609 JUMP JUMPDEST PUSH1 0xCD SLOAD PUSH1 0xFF DUP2 AND ISZERO PUSH2 0x1550 JUMPI PUSH1 0xFF NOT AND PUSH1 0xCD SSTORE PUSH32 0x5DB9EE0A495BF2E6FF9C91A7834C1BA4FDD244A5E8AA4E537BD38AEAE4B073AA PUSH1 0x20 PUSH1 0x40 MLOAD CALLER DUP2 MSTORE LOG1 STOP JUMPDEST PUSH1 0x40 MLOAD PUSH3 0x461BCD PUSH1 0xE5 SHL DUP2 MSTORE PUSH1 0x20 PUSH1 0x4 DUP3 ADD MSTORE PUSH1 0x14 PUSH1 0x24 DUP3 ADD MSTORE PUSH20 0x14185D5CD8589B194E881B9BDD081C185D5CD959 PUSH1 0x62 SHL PUSH1 0x44 DUP3 ADD MSTORE PUSH1 0x64 SWAP1 REVERT JUMPDEST PUSH1 0x24 CALLDATALOAD SWAP1 PUSH1 0x1 PUSH1 0x1 PUSH1 0xA0 SHL SUB DUP3 AND DUP3 SUB PUSH2 0x165 JUMPI JUMP JUMPDEST PUSH1 0x4 CALLDATALOAD SWAP1 PUSH1 0x1 PUSH1 0x1 PUSH1 0xA0 SHL SUB DUP3 AND DUP3 SUB PUSH2 0x165 JUMPI JUMP JUMPDEST PUSH1 0x1 PUSH1 0x1 PUSH1 0x60 SHL SUB PUSH1 0xA0 SHL SWAP1 DUP2 PUSH1 0x65 SLOAD AND PUSH1 0x65 SSTORE PUSH1 0x33 SLOAD PUSH1 0x1 DUP1 PUSH1 0xA0 SHL SUB DUP1 SWAP3 AND DUP1 SWAP4 DUP3 AND OR PUSH1 0x33 SSTORE AND PUSH32 0x8BE0079C531659141344CD1FD0A4F28419497F9722A3DAAFE3B4186F6B6457E0 PUSH1 0x0 DUP1 LOG3 JUMP JUMPDEST PUSH1 0x33 SLOAD PUSH1 0x1 PUSH1 0x1 PUSH1 0xA0 SHL SUB AND CALLER SUB PUSH2 0x161D JUMPI JUMP JUMPDEST PUSH1 0x64 PUSH1 0x40 MLOAD PUSH3 0x461BCD PUSH1 0xE5 SHL DUP2 MSTORE PUSH1 0x20 PUSH1 0x4 DUP3 ADD MSTORE PUSH1 0x20 PUSH1 0x24 DUP3 ADD MSTORE PUSH32 0x4F776E61626C653A2063616C6C6572206973206E6F7420746865206F776E6572 PUSH1 0x44 DUP3 ADD MSTORE REVERT JUMPDEST ISZERO PUSH2 0x1668 JUMPI JUMP JUMPDEST PUSH1 0x40 MLOAD PUSH3 0x461BCD PUSH1 0xE5 SHL DUP2 MSTORE PUSH1 0x20 PUSH1 0x4 DUP3 ADD MSTORE PUSH1 0x2B PUSH1 0x24 DUP3 ADD MSTORE PUSH32 0x496E697469616C697A61626C653A20636F6E7472616374206973206E6F742069 PUSH1 0x44 DUP3 ADD MSTORE PUSH11 0x6E697469616C697A696E67 PUSH1 0xA8 SHL PUSH1 0x64 DUP3 ADD MSTORE PUSH1 0x84 SWAP1 REVERT JUMPDEST PUSH1 0xFF PUSH1 0xCD SLOAD AND PUSH2 0x16CD JUMPI JUMP JUMPDEST PUSH1 0x40 MLOAD PUSH3 0x461BCD PUSH1 0xE5 SHL DUP2 MSTORE PUSH1 0x20 PUSH1 0x4 DUP3 ADD MSTORE PUSH1 0x10 PUSH1 0x24 DUP3 ADD MSTORE PUSH16 0x14185D5CD8589B194E881C185D5CD959 PUSH1 0x82 SHL PUSH1 0x44 DUP3 ADD MSTORE PUSH1 0x64 SWAP1 REVERT JUMPDEST SWAP2 SWAP1 DUP3 ADD DUP1 SWAP3 GT PUSH2 0x4B2 JUMPI JUMP JUMPDEST PUSH2 0x140 DUP2 ADD SWAP1 DUP2 LT PUSH8 0xFFFFFFFFFFFFFFFF DUP3 GT OR PUSH2 0x172F JUMPI PUSH1 0x40 MSTORE JUMP JUMPDEST PUSH4 0x4E487B71 PUSH1 0xE0 SHL PUSH1 0x0 MSTORE PUSH1 0x41 PUSH1 0x4 MSTORE PUSH1 0x24 PUSH1 0x0 REVERT JUMPDEST SWAP1 PUSH1 0x1F DUP1 NOT SWAP2 ADD AND DUP2 ADD SWAP1 DUP2 LT PUSH8 0xFFFFFFFFFFFFFFFF DUP3 GT OR PUSH2 0x172F JUMPI PUSH1 0x40 MSTORE JUMP JUMPDEST SWAP1 DUP2 PUSH1 0x20 SWAP2 SUB SLT PUSH2 0x165 JUMPI MLOAD DUP1 ISZERO ISZERO DUP2 SUB PUSH2 0x165 JUMPI SWAP1 JUMP JUMPDEST DUP2 DUP2 MUL SWAP3 SWAP2 DUP2 ISZERO SWAP2 DUP5 DIV EQ OR ISZERO PUSH2 0x4B2 JUMPI JUMP JUMPDEST DUP2 ISZERO PUSH2 0x179C JUMPI DIV SWAP1 JUMP JUMPDEST PUSH4 0x4E487B71 PUSH1 0xE0 SHL PUSH1 0x0 MSTORE PUSH1 0x12 PUSH1 0x4 MSTORE PUSH1 0x24 PUSH1 0x0 REVERT JUMPDEST ISZERO PUSH2 0x17B9 JUMPI JUMP JUMPDEST PUSH1 0x40 MLOAD PUSH3 0x461BCD PUSH1 0xE5 SHL DUP2 MSTORE PUSH1 0x20 PUSH1 0x4 DUP3 ADD MSTORE PUSH1 0x11 PUSH1 0x24 DUP3 ADD MSTORE PUSH17 0x151BDAD95B939BDD14DD5C1C1BDC9D1959 PUSH1 0x7A SHL PUSH1 0x44 DUP3 ADD MSTORE PUSH1 0x64 SWAP1 REVERT JUMPDEST ISZERO PUSH2 0x17F9 JUMPI JUMP JUMPDEST PUSH1 0x40 MLOAD PUSH3 0x461BCD PUSH1 0xE5 SHL DUP2 MSTORE PUSH1 0x20 PUSH1 0x4 DUP3 ADD MSTORE PUSH1 0xC PUSH1 0x24 DUP3 ADD MSTORE PUSH12 0x416D6F756E7449735A65726F PUSH1 0xA0 SHL PUSH1 0x44 DUP3 ADD MSTORE PUSH1 0x64 SWAP1 REVERT JUMPDEST ISZERO PUSH2 0x1834 JUMPI JUMP JUMPDEST PUSH1 0x40 MLOAD PUSH3 0x461BCD PUSH1 0xE5 SHL DUP2 MSTORE PUSH1 0x20 PUSH1 0x4 DUP3 ADD MSTORE PUSH1 0xE PUSH1 0x24 DUP3 ADD MSTORE PUSH14 0x27B7363CA0B3B3B932B3B0BA37B9 PUSH1 0x91 SHL PUSH1 0x44 DUP3 ADD MSTORE PUSH1 0x64 SWAP1 REVERT JUMPDEST ISZERO PUSH2 0x1871 JUMPI JUMP JUMPDEST PUSH1 0x40 MLOAD PUSH3 0x461BCD PUSH1 0xE5 SHL DUP2 MSTORE PUSH1 0x20 PUSH1 0x4 DUP3 ADD MSTORE PUSH1 0xE PUSH1 0x24 DUP3 ADD MSTORE PUSH14 0x13DC99195C919D5B199A5B1B1959 PUSH1 0x92 SHL PUSH1 0x44 DUP3 ADD MSTORE PUSH1 0x64 SWAP1 REVERT JUMPDEST ISZERO PUSH2 0x18AE JUMPI JUMP JUMPDEST PUSH1 0x40 MLOAD PUSH3 0x461BCD PUSH1 0xE5 SHL DUP2 MSTORE PUSH1 0x20 PUSH1 0x4 DUP3 ADD MSTORE PUSH1 0xD PUSH1 0x24 DUP3 ADD MSTORE PUSH13 0x13DC99195C9499599D5B991959 PUSH1 0x9A SHL PUSH1 0x44 DUP3 ADD MSTORE PUSH1 0x64 SWAP1 REVERT JUMPDEST SWAP2 SWAP1 DUP3 SUB SWAP2 DUP3 GT PUSH2 0x4B2 JUMPI JUMP JUMPDEST PUSH1 0x1 PUSH1 0x1 PUSH1 0xA0 SHL SUB AND PUSH1 0x0 SWAP1 DUP2 MSTORE PUSH1 0x9A PUSH1 0x20 MSTORE PUSH1 0x40 SWAP1 KECCAK256 SLOAD PUSH1 0x1 EQ PUSH2 0x1914 JUMPI PUSH1 0x0 SWAP1 JUMP JUMPDEST PUSH1 0x1 SWAP1 JUMP JUMPDEST ISZERO PUSH2 0x1920 JUMPI JUMP JUMPDEST PUSH1 0x40 MLOAD PUSH3 0x461BCD PUSH1 0xE5 SHL DUP2 MSTORE PUSH1 0x20 PUSH1 0x4 DUP3 ADD MSTORE PUSH1 0x15 PUSH1 0x24 DUP3 ADD MSTORE PUSH21 0x476174657761793A207A65726F2061646472657373 PUSH1 0x58 SHL PUSH1 0x44 DUP3 ADD MSTORE PUSH1 0x64 SWAP1 REVERT INVALID LOG2 PUSH5 0x6970667358 0x22 SLT KECCAK256 0xE CREATE SWAP11 REVERT PUSH15 0xA06CE77D51285CF717F95AB3EE7BAF SWAP13 DELEGATECALL PUSH27 0x9FC964C8E9F5854FB164736F6C6343000812003300000000000000 "},"gasEstimates":{"creation":{"codeDepositCost":"1309400","executionCost":"26705","totalCost":"1336105"},"external":{"acceptOwnership()":"52485","createOrder(address,uint256,uint96,address,uint256,address,string)":"infinite","deposit(address,uint256)":"infinite","getBalance(address,address)":"2901","getFeeDetails()":"4682","getOrderInfo(bytes32)":"infinite","initialize()":"infinite","isTokenSupported(address)":"2617","owner()":"2560","pause()":"29949","paused()":"2350","pendingOwner()":"2648","refund(uint256,bytes32)":"infinite","renounceOwnership()":"52386","settingManagerBool(bytes32,address,uint256)":"26829","settle(bytes32,bytes32,address,uint64)":"infinite","transferOwnership(address)":"30661","unpause()":"27558","updateProtocolAddress(bytes32,address)":"28353","updateProtocolFee(uint64)":"27624"},"internal":{"_handler(address,uint256,address,address,uint256)":"infinite"}},"methodIdentifiers":{"acceptOwnership()":"79ba5097","createOrder(address,uint256,uint96,address,uint256,address,string)":"809804f7","deposit(address,uint256)":"47e7ef24","getBalance(address,address)":"d4fac45d","getFeeDetails()":"b810c636","getOrderInfo(bytes32)":"768c6ec0","initialize()":"8129fc1c","isTokenSupported(address)":"75151b63","owner()":"8da5cb5b","pause()":"8456cb59","paused()":"5c975abb","pendingOwner()":"e30c3978","refund(uint256,bytes32)":"71eedb88","renounceOwnership()":"715018a6","settingManagerBool(bytes32,address,uint256)":"cd992400","settle(bytes32,bytes32,address,uint64)":"f22ee704","transferOwnership(address)":"f2fde38b","unpause()":"3f4ba83a","updateProtocolAddress(bytes32,address)":"40ebc677","updateProtocolFee(uint64)":"47094e2e"}},"storageLayout":{"storage":[{"astId":246,"contract":"contracts/Gateway.sol:Gateway","label":"_initialized","offset":0,"slot":"0","type":"t_uint8"},{"astId":249,"contract":"contracts/Gateway.sol:Gateway","label":"_initializing","offset":1,"slot":"0","type":"t_bool"},{"astId":916,"contract":"contracts/Gateway.sol:Gateway","label":"__gap","offset":0,"slot":"1","type":"t_array(t_uint256)50_storage"},{"astId":118,"contract":"contracts/Gateway.sol:Gateway","label":"_owner","offset":0,"slot":"51","type":"t_address"},{"astId":238,"contract":"contracts/Gateway.sol:Gateway","label":"__gap","offset":0,"slot":"52","type":"t_array(t_uint256)49_storage"},{"astId":11,"contract":"contracts/Gateway.sol:Gateway","label":"_pendingOwner","offset":0,"slot":"101","type":"t_address"},{"astId":105,"contract":"contracts/Gateway.sol:Gateway","label":"__gap","offset":0,"slot":"102","type":"t_array(t_uint256)49_storage"},{"astId":2317,"contract":"contracts/Gateway.sol:Gateway","label":"MAX_BPS","offset":0,"slot":"151","type":"t_uint256"},{"astId":2319,"contract":"contracts/Gateway.sol:Gateway","label":"protocolFeePercent","offset":0,"slot":"152","type":"t_uint64"},{"astId":2321,"contract":"contracts/Gateway.sol:Gateway","label":"treasuryAddress","offset":8,"slot":"152","type":"t_address"},{"astId":2323,"contract":"contracts/Gateway.sol:Gateway","label":"_aggregatorAddress","offset":0,"slot":"153","type":"t_address"},{"astId":2327,"contract":"contracts/Gateway.sol:Gateway","label":"_isTokenSupported","offset":0,"slot":"154","type":"t_mapping(t_address,t_uint256)"},{"astId":2331,"contract":"contracts/Gateway.sol:Gateway","label":"__gap","offset":0,"slot":"155","type":"t_array(t_uint256)50_storage"},{"astId":430,"contract":"contracts/Gateway.sol:Gateway","label":"_paused","offset":0,"slot":"205","type":"t_bool"},{"astId":535,"contract":"contracts/Gateway.sol:Gateway","label":"__gap","offset":0,"slot":"206","type":"t_array(t_uint256)49_storage"},{"astId":1662,"contract":"contracts/Gateway.sol:Gateway","label":"order","offset":0,"slot":"255","type":"t_mapping(t_bytes32,t_struct(Order)2571_storage)"},{"astId":1666,"contract":"contracts/Gateway.sol:Gateway","label":"_nonce","offset":0,"slot":"256","type":"t_mapping(t_address,t_uint256)"},{"astId":1670,"contract":"contracts/Gateway.sol:Gateway","label":"__gap","offset":0,"slot":"257","type":"t_array(t_uint256)50_storage"},{"astId":1676,"contract":"contracts/Gateway.sol:Gateway","label":"balance","offset":0,"slot":"307","type":"t_mapping(t_address,t_mapping(t_address,t_uint256))"}],"types":{"t_address":{"encoding":"inplace","label":"address","numberOfBytes":"20"},"t_array(t_uint256)49_storage":{"base":"t_uint256","encoding":"inplace","label":"uint256[49]","numberOfBytes":"1568"},"t_array(t_uint256)50_storage":{"base":"t_uint256","encoding":"inplace","label":"uint256[50]","numberOfBytes":"1600"},"t_bool":{"encoding":"inplace","label":"bool","numberOfBytes":"1"},"t_bytes32":{"encoding":"inplace","label":"bytes32","numberOfBytes":"32"},"t_mapping(t_address,t_mapping(t_address,t_uint256))":{"encoding":"mapping","key":"t_address","label":"mapping(address => mapping(address => uint256))","numberOfBytes":"32","value":"t_mapping(t_address,t_uint256)"},"t_mapping(t_address,t_uint256)":{"encoding":"mapping","key":"t_address","label":"mapping(address => uint256)","numberOfBytes":"32","value":"t_uint256"},"t_mapping(t_bytes32,t_struct(Order)2571_storage)":{"encoding":"mapping","key":"t_bytes32","label":"mapping(bytes32 => struct IGateway.Order)","numberOfBytes":"32","value":"t_struct(Order)2571_storage"},"t_struct(Order)2571_storage":{"encoding":"inplace","label":"struct IGateway.Order","members":[{"astId":2552,"contract":"contracts/Gateway.sol:Gateway","label":"sender","offset":0,"slot":"0","type":"t_address"},{"astId":2554,"contract":"contracts/Gateway.sol:Gateway","label":"token","offset":0,"slot":"1","type":"t_address"},{"astId":2556,"contract":"contracts/Gateway.sol:Gateway","label":"senderFeeRecipient","offset":0,"slot":"2","type":"t_address"},{"astId":2558,"contract":"contracts/Gateway.sol:Gateway","label":"senderFee","offset":0,"slot":"3","type":"t_uint256"},{"astId":2560,"contract":"contracts/Gateway.sol:Gateway","label":"protocolFee","offset":0,"slot":"4","type":"t_uint256"},{"astId":2562,"contract":"contracts/Gateway.sol:Gateway","label":"isFulfilled","offset":0,"slot":"5","type":"t_bool"},{"astId":2564,"contract":"contracts/Gateway.sol:Gateway","label":"isRefunded","offset":1,"slot":"5","type":"t_bool"},{"astId":2566,"contract":"contracts/Gateway.sol:Gateway","label":"refundAddress","offset":2,"slot":"5","type":"t_address"},{"astId":2568,"contract":"contracts/Gateway.sol:Gateway","label":"currentBPS","offset":0,"slot":"6","type":"t_uint96"},{"astId":2570,"contract":"contracts/Gateway.sol:Gateway","label":"amount","offset":0,"slot":"7","type":"t_uint256"}],"numberOfBytes":"256"},"t_uint256":{"encoding":"inplace","label":"uint256","numberOfBytes":"32"},"t_uint64":{"encoding":"inplace","label":"uint64","numberOfBytes":"8"},"t_uint8":{"encoding":"inplace","label":"uint8","numberOfBytes":"1"},"t_uint96":{"encoding":"inplace","label":"uint96","numberOfBytes":"12"}}},"userdoc":{"events":{"Deposit(address,address,uint256)":{"notice":"Emitted when a deposit is made by a provider."},"OrderCreated(address,address,uint256,uint256,bytes32,uint256,string)":{"notice":"Emitted when an order is created."},"OrderRefunded(uint256,bytes32)":{"notice":"Emitted when an aggregator refunds a transaction."},"OrderSettled(bytes32,bytes32,address,uint96)":{"notice":"Emitted when an aggregator settles a transaction."},"SenderFeeTransferred(address,uint256)":{"notice":"Emitted when the sender's fee is transferred."}},"kind":"user","methods":{},"notice":"This contract serves as a gateway for creating orders and managing settlements.","version":1}}}}