{"contracts/Gateway.sol":{"Gateway":{"abi":[{"inputs":[],"stateMutability":"nonpayable","type":"constructor"},{"anonymous":false,"inputs":[{"indexed":true,"internalType":"address","name":"sender","type":"address"},{"indexed":true,"internalType":"address","name":"token","type":"address"},{"indexed":true,"internalType":"uint256","name":"amount","type":"uint256"}],"name":"Deposit","type":"event"},{"anonymous":false,"inputs":[{"indexed":false,"internalType":"uint8","name":"version","type":"uint8"}],"name":"Initialized","type":"event"},{"anonymous":false,"inputs":[{"indexed":true,"internalType":"address","name":"sender","type":"address"},{"indexed":true,"internalType":"address","name":"token","type":"address"},{"indexed":true,"internalType":"uint256","name":"amount","type":"uint256"},{"indexed":false,"internalType":"uint256","name":"protocolFee","type":"uint256"},{"indexed":false,"internalType":"bytes32","name":"orderId","type":"bytes32"},{"indexed":false,"internalType":"uint256","name":"rate","type":"uint256"},{"indexed":false,"internalType":"string","name":"messageHash","type":"string"}],"name":"OrderCreated","type":"event"},{"anonymous":false,"inputs":[{"indexed":false,"internalType":"uint256","name":"fee","type":"uint256"},{"indexed":true,"internalType":"bytes32","name":"orderId","type":"bytes32"}],"name":"OrderRefunded","type":"event"},{"anonymous":false,"inputs":[{"indexed":true,"internalType":"address","name":"provider","type":"address"},{"indexed":true,"internalType":"address","name":"senderAddress","type":"address"},{"indexed":true,"internalType":"uint256","name":"amount","type":"uint256"},{"indexed":false,"internalType":"address","name":"token","type":"address"},{"indexed":false,"internalType":"bytes32","name":"orderId","type":"bytes32"}],"name":"OrderSettledIn","type":"event"},{"anonymous":false,"inputs":[{"indexed":false,"internalType":"bytes32","name":"splitOrderId","type":"bytes32"},{"indexed":true,"internalType":"bytes32","name":"orderId","type":"bytes32"},{"indexed":true,"internalType":"address","name":"liquidityProvider","type":"address"},{"indexed":false,"internalType":"uint96","name":"settlePercent","type":"uint96"}],"name":"OrderSettledOut","type":"event"},{"anonymous":false,"inputs":[{"indexed":true,"internalType":"address","name":"previousOwner","type":"address"},{"indexed":true,"internalType":"address","name":"newOwner","type":"address"}],"name":"OwnershipTransferStarted","type":"event"},{"anonymous":false,"inputs":[{"indexed":true,"internalType":"address","name":"previousOwner","type":"address"},{"indexed":true,"internalType":"address","name":"newOwner","type":"address"}],"name":"OwnershipTransferred","type":"event"},{"anonymous":false,"inputs":[{"indexed":false,"internalType":"address","name":"account","type":"address"}],"name":"Paused","type":"event"},{"anonymous":false,"inputs":[{"indexed":true,"internalType":"bytes32","name":"what","type":"bytes32"},{"indexed":true,"internalType":"address","name":"treasuryAddress","type":"address"}],"name":"ProtocolAddressUpdated","type":"event"},{"anonymous":false,"inputs":[{"indexed":false,"internalType":"uint64","name":"protocolFee","type":"uint64"}],"name":"ProtocolFeeUpdated","type":"event"},{"anonymous":false,"inputs":[{"indexed":true,"internalType":"address","name":"sender","type":"address"},{"indexed":true,"internalType":"uint256","name":"amount","type":"uint256"}],"name":"SenderFeeTransferred","type":"event"},{"anonymous":false,"inputs":[{"indexed":true,"internalType":"address","name":"treasuryAddress","type":"address"}],"name":"SetFeeRecipient","type":"event"},{"anonymous":false,"inputs":[{"indexed":true,"internalType":"bytes32","name":"what","type":"bytes32"},{"indexed":true,"internalType":"address","name":"value","type":"address"},{"indexed":false,"internalType":"uint256","name":"status","type":"uint256"}],"name":"SettingManagerBool","type":"event"},{"anonymous":false,"inputs":[{"indexed":false,"internalType":"address","name":"account","type":"address"}],"name":"Unpaused","type":"event"},{"inputs":[],"name":"acceptOwnership","outputs":[],"stateMutability":"nonpayable","type":"function"},{"inputs":[{"internalType":"address","name":"_token","type":"address"},{"internalType":"uint256","name":"_amount","type":"uint256"},{"internalType":"uint96","name":"_rate","type":"uint96"},{"internalType":"address","name":"_senderFeeRecipient","type":"address"},{"internalType":"uint256","name":"_senderFee","type":"uint256"},{"internalType":"address","name":"_refundAddress","type":"address"},{"internalType":"string","name":"messageHash","type":"string"}],"name":"createOrder","outputs":[{"internalType":"bytes32","name":"orderId","type":"bytes32"}],"stateMutability":"nonpayable","type":"function"},{"inputs":[{"internalType":"address","name":"_token","type":"address"},{"internalType":"uint256","name":"_amount","type":"uint256"}],"name":"deposit","outputs":[{"internalType":"bool","name":"","type":"bool"}],"stateMutability":"nonpayable","type":"function"},{"inputs":[{"internalType":"address","name":"_token","type":"address"},{"internalType":"address","name":"_provider","type":"address"}],"name":"getBalance","outputs":[{"internalType":"uint256","name":"","type":"uint256"}],"stateMutability":"view","type":"function"},{"inputs":[],"name":"getFeeDetails","outputs":[{"internalType":"uint64","name":"","type":"uint64"},{"internalType":"uint256","name":"","type":"uint256"}],"stateMutability":"view","type":"function"},{"inputs":[{"internalType":"bytes32","name":"_orderId","type":"bytes32"}],"name":"getOrderInfoIn","outputs":[{"components":[{"internalType":"uint256","name":"amount","type":"uint256"},{"internalType":"address","name":"provider","type":"address"},{"internalType":"address","name":"sender","type":"address"},{"internalType":"address","name":"token","type":"address"},{"internalType":"bytes32","name":"orderId","type":"bytes32"}],"internalType":"struct IGateway.OrderIn","name":"","type":"tuple"}],"stateMutability":"view","type":"function"},{"inputs":[{"internalType":"bytes32","name":"_orderId","type":"bytes32"}],"name":"getOrderInfoOut","outputs":[{"components":[{"internalType":"address","name":"sender","type":"address"},{"internalType":"address","name":"token","type":"address"},{"internalType":"address","name":"senderFeeRecipient","type":"address"},{"internalType":"uint256","name":"senderFee","type":"uint256"},{"internalType":"uint256","name":"protocolFee","type":"uint256"},{"internalType":"bool","name":"isFulfilled","type":"bool"},{"internalType":"bool","name":"isRefunded","type":"bool"},{"internalType":"address","name":"refundAddress","type":"address"},{"internalType":"uint96","name":"currentBPS","type":"uint96"},{"internalType":"uint256","name":"amount","type":"uint256"}],"internalType":"struct IGateway.OrderOut","name":"","type":"tuple"}],"stateMutability":"view","type":"function"},{"inputs":[],"name":"initialize","outputs":[],"stateMutability":"nonpayable","type":"function"},{"inputs":[{"internalType":"bytes32","name":"_orderId","type":"bytes32"}],"name":"isOrderProcessed","outputs":[{"internalType":"bool","name":"","type":"bool"}],"stateMutability":"view","type":"function"},{"inputs":[{"internalType":"address","name":"_token","type":"address"}],"name":"isTokenSupported","outputs":[{"internalType":"bool","name":"","type":"bool"}],"stateMutability":"view","type":"function"},{"inputs":[],"name":"owner","outputs":[{"internalType":"address","name":"","type":"address"}],"stateMutability":"view","type":"function"},{"inputs":[],"name":"pause","outputs":[],"stateMutability":"nonpayable","type":"function"},{"inputs":[],"name":"paused","outputs":[{"internalType":"bool","name":"","type":"bool"}],"stateMutability":"view","type":"function"},{"inputs":[],"name":"pendingOwner","outputs":[{"internalType":"address","name":"","type":"address"}],"stateMutability":"view","type":"function"},{"inputs":[{"internalType":"uint256","name":"_fee","type":"uint256"},{"internalType":"bytes32","name":"_orderId","type":"bytes32"}],"name":"refundOrder","outputs":[{"internalType":"bool","name":"","type":"bool"}],"stateMutability":"nonpayable","type":"function"},{"inputs":[],"name":"renounceOwnership","outputs":[],"stateMutability":"nonpayable","type":"function"},{"inputs":[{"internalType":"bytes32","name":"what","type":"bytes32"},{"internalType":"address","name":"value","type":"address"},{"internalType":"uint256","name":"status","type":"uint256"}],"name":"settingManagerBool","outputs":[],"stateMutability":"nonpayable","type":"function"},{"inputs":[{"internalType":"bytes32","name":"_orderId","type":"bytes32"},{"internalType":"bytes","name":"_signature","type":"bytes"},{"internalType":"address","name":"_provider","type":"address"},{"internalType":"address","name":"_sender","type":"address"},{"internalType":"address","name":"_token","type":"address"},{"internalType":"uint256","name":"_amount","type":"uint256"}],"name":"settleOrderIn","outputs":[],"stateMutability":"nonpayable","type":"function"},{"inputs":[{"internalType":"bytes32","name":"_splitOrderId","type":"bytes32"},{"internalType":"bytes32","name":"_orderId","type":"bytes32"},{"internalType":"address","name":"_provider","type":"address"},{"internalType":"uint64","name":"_settlePercent","type":"uint64"}],"name":"settleOrderOut","outputs":[{"internalType":"bool","name":"","type":"bool"}],"stateMutability":"nonpayable","type":"function"},{"inputs":[{"internalType":"address","name":"newOwner","type":"address"}],"name":"transferOwnership","outputs":[],"stateMutability":"nonpayable","type":"function"},{"inputs":[],"name":"unpause","outputs":[],"stateMutability":"nonpayable","type":"function"},{"inputs":[{"internalType":"bytes32","name":"what","type":"bytes32"},{"internalType":"address","name":"value","type":"address"}],"name":"updateProtocolAddress","outputs":[],"stateMutability":"nonpayable","type":"function"},{"inputs":[{"internalType":"uint64","name":"_protocolFeePercent","type":"uint64"}],"name":"updateProtocolFee","outputs":[],"stateMutability":"nonpayable","type":"function"}],"devdoc":{"events":{"Deposit(address,address,uint256)":{"params":{"amount":"The amount of the deposit.","sender":"The address of the sender.","token":"The address of the deposited token."}},"Initialized(uint8)":{"details":"Triggered when the contract has been initialized or reinitialized."},"OrderCreated(address,address,uint256,uint256,bytes32,uint256,string)":{"params":{"amount":"The amount of the deposit.","messageHash":"The hash of the message.","orderId":"The ID of the order.","rate":"The rate at which the deposit is made.","sender":"The address of the sender.","token":"The address of the deposited token."}},"OrderRefunded(uint256,bytes32)":{"params":{"fee":"The fee deducted from the refund amount.","orderId":"The ID of the order."}},"OrderSettledIn(address,address,uint256,address,bytes32)":{"details":"Emitted when an order is settled in.","params":{"amount":"The address of the deposited token.","orderId":"The ID of the order.","provider":"The address of the provider.","senderAddress":"The address of the sender.","token":"The amount of the deposit."}},"OrderSettledOut(bytes32,bytes32,address,uint96)":{"params":{"liquidityProvider":"The address of the liquidity provider.","orderId":"The ID of the order.","settlePercent":"The percentage at which the transaction is settled.","splitOrderId":"The ID of the split order."}},"Paused(address)":{"details":"Emitted when the pause is triggered by `account`."},"SenderFeeTransferred(address,uint256)":{"params":{"amount":"The amount of the fee transferred.","sender":"The address of the sender."}},"Unpaused(address)":{"details":"Emitted when the pause is lifted by `account`."}},"kind":"dev","methods":{"acceptOwnership()":{"details":"The new owner accepts the ownership transfer."},"constructor":{"custom:oz-upgrades-unsafe-allow":"constructor"},"createOrder(address,uint256,uint96,address,uint256,address,string)":{"details":"See {createOrder-IGateway}. "},"deposit(address,uint256)":{"details":"See {deposit-IGateway}.  enables providers to deposit tokens into the contract","params":{"_amount":"The amount of tokens to be deposited. Requirements: - The token must be supported. - The amount must be greater than 0. - The contract must have sufficient allowance to transfer the tokens. - The contract must have sufficient balance to store the tokens. Emits a {Deposit} event. Returns a boolean value indicating whether the deposit was successful. ","_token":"The address of the token to be deposited."}},"getBalance(address,address)":{"details":"See {getBalance-IGateway}. "},"getFeeDetails()":{"details":"See {getFeeDetails-IGateway}. "},"getOrderInfoIn(bytes32)":{"details":"See {getOrderInfoIn-IGateway}. "},"getOrderInfoOut(bytes32)":{"details":"See {getOrderInfoOut-IGateway}. "},"initialize()":{"details":"Initialize function."},"isTokenSupported(address)":{"details":"See {isTokenSupported-IGateway}. "},"owner()":{"details":"Returns the address of the current owner."},"pause()":{"details":"Pause the contract."},"paused()":{"details":"Returns true if the contract is paused, and false otherwise."},"pendingOwner()":{"details":"Returns the address of the pending owner."},"refundOrder(uint256,bytes32)":{"details":"See {refundOrder-IGateway}. "},"renounceOwnership()":{"details":"Leaves the contract without owner. It will not be possible to call `onlyOwner` functions. Can only be called by the current owner. NOTE: Renouncing ownership will leave the contract without an owner, thereby disabling any functionality that is only available to the owner."},"settingManagerBool(bytes32,address,uint256)":{"details":"Sets the boolean value for a specific setting.","params":{"status":"The boolean value to be set. Requirements: - The value must not be a zero address.","value":"The address or value associated with the setting.","what":"The setting to be updated."}},"settleOrderIn(bytes32,bytes,address,address,address,uint256)":{"details":"See {settledOrderIn-IGateway}.  enables providers to settle orders in","params":{"_amount":"The amount of tokens to be settled.","_orderId":"The ID of the order to be settled.","_provider":"The address of the provider.","_sender":"The address of the sender i.e. the user that created the order.","_signature":"The signature of the order.","_token":"The address of the token to be settled."}},"settleOrderOut(bytes32,bytes32,address,uint64)":{"details":"See {settleOrderOut-IGateway}. "},"transferOwnership(address)":{"details":"Starts the ownership transfer of the contract to a new account. Replaces the pending transfer if there is one. Can only be called by the current owner."},"unpause()":{"details":"Unpause the contract."},"updateProtocolAddress(bytes32,address)":{"details":"Updates a protocol address.","params":{"value":"The new address to be set. Requirements: - The value must not be a zero address.","what":"The address type to be updated (treasury or aggregator)."}},"updateProtocolFee(uint64)":{"details":"Updates the protocol fee percentage.","params":{"_protocolFeePercent":"The new protocol fee percentage to be set."}}},"title":"Gateway","version":1},"evm":{"bytecode":{"linkReferences":{},"object":"608080604052346100c1576000549060ff8260081c1661006f575060ff80821603610034575b6040516122e690816100c78239f35b60ff90811916176000557f7f26b83ff96e1f2b6a682f133852f6798a09c465da95921460cefb3847402498602060405160ff8152a138610025565b62461bcd60e51b815260206004820152602760248201527f496e697469616c697a61626c653a20636f6e747261637420697320696e697469604482015266616c697a696e6760c81b6064820152608490fd5b600080fdfe608080604052600436101561001357600080fd5b60003560e01c908162b727da14611ca1575080633f4ba83a14611c0d57806340ebc67714611a6457806347094e2e146119f857806347b0f1cd146117ad57806347e7ef24146116b85780635c975abb14611695578063715018a61461162e57806375151b631461160157806379ba50971461157a578063809804f714610ff45780638129fc1c14610e9b5780638456cb5914610e415780638da5cb5b14610e185780639a06601f14610ae85780639bb39e13146109565780639c0fea2c14610896578063b682b66714610320578063b810c636146102f2578063cd99240014610208578063d4fac45d146101b6578063e30c39781461018d5763f2fde38b1461011b57600080fd5b3461018857602036600319011261018857610134611ce5565b61013c611dd0565b606580546001600160a01b0319166001600160a01b039283169081179091556033549091167f38d16b8cac22d99fc7c124b9cd0de2d3fa1faef420bfe791d8c362d765e22700600080a3005b600080fd5b34610188576000366003190112610188576065546040516001600160a01b039091168152602090f35b34610188576040366003190112610188576101cf611ce5565b6101d7611ccf565b9060018060a01b03809116600052610102602052604060002091166000526020526020604060002054604051908152f35b3461018857606036600319011261018857600435610224611ccf565b9060443591610231611dd0565b6001600160a01b03169161024683151561226c565b6001811480156102e8575b156102a357643a37b5b2b760d91b821461026757005b60207fcfa976492af7c14a916cc3a239f4c9c75bbd7f5f0e398beb41d892c7eeccae4c9184600052609a825280604060002055604051908152a3005b60405162461bcd60e51b815260206004820152601760248201527f476174657761793a20696e76616c6964207374617475730000000000000000006044820152606490fd5b5060028114610251565b346101885760003660031901126101885760406001600160401b036098541660975482519182526020820152f35b346101885760c0366003190112610188576024356001600160401b03811161018857366023820112156101885780600401356001600160401b0381116108805760405191610378601f8301601f191660200184611d5e565b8183523660248383010111610188578160009260246020930183860137830101526103a1611d11565b6103a9611cfb565b916084356001600160a01b0381169003610188576103d260018060a01b03609954163314611f9f565b6103df60a4351515611f64565b60043560005261010360205260ff6040600020541661083b576001600160a01b038216156107f6576001600160a01b038316156107b85761049e6104a691604051602081019060043582526001600160601b0319808760601b166040830152808860601b16605483015260843560601b16606882015260a435607c820152607c815261046a81611d43565b5190207f19457468657265756d205369676e6564204d6573736167653a0a333200000000600052601c52603c60002061217c565b919091612062565b6001600160a01b0382811691160361077f576104db6104d26001600160401b036098541660a435611ef1565b60975490611f04565b6001600160a01b0360843581166000908152610102602081815260408084209487168452939052919020546105128360a435611ecc565b11610743576004356000526101036020526040600020600160ff1982541617905561053f8260a435611ecc565b9060018060a01b0360843516600052602052604060002060018060a01b0384166000526020526105756040600020918254612055565b905560405161058381611d43565b60a4358082526001600160a01b03848116602080850191825287831660408087018281526084358616606089018181526004803560808c01818152600091825261010089528682209c518d55985160018d018054918c166001600160a01b0319928316179055945160028d018054918c16918716919091179055915160038c01805491909a169416939093179097559451978101979097555163a9059cbb60e01b80825296810191909152602481019490945291839160449183915af1801561071857610724575b508161069d575b5050604080516001600160a01b0360843581168252600435602083015260a4359481169316917f6e169b3fe3601f2c225fbdb8de390eccb476ad5a83176809af89dab4a7bea32e91a4005b609854604080519283521c6001600160a01b0316600482015260248101919091526020818060448101038160006084356001600160a01b03165af18015610718576106e9575b80610652565b61070a9060203d602011610711575b6107028183611d5e565b810190611ed9565b50826106e3565b503d6106f8565b6040513d6000823e3d90fd5b61073c9060203d602011610711576107028183611d5e565b508461064b565b60405162461bcd60e51b8152602060048201526014602482015273496e73756666696369656e742062616c616e636560601b6044820152606490fd5b60405162461bcd60e51b8152602060048201526011602482015270496e76616c6964207369676e617475726560781b6044820152606490fd5b60405162461bcd60e51b8152602060048201526016602482015275496e76616c69642073656e646572206164647265737360501b6044820152606490fd5b60405162461bcd60e51b815260206004820152601860248201527f496e76616c69642070726f7669646572206164647265737300000000000000006044820152606490fd5b60405162461bcd60e51b815260206004820152601760248201527f4f7264657220616c72656164792070726f6365737365640000000000000000006044820152606490fd5b634e487b7160e01b600052604160045260246000fd5b3461018857602036600319011261018857600060806040516108b781611d43565b828152826020820152826040820152826060820152015260043560005261010060205260a060406000206040516108ed81611d43565b815491828252600180851b03908180600183015416602085019081528180600285015416916040870192835260806004836003880154169660608a0197885201549701968752604051978852511660208701525116604085015251166060830152516080820152f35b3461018857602036600319011261018857600061012060405161097881611d27565b8281528260208201528260408201528260608201528260808201528260a08201528260c08201528260e082015282610100820152015260043560005260ff60205261014060406000206101206040516109d081611d27565b600760018060a01b038454169384835260018060a01b03600182015416602084015260018060a01b0360028201541660408401526003810154606084015260048101546080840152600581015460ff8116151560a085015260ff8160081c16151560c085015260018060a01b039060101c1660e08401526001600160601b0360068201541661010084015201548282015260405192835260018060a01b03602082015116602084015260018060a01b036040820151166040840152606081015160608401526080810151608084015260a0810151151560a084015260c0810151151560c084015260018060a01b0360e08201511660e08401526001600160601b03610100820151166101008401520151610120820152f35b3461018857608036600319011261018857602435610b04611d11565b90606435906001600160401b0392838316809303610188576099546001600160a01b039190610b369083163314611f9f565b8260005260ff91602095838752610b57846005604060002001541615611fdc565b84600052838752610b758460056040600020015460081c1615612019565b846000528387526040600020936006836001870154169501948554956001600160601b03968988821603888111610e02578816906001600160601b0319161790558660005281895260406000209560068701541615610d2b575b610c599550610be96104d289600760406000200154611ef1565b918760005289526007604060002001610c03838254612055565b905588610c22610c1b6104d260985496871686611ef1565b8094612055565b92604051809881928863a9059cbb60e01b9889855260401c166004840160209093929193604081019460018060a01b031681520152565b03816000855af192831561071857610ca3968a94610d0e575b506040519081526001600160a01b038616600482015260248101929092529094859190829060009082906044820190565b03925af1918215610718577fd466be5516d4d2372b27b6e13104cd3f5d1656e5c9e5ae9a6939da8cf62dbbde93604093610cf1575b508251956004358752878701521693a360405160018152f35b610d0790883d8a11610711576107028183611d5e565b5087610cd8565b610d2490853d8711610711576107028183611d5e565b508a610c72565b60058601600160ff1982541617905588600387015480610d4d575b5050610bcf565b600188015460029098015460405163a9059cbb60e01b81529087166001600160a01b0316600482015260248101919091529687908616816000816044810103925af195861561071857610c5996610de5575b50866000528189526040600020600385600283015416910154907f44f6938ca4a10313aabb76f874cced61e35710a734a126e4afb34461bf8c2501600080a3888a610d46565b610dfb908a3d8c11610711576107028183611d5e565b5089610d9f565b634e487b7160e01b600052601160045260246000fd5b34610188576000366003190112610188576033546040516001600160a01b039091168152602090f35b3461018857600036600319011261018857610e5a611dd0565b610e62611e88565b600160ff1960cd54161760cd557f62e78cea01bee320cd4e420270b5ea74000d11b0c9f74754ebdbfc544b05a2586020604051338152a1005b346101885760003660031901126101885760005460ff8160081c1615808091610fe7575b8015610fd0575b15610f745760ff198281166001176000559181610f62575b50620186a0609755610f0060ff60005460081c16610efb81611e28565b611e28565b610f0933611d7f565b60005491610f2060ff8460081c16610efb81611e28565b60cd541660cd55610f2d57005b61ff0019166000557f7f26b83ff96e1f2b6a682f133852f6798a09c465da95921460cefb3847402498602060405160018152a1005b61ffff19166101011760005582610ede565b60405162461bcd60e51b815260206004820152602e60248201527f496e697469616c697a61626c653a20636f6e747261637420697320616c72656160448201526d191e481a5b9a5d1a585b1a5e995960921b6064820152608490fd5b50303b158015610ec65750600160ff831614610ec6565b50600160ff831610610ebf565b346101885760e03660031901126101885761100d611ce5565b6044356001600160601b038116810361018857611028611cfb565b9060a4356001600160a01b0381168103610188576001600160401b0360c435116101885736602360c435011215610188576001600160401b0360c43560040135116101885736602460c4356004013560c43501011161018857611089611e88565b6001600160a01b0384166000908152609a60205260409020546110ae90600114611f24565b6110bb6024351515611f64565b6001600160a01b03811615611542576084356114ef575b60c43560040135156114b55761111e60206110f1608435602435611ecc565b6040516323b872dd60e01b8152336004820152306024820152604481019190915291829081906064820190565b038160006001600160a01b038a165af1801561071857611496575b50336000526101016020526040600020938454946000198614610e025760016020960190553360005261010185526111976111a5604060002054604051928391338a840160209093929193604081019460018060a01b031681520152565b03601f198101835282611d5e565b858151910120936001600160401b036111c48160985416602435611ef1565b6111d16097548092611f04565b94604051936111df85611d27565b33855260018060a01b0386168a86015260018060a01b031660408501526084356060850152856080850152600060a0850152600060c085015260018060a01b031660e0840152166101008201526024356101208201528460005260ff8652600761012060406000209260018060a01b038151166001600160601b0360a01b8554161784556001840160018060a01b038a830151166001600160601b0360a01b8254161790556002840160018060a01b036040830151166001600160601b0360a01b82541617905560608101516003850155608081015160048501556005840160a08201511515815461ff0060c0850151151560081b169060ff62010000600160b01b0360e087015160101b1693169069ffffffffffffffffffff60b01b161717179055600684016001600160601b03610100830151166001600160601b0319825416179055015191015560018060a01b0360985460401c1660046040519161134683611d43565b602435835287830190815260408301338152606084019060018060a01b03861682526080850192898452896000526101008b52604060002095518655600186019060018060a01b039051166001600160601b0360a01b825416179055600285019060018060a01b039051166001600160601b0360a01b825416179055600384019060018060a01b039051166001600160601b0360a01b8254161790555191015560ff85527f40ccd1ceb111a3c186ef9911e1b876dc1f789ed331b86097b3b8851055b6a1376040600020916001600160601b03600760018060a01b038554169401549560405195865287898701521660408501526080606085015260c43560040135608085015260c43560040135602460c4350160a0860137600060a060c435600401358601015260018060a01b03169260a081601f19601f60c4356004013501168101030190a4604051908152f35b6114ae9060203d602011610711576107028183611d5e565b5084611139565b60405162461bcd60e51b8152602060048201526012602482015271092dcecc2d8d2c89acae6e6c2ceca90c2e6d60731b6044820152606490fd5b6001600160a01b0383166110d25760405162461bcd60e51b815260206004820152601960248201527f496e76616c696453656e646572466565526563697069656e74000000000000006044820152606490fd5b60405162461bcd60e51b815260206004820152601060248201526f5468726f775a65726f4164647265737360801b6044820152606490fd5b3461018857600036600319011261018857606554336001600160a01b03909116036115aa576115a833611d7f565b005b60405162461bcd60e51b815260206004820152602960248201527f4f776e61626c6532537465703a2063616c6c6572206973206e6f7420746865206044820152683732bb9037bbb732b960b91b6064820152608490fd5b3461018857602036600319011261018857602061162461161f611ce5565b612243565b6040519015158152f35b3461018857600036600319011261018857611647611dd0565b606580546001600160a01b03199081169091556033805491821690556000906001600160a01b03167f8be0079c531659141344cd1fd0a4f28419497f9722a3daafe3b4186f6b6457e08280a3005b3461018857600036600319011261018857602060ff60cd54166040519015158152f35b34610188576040366003190112610188576116d1611ce5565b6024359060018060a01b031680600052602091609a83526116f9600160406000205414611f24565b611704811515611f64565b6040516323b872dd60e01b81523360048201523060248201526044810182905283816064816000875af1801561071857611790575b508160005261010283526040600020336000528352604060002061175e828254611ecc565b905560405191337f5548c837ab068cf56a2c2479df0882a4922fd203edb7517321831d95078c5f62600080a460018152f35b6117a690843d8611610711576107028183611d5e565b5083611739565b346101885760403660031901126101885760043560243560018060a01b036117da81609954163314611f9f565b8160005260ff926020938085526117fb816005604060002001541615611fdc565b836000528085526118198160056040600020015460081c1615612019565b8360005280855281600460406000200154106119bb5784908261193a575b6118d8938560005281835261187784600760406000206005810161010061ff0019825416179055600681016001600160601b031981541690550154612055565b918660005283526118a360406000209260038360018601541693600586015460101c1694015490611ecc565b60405163a9059cbb60e01b81526001600160a01b03909316600484015260248301529093849190829060009082906044820190565b03925af1908115610718577f0736fe428e1747ca8d387c2e6fa1a31a0cde62d3a167c40a46ade59a3cdc828e92859261191d575b50604051908152a260405160018152f35b61193390833d8511610711576107028183611d5e565b508561190c565b6000858152818752604080822060010154609854825163a9059cbb60e01b8152921c87166001600160a01b03166004830152602482018690529095935087918691604491839187165af1918215610718576118d894879361199e575b509350611837565b6119b490843d8611610711576107028183611d5e565b5087611996565b60405162461bcd60e51b81526004810186905260156024820152744665654578636565647350726f746f636f6c46656560581b6044820152606490fd5b34610188576020366003190112610188576004356001600160401b0381168091036101885760207f1ce29a697a4765bd17d91df93ba75b250b629ecf030553ff1f6ab59f15ae6c7b91611a49611dd0565b806001600160401b03196098541617609855604051908152a1005b3461018857604036600319011261018857600435611a80611ccf565b90611a89611dd0565b6001600160a01b0382811692611aa084151561226c565b600067747265617375727960c01b8403611b76575083609854928360401c1614611b235768010000000000000000600160e01b031990911660409190911b68010000000000000000600160e01b03161760985560015b611afc57005b7fbbc5b96e57cfecb3dbeeadf92e87f15e58e64fcd75cbe256dcc5d9ef2e51e8a4600080a3005b60405162461bcd60e51b815260206004820152602560248201527f476174657761793a207472656173757279206164647265737320616c726561646044820152641e481cd95d60da1b6064820152608490fd5b9190506930b3b3b932b3b0ba37b960b11b8314611b94575b50611af6565b609954915081168314611bb8576001600160a01b0319168217609955600183611b8e565b60405162461bcd60e51b815260206004820152602760248201527f476174657761793a2061676772656761746f72206164647265737320616c726560448201526618591e481cd95d60ca1b6064820152608490fd5b3461018857600036600319011261018857611c26611dd0565b60cd5460ff811615611c655760ff191660cd557f5db9ee0a495bf2e6ff9c91a7834c1ba4fdd244a5e8aa4e537bd38aeae4b073aa6020604051338152a1005b60405162461bcd60e51b815260206004820152601460248201527314185d5cd8589b194e881b9bdd081c185d5cd95960621b6044820152606490fd5b3461018857602036600319011261018857602090600435600052610103825260ff6040600020541615158152f35b602435906001600160a01b038216820361018857565b600435906001600160a01b038216820361018857565b606435906001600160a01b038216820361018857565b604435906001600160a01b038216820361018857565b61014081019081106001600160401b0382111761088057604052565b60a081019081106001600160401b0382111761088057604052565b90601f801991011681019081106001600160401b0382111761088057604052565b6001600160601b0360a01b90816065541660655560335460018060a01b038092168093821617603355167f8be0079c531659141344cd1fd0a4f28419497f9722a3daafe3b4186f6b6457e0600080a3565b6033546001600160a01b03163303611de457565b606460405162461bcd60e51b815260206004820152602060248201527f4f776e61626c653a2063616c6c6572206973206e6f7420746865206f776e65726044820152fd5b15611e2f57565b60405162461bcd60e51b815260206004820152602b60248201527f496e697469616c697a61626c653a20636f6e7472616374206973206e6f74206960448201526a6e697469616c697a696e6760a81b6064820152608490fd5b60ff60cd5416611e9457565b60405162461bcd60e51b815260206004820152601060248201526f14185d5cd8589b194e881c185d5cd95960821b6044820152606490fd5b91908201809211610e0257565b90816020910312610188575180151581036101885790565b81810292918115918404141715610e0257565b8115611f0e570490565b634e487b7160e01b600052601260045260246000fd5b15611f2b57565b60405162461bcd60e51b8152602060048201526011602482015270151bdad95b939bdd14dd5c1c1bdc9d1959607a1b6044820152606490fd5b15611f6b57565b60405162461bcd60e51b815260206004820152600c60248201526b416d6f756e7449735a65726f60a01b6044820152606490fd5b15611fa657565b60405162461bcd60e51b815260206004820152600e60248201526d27b7363ca0b3b3b932b3b0ba37b960911b6044820152606490fd5b15611fe357565b60405162461bcd60e51b815260206004820152600e60248201526d13dc99195c919d5b199a5b1b195960921b6044820152606490fd5b1561202057565b60405162461bcd60e51b815260206004820152600d60248201526c13dc99195c9499599d5b991959609a1b6044820152606490fd5b91908203918211610e0257565b600581101561216657806120735750565b600181036120c05760405162461bcd60e51b815260206004820152601860248201527f45434453413a20696e76616c6964207369676e617475726500000000000000006044820152606490fd5b6002810361210d5760405162461bcd60e51b815260206004820152601f60248201527f45434453413a20696e76616c6964207369676e6174757265206c656e677468006044820152606490fd5b60031461211657565b60405162461bcd60e51b815260206004820152602260248201527f45434453413a20696e76616c6964207369676e6174757265202773272076616c604482015261756560f01b6064820152608490fd5b634e487b7160e01b600052602160045260246000fd5b9060418151146000146121aa576121a6916020820151906060604084015193015160001a906121b4565b9091565b5050600090600290565b9291907f7fffffffffffffffffffffffffffffff5d576e7357a4501ddfe92f46681b20a083116122375791608094939160ff602094604051948552168484015260408301526060820152600093849182805260015afa1561222a5781516001600160a01b03811615612224579190565b50600190565b50604051903d90823e3d90fd5b50505050600090600390565b6001600160a01b03166000908152609a602052604090205460011461226757600090565b600190565b1561227357565b60405162461bcd60e51b8152602060048201526015602482015274476174657761793a207a65726f206164647265737360581b6044820152606490fdfea2646970667358221220bfd6144b88e19d5379811ba9759b5478ae14720ef07c22d60ee549fa6d3d0c1164736f6c63430008120033","opcodes":"PUSH1 0x80 DUP1 PUSH1 0x40 MSTORE CALLVALUE PUSH2 0xC1 JUMPI PUSH1 0x0 SLOAD SWAP1 PUSH1 0xFF DUP3 PUSH1 0x8 SHR AND PUSH2 0x6F JUMPI POP PUSH1 0xFF DUP1 DUP3 AND SUB PUSH2 0x34 JUMPI JUMPDEST PUSH1 0x40 MLOAD PUSH2 0x22E6 SWAP1 DUP2 PUSH2 0xC7 DUP3 CODECOPY RETURN JUMPDEST PUSH1 0xFF SWAP1 DUP2 NOT AND OR PUSH1 0x0 SSTORE PUSH32 0x7F26B83FF96E1F2B6A682F133852F6798A09C465DA95921460CEFB3847402498 PUSH1 0x20 PUSH1 0x40 MLOAD PUSH1 0xFF DUP2 MSTORE LOG1 CODESIZE PUSH2 0x25 JUMP JUMPDEST PUSH3 0x461BCD PUSH1 0xE5 SHL DUP2 MSTORE PUSH1 0x20 PUSH1 0x4 DUP3 ADD MSTORE PUSH1 0x27 PUSH1 0x24 DUP3 ADD MSTORE PUSH32 0x496E697469616C697A61626C653A20636F6E747261637420697320696E697469 PUSH1 0x44 DUP3 ADD MSTORE PUSH7 0x616C697A696E67 PUSH1 0xC8 SHL PUSH1 0x64 DUP3 ADD MSTORE PUSH1 0x84 SWAP1 REVERT JUMPDEST PUSH1 0x0 DUP1 REVERT INVALID PUSH1 0x80 DUP1 PUSH1 0x40 MSTORE PUSH1 0x4 CALLDATASIZE LT ISZERO PUSH2 0x13 JUMPI PUSH1 0x0 DUP1 REVERT JUMPDEST PUSH1 0x0 CALLDATALOAD PUSH1 0xE0 SHR SWAP1 DUP2 PUSH3 0xB727DA EQ PUSH2 0x1CA1 JUMPI POP DUP1 PUSH4 0x3F4BA83A EQ PUSH2 0x1C0D JUMPI DUP1 PUSH4 0x40EBC677 EQ PUSH2 0x1A64 JUMPI DUP1 PUSH4 0x47094E2E EQ PUSH2 0x19F8 JUMPI DUP1 PUSH4 0x47B0F1CD EQ PUSH2 0x17AD JUMPI DUP1 PUSH4 0x47E7EF24 EQ PUSH2 0x16B8 JUMPI DUP1 PUSH4 0x5C975ABB EQ PUSH2 0x1695 JUMPI DUP1 PUSH4 0x715018A6 EQ PUSH2 0x162E JUMPI DUP1 PUSH4 0x75151B63 EQ PUSH2 0x1601 JUMPI DUP1 PUSH4 0x79BA5097 EQ PUSH2 0x157A JUMPI DUP1 PUSH4 0x809804F7 EQ PUSH2 0xFF4 JUMPI DUP1 PUSH4 0x8129FC1C EQ PUSH2 0xE9B JUMPI DUP1 PUSH4 0x8456CB59 EQ PUSH2 0xE41 JUMPI DUP1 PUSH4 0x8DA5CB5B EQ PUSH2 0xE18 JUMPI DUP1 PUSH4 0x9A06601F EQ PUSH2 0xAE8 JUMPI DUP1 PUSH4 0x9BB39E13 EQ PUSH2 0x956 JUMPI DUP1 PUSH4 0x9C0FEA2C EQ PUSH2 0x896 JUMPI DUP1 PUSH4 0xB682B667 EQ PUSH2 0x320 JUMPI DUP1 PUSH4 0xB810C636 EQ PUSH2 0x2F2 JUMPI DUP1 PUSH4 0xCD992400 EQ PUSH2 0x208 JUMPI DUP1 PUSH4 0xD4FAC45D EQ PUSH2 0x1B6 JUMPI DUP1 PUSH4 0xE30C3978 EQ PUSH2 0x18D JUMPI PUSH4 0xF2FDE38B EQ PUSH2 0x11B JUMPI PUSH1 0x0 DUP1 REVERT JUMPDEST CALLVALUE PUSH2 0x188 JUMPI PUSH1 0x20 CALLDATASIZE PUSH1 0x3 NOT ADD SLT PUSH2 0x188 JUMPI PUSH2 0x134 PUSH2 0x1CE5 JUMP JUMPDEST PUSH2 0x13C PUSH2 0x1DD0 JUMP JUMPDEST PUSH1 0x65 DUP1 SLOAD PUSH1 0x1 PUSH1 0x1 PUSH1 0xA0 SHL SUB NOT AND PUSH1 0x1 PUSH1 0x1 PUSH1 0xA0 SHL SUB SWAP3 DUP4 AND SWAP1 DUP2 OR SWAP1 SWAP2 SSTORE PUSH1 0x33 SLOAD SWAP1 SWAP2 AND PUSH32 0x38D16B8CAC22D99FC7C124B9CD0DE2D3FA1FAEF420BFE791D8C362D765E22700 PUSH1 0x0 DUP1 LOG3 STOP JUMPDEST PUSH1 0x0 DUP1 REVERT JUMPDEST CALLVALUE PUSH2 0x188 JUMPI PUSH1 0x0 CALLDATASIZE PUSH1 0x3 NOT ADD SLT PUSH2 0x188 JUMPI PUSH1 0x65 SLOAD PUSH1 0x40 MLOAD PUSH1 0x1 PUSH1 0x1 PUSH1 0xA0 SHL SUB SWAP1 SWAP2 AND DUP2 MSTORE PUSH1 0x20 SWAP1 RETURN JUMPDEST CALLVALUE PUSH2 0x188 JUMPI PUSH1 0x40 CALLDATASIZE PUSH1 0x3 NOT ADD SLT PUSH2 0x188 JUMPI PUSH2 0x1CF PUSH2 0x1CE5 JUMP JUMPDEST PUSH2 0x1D7 PUSH2 0x1CCF JUMP JUMPDEST SWAP1 PUSH1 0x1 DUP1 PUSH1 0xA0 SHL SUB DUP1 SWAP2 AND PUSH1 0x0 MSTORE PUSH2 0x102 PUSH1 0x20 MSTORE PUSH1 0x40 PUSH1 0x0 KECCAK256 SWAP2 AND PUSH1 0x0 MSTORE PUSH1 0x20 MSTORE PUSH1 0x20 PUSH1 0x40 PUSH1 0x0 KECCAK256 SLOAD PUSH1 0x40 MLOAD SWAP1 DUP2 MSTORE RETURN JUMPDEST CALLVALUE PUSH2 0x188 JUMPI PUSH1 0x60 CALLDATASIZE PUSH1 0x3 NOT ADD SLT PUSH2 0x188 JUMPI PUSH1 0x4 CALLDATALOAD PUSH2 0x224 PUSH2 0x1CCF JUMP JUMPDEST SWAP1 PUSH1 0x44 CALLDATALOAD SWAP2 PUSH2 0x231 PUSH2 0x1DD0 JUMP JUMPDEST PUSH1 0x1 PUSH1 0x1 PUSH1 0xA0 SHL SUB AND SWAP2 PUSH2 0x246 DUP4 ISZERO ISZERO PUSH2 0x226C JUMP JUMPDEST PUSH1 0x1 DUP2 EQ DUP1 ISZERO PUSH2 0x2E8 JUMPI JUMPDEST ISZERO PUSH2 0x2A3 JUMPI PUSH5 0x3A37B5B2B7 PUSH1 0xD9 SHL DUP3 EQ PUSH2 0x267 JUMPI STOP JUMPDEST PUSH1 0x20 PUSH32 0xCFA976492AF7C14A916CC3A239F4C9C75BBD7F5F0E398BEB41D892C7EECCAE4C SWAP2 DUP5 PUSH1 0x0 MSTORE PUSH1 0x9A DUP3 MSTORE DUP1 PUSH1 0x40 PUSH1 0x0 KECCAK256 SSTORE PUSH1 0x40 MLOAD SWAP1 DUP2 MSTORE LOG3 STOP JUMPDEST PUSH1 0x40 MLOAD PUSH3 0x461BCD PUSH1 0xE5 SHL DUP2 MSTORE PUSH1 0x20 PUSH1 0x4 DUP3 ADD MSTORE PUSH1 0x17 PUSH1 0x24 DUP3 ADD MSTORE PUSH32 0x476174657761793A20696E76616C696420737461747573000000000000000000 PUSH1 0x44 DUP3 ADD MSTORE PUSH1 0x64 SWAP1 REVERT JUMPDEST POP PUSH1 0x2 DUP2 EQ PUSH2 0x251 JUMP JUMPDEST CALLVALUE PUSH2 0x188 JUMPI PUSH1 0x0 CALLDATASIZE PUSH1 0x3 NOT ADD SLT PUSH2 0x188 JUMPI PUSH1 0x40 PUSH1 0x1 PUSH1 0x1 PUSH1 0x40 SHL SUB PUSH1 0x98 SLOAD AND PUSH1 0x97 SLOAD DUP3 MLOAD SWAP2 DUP3 MSTORE PUSH1 0x20 DUP3 ADD MSTORE RETURN JUMPDEST CALLVALUE PUSH2 0x188 JUMPI PUSH1 0xC0 CALLDATASIZE PUSH1 0x3 NOT ADD SLT PUSH2 0x188 JUMPI PUSH1 0x24 CALLDATALOAD PUSH1 0x1 PUSH1 0x1 PUSH1 0x40 SHL SUB DUP2 GT PUSH2 0x188 JUMPI CALLDATASIZE PUSH1 0x23 DUP3 ADD SLT ISZERO PUSH2 0x188 JUMPI DUP1 PUSH1 0x4 ADD CALLDATALOAD PUSH1 0x1 PUSH1 0x1 PUSH1 0x40 SHL SUB DUP2 GT PUSH2 0x880 JUMPI PUSH1 0x40 MLOAD SWAP2 PUSH2 0x378 PUSH1 0x1F DUP4 ADD PUSH1 0x1F NOT AND PUSH1 0x20 ADD DUP5 PUSH2 0x1D5E JUMP JUMPDEST DUP2 DUP4 MSTORE CALLDATASIZE PUSH1 0x24 DUP4 DUP4 ADD ADD GT PUSH2 0x188 JUMPI DUP2 PUSH1 0x0 SWAP3 PUSH1 0x24 PUSH1 0x20 SWAP4 ADD DUP4 DUP7 ADD CALLDATACOPY DUP4 ADD ADD MSTORE PUSH2 0x3A1 PUSH2 0x1D11 JUMP JUMPDEST PUSH2 0x3A9 PUSH2 0x1CFB JUMP JUMPDEST SWAP2 PUSH1 0x84 CALLDATALOAD PUSH1 0x1 PUSH1 0x1 PUSH1 0xA0 SHL SUB DUP2 AND SWAP1 SUB PUSH2 0x188 JUMPI PUSH2 0x3D2 PUSH1 0x1 DUP1 PUSH1 0xA0 SHL SUB PUSH1 0x99 SLOAD AND CALLER EQ PUSH2 0x1F9F JUMP JUMPDEST PUSH2 0x3DF PUSH1 0xA4 CALLDATALOAD ISZERO ISZERO PUSH2 0x1F64 JUMP JUMPDEST PUSH1 0x4 CALLDATALOAD PUSH1 0x0 MSTORE PUSH2 0x103 PUSH1 0x20 MSTORE PUSH1 0xFF PUSH1 0x40 PUSH1 0x0 KECCAK256 SLOAD AND PUSH2 0x83B JUMPI PUSH1 0x1 PUSH1 0x1 PUSH1 0xA0 SHL SUB DUP3 AND ISZERO PUSH2 0x7F6 JUMPI PUSH1 0x1 PUSH1 0x1 PUSH1 0xA0 SHL SUB DUP4 AND ISZERO PUSH2 0x7B8 JUMPI PUSH2 0x49E PUSH2 0x4A6 SWAP2 PUSH1 0x40 MLOAD PUSH1 0x20 DUP2 ADD SWAP1 PUSH1 0x4 CALLDATALOAD DUP3 MSTORE PUSH1 0x1 PUSH1 0x1 PUSH1 0x60 SHL SUB NOT DUP1 DUP8 PUSH1 0x60 SHL AND PUSH1 0x40 DUP4 ADD MSTORE DUP1 DUP9 PUSH1 0x60 SHL AND PUSH1 0x54 DUP4 ADD MSTORE PUSH1 0x84 CALLDATALOAD PUSH1 0x60 SHL AND PUSH1 0x68 DUP3 ADD MSTORE PUSH1 0xA4 CALLDATALOAD PUSH1 0x7C DUP3 ADD MSTORE PUSH1 0x7C DUP2 MSTORE PUSH2 0x46A DUP2 PUSH2 0x1D43 JUMP JUMPDEST MLOAD SWAP1 KECCAK256 PUSH32 0x19457468657265756D205369676E6564204D6573736167653A0A333200000000 PUSH1 0x0 MSTORE PUSH1 0x1C MSTORE PUSH1 0x3C PUSH1 0x0 KECCAK256 PUSH2 0x217C JUMP JUMPDEST SWAP2 SWAP1 SWAP2 PUSH2 0x2062 JUMP JUMPDEST PUSH1 0x1 PUSH1 0x1 PUSH1 0xA0 SHL SUB DUP3 DUP2 AND SWAP2 AND SUB PUSH2 0x77F JUMPI PUSH2 0x4DB PUSH2 0x4D2 PUSH1 0x1 PUSH1 0x1 PUSH1 0x40 SHL SUB PUSH1 0x98 SLOAD AND PUSH1 0xA4 CALLDATALOAD PUSH2 0x1EF1 JUMP JUMPDEST PUSH1 0x97 SLOAD SWAP1 PUSH2 0x1F04 JUMP JUMPDEST PUSH1 0x1 PUSH1 0x1 PUSH1 0xA0 SHL SUB PUSH1 0x84 CALLDATALOAD DUP2 AND PUSH1 0x0 SWAP1 DUP2 MSTORE PUSH2 0x102 PUSH1 0x20 DUP2 DUP2 MSTORE PUSH1 0x40 DUP1 DUP5 KECCAK256 SWAP5 DUP8 AND DUP5 MSTORE SWAP4 SWAP1 MSTORE SWAP2 SWAP1 KECCAK256 SLOAD PUSH2 0x512 DUP4 PUSH1 0xA4 CALLDATALOAD PUSH2 0x1ECC JUMP JUMPDEST GT PUSH2 0x743 JUMPI PUSH1 0x4 CALLDATALOAD PUSH1 0x0 MSTORE PUSH2 0x103 PUSH1 0x20 MSTORE PUSH1 0x40 PUSH1 0x0 KECCAK256 PUSH1 0x1 PUSH1 0xFF NOT DUP3 SLOAD AND OR SWAP1 SSTORE PUSH2 0x53F DUP3 PUSH1 0xA4 CALLDATALOAD PUSH2 0x1ECC JUMP JUMPDEST SWAP1 PUSH1 0x1 DUP1 PUSH1 0xA0 SHL SUB PUSH1 0x84 CALLDATALOAD AND PUSH1 0x0 MSTORE PUSH1 0x20 MSTORE PUSH1 0x40 PUSH1 0x0 KECCAK256 PUSH1 0x1 DUP1 PUSH1 0xA0 SHL SUB DUP5 AND PUSH1 0x0 MSTORE PUSH1 0x20 MSTORE PUSH2 0x575 PUSH1 0x40 PUSH1 0x0 KECCAK256 SWAP2 DUP3 SLOAD PUSH2 0x2055 JUMP JUMPDEST SWAP1 SSTORE PUSH1 0x40 MLOAD PUSH2 0x583 DUP2 PUSH2 0x1D43 JUMP JUMPDEST PUSH1 0xA4 CALLDATALOAD DUP1 DUP3 MSTORE PUSH1 0x1 PUSH1 0x1 PUSH1 0xA0 SHL SUB DUP5 DUP2 AND PUSH1 0x20 DUP1 DUP6 ADD SWAP2 DUP3 MSTORE DUP8 DUP4 AND PUSH1 0x40 DUP1 DUP8 ADD DUP3 DUP2 MSTORE PUSH1 0x84 CALLDATALOAD DUP7 AND PUSH1 0x60 DUP10 ADD DUP2 DUP2 MSTORE PUSH1 0x4 DUP1 CALLDATALOAD PUSH1 0x80 DUP13 ADD DUP2 DUP2 MSTORE PUSH1 0x0 SWAP2 DUP3 MSTORE PUSH2 0x100 DUP10 MSTORE DUP7 DUP3 KECCAK256 SWAP13 MLOAD DUP14 SSTORE SWAP9 MLOAD PUSH1 0x1 DUP14 ADD DUP1 SLOAD SWAP2 DUP13 AND PUSH1 0x1 PUSH1 0x1 PUSH1 0xA0 SHL SUB NOT SWAP3 DUP4 AND OR SWAP1 SSTORE SWAP5 MLOAD PUSH1 0x2 DUP14 ADD DUP1 SLOAD SWAP2 DUP13 AND SWAP2 DUP8 AND SWAP2 SWAP1 SWAP2 OR SWAP1 SSTORE SWAP2 MLOAD PUSH1 0x3 DUP13 ADD DUP1 SLOAD SWAP2 SWAP1 SWAP11 AND SWAP5 AND SWAP4 SWAP1 SWAP4 OR SWAP1 SWAP8 SSTORE SWAP5 MLOAD SWAP8 DUP2 ADD SWAP8 SWAP1 SWAP8 SSTORE MLOAD PUSH4 0xA9059CBB PUSH1 0xE0 SHL DUP1 DUP3 MSTORE SWAP7 DUP2 ADD SWAP2 SWAP1 SWAP2 MSTORE PUSH1 0x24 DUP2 ADD SWAP5 SWAP1 SWAP5 MSTORE SWAP2 DUP4 SWAP2 PUSH1 0x44 SWAP2 DUP4 SWAP2 GAS CALL DUP1 ISZERO PUSH2 0x718 JUMPI PUSH2 0x724 JUMPI JUMPDEST POP DUP2 PUSH2 0x69D JUMPI JUMPDEST POP POP PUSH1 0x40 DUP1 MLOAD PUSH1 0x1 PUSH1 0x1 PUSH1 0xA0 SHL SUB PUSH1 0x84 CALLDATALOAD DUP2 AND DUP3 MSTORE PUSH1 0x4 CALLDATALOAD PUSH1 0x20 DUP4 ADD MSTORE PUSH1 0xA4 CALLDATALOAD SWAP5 DUP2 AND SWAP4 AND SWAP2 PUSH32 0x6E169B3FE3601F2C225FBDB8DE390ECCB476AD5A83176809AF89DAB4A7BEA32E SWAP2 LOG4 STOP JUMPDEST PUSH1 0x98 SLOAD PUSH1 0x40 DUP1 MLOAD SWAP3 DUP4 MSTORE SHR PUSH1 0x1 PUSH1 0x1 PUSH1 0xA0 SHL SUB AND PUSH1 0x4 DUP3 ADD MSTORE PUSH1 0x24 DUP2 ADD SWAP2 SWAP1 SWAP2 MSTORE PUSH1 0x20 DUP2 DUP1 PUSH1 0x44 DUP2 ADD SUB DUP2 PUSH1 0x0 PUSH1 0x84 CALLDATALOAD PUSH1 0x1 PUSH1 0x1 PUSH1 0xA0 SHL SUB AND GAS CALL DUP1 ISZERO PUSH2 0x718 JUMPI PUSH2 0x6E9 JUMPI JUMPDEST DUP1 PUSH2 0x652 JUMP JUMPDEST PUSH2 0x70A SWAP1 PUSH1 0x20 RETURNDATASIZE PUSH1 0x20 GT PUSH2 0x711 JUMPI JUMPDEST PUSH2 0x702 DUP2 DUP4 PUSH2 0x1D5E JUMP JUMPDEST DUP2 ADD SWAP1 PUSH2 0x1ED9 JUMP JUMPDEST POP DUP3 PUSH2 0x6E3 JUMP JUMPDEST POP RETURNDATASIZE PUSH2 0x6F8 JUMP JUMPDEST PUSH1 0x40 MLOAD RETURNDATASIZE PUSH1 0x0 DUP3 RETURNDATACOPY RETURNDATASIZE SWAP1 REVERT JUMPDEST PUSH2 0x73C SWAP1 PUSH1 0x20 RETURNDATASIZE PUSH1 0x20 GT PUSH2 0x711 JUMPI PUSH2 0x702 DUP2 DUP4 PUSH2 0x1D5E JUMP JUMPDEST POP DUP5 PUSH2 0x64B JUMP JUMPDEST PUSH1 0x40 MLOAD PUSH3 0x461BCD PUSH1 0xE5 SHL DUP2 MSTORE PUSH1 0x20 PUSH1 0x4 DUP3 ADD MSTORE PUSH1 0x14 PUSH1 0x24 DUP3 ADD MSTORE PUSH20 0x496E73756666696369656E742062616C616E6365 PUSH1 0x60 SHL PUSH1 0x44 DUP3 ADD MSTORE PUSH1 0x64 SWAP1 REVERT JUMPDEST PUSH1 0x40 MLOAD PUSH3 0x461BCD PUSH1 0xE5 SHL DUP2 MSTORE PUSH1 0x20 PUSH1 0x4 DUP3 ADD MSTORE PUSH1 0x11 PUSH1 0x24 DUP3 ADD MSTORE PUSH17 0x496E76616C6964207369676E6174757265 PUSH1 0x78 SHL PUSH1 0x44 DUP3 ADD MSTORE PUSH1 0x64 SWAP1 REVERT JUMPDEST PUSH1 0x40 MLOAD PUSH3 0x461BCD PUSH1 0xE5 SHL DUP2 MSTORE PUSH1 0x20 PUSH1 0x4 DUP3 ADD MSTORE PUSH1 0x16 PUSH1 0x24 DUP3 ADD MSTORE PUSH22 0x496E76616C69642073656E6465722061646472657373 PUSH1 0x50 SHL PUSH1 0x44 DUP3 ADD MSTORE PUSH1 0x64 SWAP1 REVERT JUMPDEST PUSH1 0x40 MLOAD PUSH3 0x461BCD PUSH1 0xE5 SHL DUP2 MSTORE PUSH1 0x20 PUSH1 0x4 DUP3 ADD MSTORE PUSH1 0x18 PUSH1 0x24 DUP3 ADD MSTORE PUSH32 0x496E76616C69642070726F766964657220616464726573730000000000000000 PUSH1 0x44 DUP3 ADD MSTORE PUSH1 0x64 SWAP1 REVERT JUMPDEST PUSH1 0x40 MLOAD PUSH3 0x461BCD PUSH1 0xE5 SHL DUP2 MSTORE PUSH1 0x20 PUSH1 0x4 DUP3 ADD MSTORE PUSH1 0x17 PUSH1 0x24 DUP3 ADD MSTORE PUSH32 0x4F7264657220616C72656164792070726F636573736564000000000000000000 PUSH1 0x44 DUP3 ADD MSTORE PUSH1 0x64 SWAP1 REVERT JUMPDEST PUSH4 0x4E487B71 PUSH1 0xE0 SHL PUSH1 0x0 MSTORE PUSH1 0x41 PUSH1 0x4 MSTORE PUSH1 0x24 PUSH1 0x0 REVERT JUMPDEST CALLVALUE PUSH2 0x188 JUMPI PUSH1 0x20 CALLDATASIZE PUSH1 0x3 NOT ADD SLT PUSH2 0x188 JUMPI PUSH1 0x0 PUSH1 0x80 PUSH1 0x40 MLOAD PUSH2 0x8B7 DUP2 PUSH2 0x1D43 JUMP JUMPDEST DUP3 DUP2 MSTORE DUP3 PUSH1 0x20 DUP3 ADD MSTORE DUP3 PUSH1 0x40 DUP3 ADD MSTORE DUP3 PUSH1 0x60 DUP3 ADD MSTORE ADD MSTORE PUSH1 0x4 CALLDATALOAD PUSH1 0x0 MSTORE PUSH2 0x100 PUSH1 0x20 MSTORE PUSH1 0xA0 PUSH1 0x40 PUSH1 0x0 KECCAK256 PUSH1 0x40 MLOAD PUSH2 0x8ED DUP2 PUSH2 0x1D43 JUMP JUMPDEST DUP2 SLOAD SWAP2 DUP3 DUP3 MSTORE PUSH1 0x1 DUP1 DUP6 SHL SUB SWAP1 DUP2 DUP1 PUSH1 0x1 DUP4 ADD SLOAD AND PUSH1 0x20 DUP6 ADD SWAP1 DUP2 MSTORE DUP2 DUP1 PUSH1 0x2 DUP6 ADD SLOAD AND SWAP2 PUSH1 0x40 DUP8 ADD SWAP3 DUP4 MSTORE PUSH1 0x80 PUSH1 0x4 DUP4 PUSH1 0x3 DUP9 ADD SLOAD AND SWAP7 PUSH1 0x60 DUP11 ADD SWAP8 DUP9 MSTORE ADD SLOAD SWAP8 ADD SWAP7 DUP8 MSTORE PUSH1 0x40 MLOAD SWAP8 DUP9 MSTORE MLOAD AND PUSH1 0x20 DUP8 ADD MSTORE MLOAD AND PUSH1 0x40 DUP6 ADD MSTORE MLOAD AND PUSH1 0x60 DUP4 ADD MSTORE MLOAD PUSH1 0x80 DUP3 ADD MSTORE RETURN JUMPDEST CALLVALUE PUSH2 0x188 JUMPI PUSH1 0x20 CALLDATASIZE PUSH1 0x3 NOT ADD SLT PUSH2 0x188 JUMPI PUSH1 0x0 PUSH2 0x120 PUSH1 0x40 MLOAD PUSH2 0x978 DUP2 PUSH2 0x1D27 JUMP JUMPDEST DUP3 DUP2 MSTORE DUP3 PUSH1 0x20 DUP3 ADD MSTORE DUP3 PUSH1 0x40 DUP3 ADD MSTORE DUP3 PUSH1 0x60 DUP3 ADD MSTORE DUP3 PUSH1 0x80 DUP3 ADD MSTORE DUP3 PUSH1 0xA0 DUP3 ADD MSTORE DUP3 PUSH1 0xC0 DUP3 ADD MSTORE DUP3 PUSH1 0xE0 DUP3 ADD MSTORE DUP3 PUSH2 0x100 DUP3 ADD MSTORE ADD MSTORE PUSH1 0x4 CALLDATALOAD PUSH1 0x0 MSTORE PUSH1 0xFF PUSH1 0x20 MSTORE PUSH2 0x140 PUSH1 0x40 PUSH1 0x0 KECCAK256 PUSH2 0x120 PUSH1 0x40 MLOAD PUSH2 0x9D0 DUP2 PUSH2 0x1D27 JUMP JUMPDEST PUSH1 0x7 PUSH1 0x1 DUP1 PUSH1 0xA0 SHL SUB DUP5 SLOAD AND SWAP4 DUP5 DUP4 MSTORE PUSH1 0x1 DUP1 PUSH1 0xA0 SHL SUB PUSH1 0x1 DUP3 ADD SLOAD AND PUSH1 0x20 DUP5 ADD MSTORE PUSH1 0x1 DUP1 PUSH1 0xA0 SHL SUB PUSH1 0x2 DUP3 ADD SLOAD AND PUSH1 0x40 DUP5 ADD MSTORE PUSH1 0x3 DUP2 ADD SLOAD PUSH1 0x60 DUP5 ADD MSTORE PUSH1 0x4 DUP2 ADD SLOAD PUSH1 0x80 DUP5 ADD MSTORE PUSH1 0x5 DUP2 ADD SLOAD PUSH1 0xFF DUP2 AND ISZERO ISZERO PUSH1 0xA0 DUP6 ADD MSTORE PUSH1 0xFF DUP2 PUSH1 0x8 SHR AND ISZERO ISZERO PUSH1 0xC0 DUP6 ADD MSTORE PUSH1 0x1 DUP1 PUSH1 0xA0 SHL SUB SWAP1 PUSH1 0x10 SHR AND PUSH1 0xE0 DUP5 ADD MSTORE PUSH1 0x1 PUSH1 0x1 PUSH1 0x60 SHL SUB PUSH1 0x6 DUP3 ADD SLOAD AND PUSH2 0x100 DUP5 ADD MSTORE ADD SLOAD DUP3 DUP3 ADD MSTORE PUSH1 0x40 MLOAD SWAP3 DUP4 MSTORE PUSH1 0x1 DUP1 PUSH1 0xA0 SHL SUB PUSH1 0x20 DUP3 ADD MLOAD AND PUSH1 0x20 DUP5 ADD MSTORE PUSH1 0x1 DUP1 PUSH1 0xA0 SHL SUB PUSH1 0x40 DUP3 ADD MLOAD AND PUSH1 0x40 DUP5 ADD MSTORE PUSH1 0x60 DUP2 ADD MLOAD PUSH1 0x60 DUP5 ADD MSTORE PUSH1 0x80 DUP2 ADD MLOAD PUSH1 0x80 DUP5 ADD MSTORE PUSH1 0xA0 DUP2 ADD MLOAD ISZERO ISZERO PUSH1 0xA0 DUP5 ADD MSTORE PUSH1 0xC0 DUP2 ADD MLOAD ISZERO ISZERO PUSH1 0xC0 DUP5 ADD MSTORE PUSH1 0x1 DUP1 PUSH1 0xA0 SHL SUB PUSH1 0xE0 DUP3 ADD MLOAD AND PUSH1 0xE0 DUP5 ADD MSTORE PUSH1 0x1 PUSH1 0x1 PUSH1 0x60 SHL SUB PUSH2 0x100 DUP3 ADD MLOAD AND PUSH2 0x100 DUP5 ADD MSTORE ADD MLOAD PUSH2 0x120 DUP3 ADD MSTORE RETURN JUMPDEST CALLVALUE PUSH2 0x188 JUMPI PUSH1 0x80 CALLDATASIZE PUSH1 0x3 NOT ADD SLT PUSH2 0x188 JUMPI PUSH1 0x24 CALLDATALOAD PUSH2 0xB04 PUSH2 0x1D11 JUMP JUMPDEST SWAP1 PUSH1 0x64 CALLDATALOAD SWAP1 PUSH1 0x1 PUSH1 0x1 PUSH1 0x40 SHL SUB SWAP3 DUP4 DUP4 AND DUP1 SWAP4 SUB PUSH2 0x188 JUMPI PUSH1 0x99 SLOAD PUSH1 0x1 PUSH1 0x1 PUSH1 0xA0 SHL SUB SWAP2 SWAP1 PUSH2 0xB36 SWAP1 DUP4 AND CALLER EQ PUSH2 0x1F9F JUMP JUMPDEST DUP3 PUSH1 0x0 MSTORE PUSH1 0xFF SWAP2 PUSH1 0x20 SWAP6 DUP4 DUP8 MSTORE PUSH2 0xB57 DUP5 PUSH1 0x5 PUSH1 0x40 PUSH1 0x0 KECCAK256 ADD SLOAD AND ISZERO PUSH2 0x1FDC JUMP JUMPDEST DUP5 PUSH1 0x0 MSTORE DUP4 DUP8 MSTORE PUSH2 0xB75 DUP5 PUSH1 0x5 PUSH1 0x40 PUSH1 0x0 KECCAK256 ADD SLOAD PUSH1 0x8 SHR AND ISZERO PUSH2 0x2019 JUMP JUMPDEST DUP5 PUSH1 0x0 MSTORE DUP4 DUP8 MSTORE PUSH1 0x40 PUSH1 0x0 KECCAK256 SWAP4 PUSH1 0x6 DUP4 PUSH1 0x1 DUP8 ADD SLOAD AND SWAP6 ADD SWAP5 DUP6 SLOAD SWAP6 PUSH1 0x1 PUSH1 0x1 PUSH1 0x60 SHL SUB SWAP7 DUP10 DUP9 DUP3 AND SUB DUP9 DUP2 GT PUSH2 0xE02 JUMPI DUP9 AND SWAP1 PUSH1 0x1 PUSH1 0x1 PUSH1 0x60 SHL SUB NOT AND OR SWAP1 SSTORE DUP7 PUSH1 0x0 MSTORE DUP2 DUP10 MSTORE PUSH1 0x40 PUSH1 0x0 KECCAK256 SWAP6 PUSH1 0x6 DUP8 ADD SLOAD AND ISZERO PUSH2 0xD2B JUMPI JUMPDEST PUSH2 0xC59 SWAP6 POP PUSH2 0xBE9 PUSH2 0x4D2 DUP10 PUSH1 0x7 PUSH1 0x40 PUSH1 0x0 KECCAK256 ADD SLOAD PUSH2 0x1EF1 JUMP JUMPDEST SWAP2 DUP8 PUSH1 0x0 MSTORE DUP10 MSTORE PUSH1 0x7 PUSH1 0x40 PUSH1 0x0 KECCAK256 ADD PUSH2 0xC03 DUP4 DUP3 SLOAD PUSH2 0x2055 JUMP JUMPDEST SWAP1 SSTORE DUP9 PUSH2 0xC22 PUSH2 0xC1B PUSH2 0x4D2 PUSH1 0x98 SLOAD SWAP7 DUP8 AND DUP7 PUSH2 0x1EF1 JUMP JUMPDEST DUP1 SWAP5 PUSH2 0x2055 JUMP JUMPDEST SWAP3 PUSH1 0x40 MLOAD DUP1 SWAP9 DUP2 SWAP3 DUP9 PUSH4 0xA9059CBB PUSH1 0xE0 SHL SWAP9 DUP10 DUP6 MSTORE PUSH1 0x40 SHR AND PUSH1 0x4 DUP5 ADD PUSH1 0x20 SWAP1 SWAP4 SWAP3 SWAP2 SWAP4 PUSH1 0x40 DUP2 ADD SWAP5 PUSH1 0x1 DUP1 PUSH1 0xA0 SHL SUB AND DUP2 MSTORE ADD MSTORE JUMP JUMPDEST SUB DUP2 PUSH1 0x0 DUP6 GAS CALL SWAP3 DUP4 ISZERO PUSH2 0x718 JUMPI PUSH2 0xCA3 SWAP7 DUP11 SWAP5 PUSH2 0xD0E JUMPI JUMPDEST POP PUSH1 0x40 MLOAD SWAP1 DUP2 MSTORE PUSH1 0x1 PUSH1 0x1 PUSH1 0xA0 SHL SUB DUP7 AND PUSH1 0x4 DUP3 ADD MSTORE PUSH1 0x24 DUP2 ADD SWAP3 SWAP1 SWAP3 MSTORE SWAP1 SWAP5 DUP6 SWAP2 SWAP1 DUP3 SWAP1 PUSH1 0x0 SWAP1 DUP3 SWAP1 PUSH1 0x44 DUP3 ADD SWAP1 JUMP JUMPDEST SUB SWAP3 GAS CALL SWAP2 DUP3 ISZERO PUSH2 0x718 JUMPI PUSH32 0xD466BE5516D4D2372B27B6E13104CD3F5D1656E5C9E5AE9A6939DA8CF62DBBDE SWAP4 PUSH1 0x40 SWAP4 PUSH2 0xCF1 JUMPI JUMPDEST POP DUP3 MLOAD SWAP6 PUSH1 0x4 CALLDATALOAD DUP8 MSTORE DUP8 DUP8 ADD MSTORE AND SWAP4 LOG3 PUSH1 0x40 MLOAD PUSH1 0x1 DUP2 MSTORE RETURN JUMPDEST PUSH2 0xD07 SWAP1 DUP9 RETURNDATASIZE DUP11 GT PUSH2 0x711 JUMPI PUSH2 0x702 DUP2 DUP4 PUSH2 0x1D5E JUMP JUMPDEST POP DUP8 PUSH2 0xCD8 JUMP JUMPDEST PUSH2 0xD24 SWAP1 DUP6 RETURNDATASIZE DUP8 GT PUSH2 0x711 JUMPI PUSH2 0x702 DUP2 DUP4 PUSH2 0x1D5E JUMP JUMPDEST POP DUP11 PUSH2 0xC72 JUMP JUMPDEST PUSH1 0x5 DUP7 ADD PUSH1 0x1 PUSH1 0xFF NOT DUP3 SLOAD AND OR SWAP1 SSTORE DUP9 PUSH1 0x3 DUP8 ADD SLOAD DUP1 PUSH2 0xD4D JUMPI JUMPDEST POP POP PUSH2 0xBCF JUMP JUMPDEST PUSH1 0x1 DUP9 ADD SLOAD PUSH1 0x2 SWAP1 SWAP9 ADD SLOAD PUSH1 0x40 MLOAD PUSH4 0xA9059CBB PUSH1 0xE0 SHL DUP2 MSTORE SWAP1 DUP8 AND PUSH1 0x1 PUSH1 0x1 PUSH1 0xA0 SHL SUB AND PUSH1 0x4 DUP3 ADD MSTORE PUSH1 0x24 DUP2 ADD SWAP2 SWAP1 SWAP2 MSTORE SWAP7 DUP8 SWAP1 DUP7 AND DUP2 PUSH1 0x0 DUP2 PUSH1 0x44 DUP2 ADD SUB SWAP3 GAS CALL SWAP6 DUP7 ISZERO PUSH2 0x718 JUMPI PUSH2 0xC59 SWAP7 PUSH2 0xDE5 JUMPI JUMPDEST POP DUP7 PUSH1 0x0 MSTORE DUP2 DUP10 MSTORE PUSH1 0x40 PUSH1 0x0 KECCAK256 PUSH1 0x3 DUP6 PUSH1 0x2 DUP4 ADD SLOAD AND SWAP2 ADD SLOAD SWAP1 PUSH32 0x44F6938CA4A10313AABB76F874CCED61E35710A734A126E4AFB34461BF8C2501 PUSH1 0x0 DUP1 LOG3 DUP9 DUP11 PUSH2 0xD46 JUMP JUMPDEST PUSH2 0xDFB SWAP1 DUP11 RETURNDATASIZE DUP13 GT PUSH2 0x711 JUMPI PUSH2 0x702 DUP2 DUP4 PUSH2 0x1D5E JUMP JUMPDEST POP DUP10 PUSH2 0xD9F JUMP JUMPDEST PUSH4 0x4E487B71 PUSH1 0xE0 SHL PUSH1 0x0 MSTORE PUSH1 0x11 PUSH1 0x4 MSTORE PUSH1 0x24 PUSH1 0x0 REVERT JUMPDEST CALLVALUE PUSH2 0x188 JUMPI PUSH1 0x0 CALLDATASIZE PUSH1 0x3 NOT ADD SLT PUSH2 0x188 JUMPI PUSH1 0x33 SLOAD PUSH1 0x40 MLOAD PUSH1 0x1 PUSH1 0x1 PUSH1 0xA0 SHL SUB SWAP1 SWAP2 AND DUP2 MSTORE PUSH1 0x20 SWAP1 RETURN JUMPDEST CALLVALUE PUSH2 0x188 JUMPI PUSH1 0x0 CALLDATASIZE PUSH1 0x3 NOT ADD SLT PUSH2 0x188 JUMPI PUSH2 0xE5A PUSH2 0x1DD0 JUMP JUMPDEST PUSH2 0xE62 PUSH2 0x1E88 JUMP JUMPDEST PUSH1 0x1 PUSH1 0xFF NOT PUSH1 0xCD SLOAD AND OR PUSH1 0xCD SSTORE PUSH32 0x62E78CEA01BEE320CD4E420270B5EA74000D11B0C9F74754EBDBFC544B05A258 PUSH1 0x20 PUSH1 0x40 MLOAD CALLER DUP2 MSTORE LOG1 STOP JUMPDEST CALLVALUE PUSH2 0x188 JUMPI PUSH1 0x0 CALLDATASIZE PUSH1 0x3 NOT ADD SLT PUSH2 0x188 JUMPI PUSH1 0x0 SLOAD PUSH1 0xFF DUP2 PUSH1 0x8 SHR AND ISZERO DUP1 DUP1 SWAP2 PUSH2 0xFE7 JUMPI JUMPDEST DUP1 ISZERO PUSH2 0xFD0 JUMPI JUMPDEST ISZERO PUSH2 0xF74 JUMPI PUSH1 0xFF NOT DUP3 DUP2 AND PUSH1 0x1 OR PUSH1 0x0 SSTORE SWAP2 DUP2 PUSH2 0xF62 JUMPI JUMPDEST POP PUSH3 0x186A0 PUSH1 0x97 SSTORE PUSH2 0xF00 PUSH1 0xFF PUSH1 0x0 SLOAD PUSH1 0x8 SHR AND PUSH2 0xEFB DUP2 PUSH2 0x1E28 JUMP JUMPDEST PUSH2 0x1E28 JUMP JUMPDEST PUSH2 0xF09 CALLER PUSH2 0x1D7F JUMP JUMPDEST PUSH1 0x0 SLOAD SWAP2 PUSH2 0xF20 PUSH1 0xFF DUP5 PUSH1 0x8 SHR AND PUSH2 0xEFB DUP2 PUSH2 0x1E28 JUMP JUMPDEST PUSH1 0xCD SLOAD AND PUSH1 0xCD SSTORE PUSH2 0xF2D JUMPI STOP JUMPDEST PUSH2 0xFF00 NOT AND PUSH1 0x0 SSTORE PUSH32 0x7F26B83FF96E1F2B6A682F133852F6798A09C465DA95921460CEFB3847402498 PUSH1 0x20 PUSH1 0x40 MLOAD PUSH1 0x1 DUP2 MSTORE LOG1 STOP JUMPDEST PUSH2 0xFFFF NOT AND PUSH2 0x101 OR PUSH1 0x0 SSTORE DUP3 PUSH2 0xEDE JUMP JUMPDEST PUSH1 0x40 MLOAD PUSH3 0x461BCD PUSH1 0xE5 SHL DUP2 MSTORE PUSH1 0x20 PUSH1 0x4 DUP3 ADD MSTORE PUSH1 0x2E PUSH1 0x24 DUP3 ADD MSTORE PUSH32 0x496E697469616C697A61626C653A20636F6E747261637420697320616C726561 PUSH1 0x44 DUP3 ADD MSTORE PUSH14 0x191E481A5B9A5D1A585B1A5E9959 PUSH1 0x92 SHL PUSH1 0x64 DUP3 ADD MSTORE PUSH1 0x84 SWAP1 REVERT JUMPDEST POP ADDRESS EXTCODESIZE ISZERO DUP1 ISZERO PUSH2 0xEC6 JUMPI POP PUSH1 0x1 PUSH1 0xFF DUP4 AND EQ PUSH2 0xEC6 JUMP JUMPDEST POP PUSH1 0x1 PUSH1 0xFF DUP4 AND LT PUSH2 0xEBF JUMP JUMPDEST CALLVALUE PUSH2 0x188 JUMPI PUSH1 0xE0 CALLDATASIZE PUSH1 0x3 NOT ADD SLT PUSH2 0x188 JUMPI PUSH2 0x100D PUSH2 0x1CE5 JUMP JUMPDEST PUSH1 0x44 CALLDATALOAD PUSH1 0x1 PUSH1 0x1 PUSH1 0x60 SHL SUB DUP2 AND DUP2 SUB PUSH2 0x188 JUMPI PUSH2 0x1028 PUSH2 0x1CFB JUMP JUMPDEST SWAP1 PUSH1 0xA4 CALLDATALOAD PUSH1 0x1 PUSH1 0x1 PUSH1 0xA0 SHL SUB DUP2 AND DUP2 SUB PUSH2 0x188 JUMPI PUSH1 0x1 PUSH1 0x1 PUSH1 0x40 SHL SUB PUSH1 0xC4 CALLDATALOAD GT PUSH2 0x188 JUMPI CALLDATASIZE PUSH1 0x23 PUSH1 0xC4 CALLDATALOAD ADD SLT ISZERO PUSH2 0x188 JUMPI PUSH1 0x1 PUSH1 0x1 PUSH1 0x40 SHL SUB PUSH1 0xC4 CALLDATALOAD PUSH1 0x4 ADD CALLDATALOAD GT PUSH2 0x188 JUMPI CALLDATASIZE PUSH1 0x24 PUSH1 0xC4 CALLDATALOAD PUSH1 0x4 ADD CALLDATALOAD PUSH1 0xC4 CALLDATALOAD ADD ADD GT PUSH2 0x188 JUMPI PUSH2 0x1089 PUSH2 0x1E88 JUMP JUMPDEST PUSH1 0x1 PUSH1 0x1 PUSH1 0xA0 SHL SUB DUP5 AND PUSH1 0x0 SWAP1 DUP2 MSTORE PUSH1 0x9A PUSH1 0x20 MSTORE PUSH1 0x40 SWAP1 KECCAK256 SLOAD PUSH2 0x10AE SWAP1 PUSH1 0x1 EQ PUSH2 0x1F24 JUMP JUMPDEST PUSH2 0x10BB PUSH1 0x24 CALLDATALOAD ISZERO ISZERO PUSH2 0x1F64 JUMP JUMPDEST PUSH1 0x1 PUSH1 0x1 PUSH1 0xA0 SHL SUB DUP2 AND ISZERO PUSH2 0x1542 JUMPI PUSH1 0x84 CALLDATALOAD PUSH2 0x14EF JUMPI JUMPDEST PUSH1 0xC4 CALLDATALOAD PUSH1 0x4 ADD CALLDATALOAD ISZERO PUSH2 0x14B5 JUMPI PUSH2 0x111E PUSH1 0x20 PUSH2 0x10F1 PUSH1 0x84 CALLDATALOAD PUSH1 0x24 CALLDATALOAD PUSH2 0x1ECC JUMP JUMPDEST PUSH1 0x40 MLOAD PUSH4 0x23B872DD PUSH1 0xE0 SHL DUP2 MSTORE CALLER PUSH1 0x4 DUP3 ADD MSTORE ADDRESS PUSH1 0x24 DUP3 ADD MSTORE PUSH1 0x44 DUP2 ADD SWAP2 SWAP1 SWAP2 MSTORE SWAP2 DUP3 SWAP1 DUP2 SWAP1 PUSH1 0x64 DUP3 ADD SWAP1 JUMP JUMPDEST SUB DUP2 PUSH1 0x0 PUSH1 0x1 PUSH1 0x1 PUSH1 0xA0 SHL SUB DUP11 AND GAS CALL DUP1 ISZERO PUSH2 0x718 JUMPI PUSH2 0x1496 JUMPI JUMPDEST POP CALLER PUSH1 0x0 MSTORE PUSH2 0x101 PUSH1 0x20 MSTORE PUSH1 0x40 PUSH1 0x0 KECCAK256 SWAP4 DUP5 SLOAD SWAP5 PUSH1 0x0 NOT DUP7 EQ PUSH2 0xE02 JUMPI PUSH1 0x1 PUSH1 0x20 SWAP7 ADD SWAP1 SSTORE CALLER PUSH1 0x0 MSTORE PUSH2 0x101 DUP6 MSTORE PUSH2 0x1197 PUSH2 0x11A5 PUSH1 0x40 PUSH1 0x0 KECCAK256 SLOAD PUSH1 0x40 MLOAD SWAP3 DUP4 SWAP2 CALLER DUP11 DUP5 ADD PUSH1 0x20 SWAP1 SWAP4 SWAP3 SWAP2 SWAP4 PUSH1 0x40 DUP2 ADD SWAP5 PUSH1 0x1 DUP1 PUSH1 0xA0 SHL SUB AND DUP2 MSTORE ADD MSTORE JUMP JUMPDEST SUB PUSH1 0x1F NOT DUP2 ADD DUP4 MSTORE DUP3 PUSH2 0x1D5E JUMP JUMPDEST DUP6 DUP2 MLOAD SWAP2 ADD KECCAK256 SWAP4 PUSH1 0x1 PUSH1 0x1 PUSH1 0x40 SHL SUB PUSH2 0x11C4 DUP2 PUSH1 0x98 SLOAD AND PUSH1 0x24 CALLDATALOAD PUSH2 0x1EF1 JUMP JUMPDEST PUSH2 0x11D1 PUSH1 0x97 SLOAD DUP1 SWAP3 PUSH2 0x1F04 JUMP JUMPDEST SWAP5 PUSH1 0x40 MLOAD SWAP4 PUSH2 0x11DF DUP6 PUSH2 0x1D27 JUMP JUMPDEST CALLER DUP6 MSTORE PUSH1 0x1 DUP1 PUSH1 0xA0 SHL SUB DUP7 AND DUP11 DUP7 ADD MSTORE PUSH1 0x1 DUP1 PUSH1 0xA0 SHL SUB AND PUSH1 0x40 DUP6 ADD MSTORE PUSH1 0x84 CALLDATALOAD PUSH1 0x60 DUP6 ADD MSTORE DUP6 PUSH1 0x80 DUP6 ADD MSTORE PUSH1 0x0 PUSH1 0xA0 DUP6 ADD MSTORE PUSH1 0x0 PUSH1 0xC0 DUP6 ADD MSTORE PUSH1 0x1 DUP1 PUSH1 0xA0 SHL SUB AND PUSH1 0xE0 DUP5 ADD MSTORE AND PUSH2 0x100 DUP3 ADD MSTORE PUSH1 0x24 CALLDATALOAD PUSH2 0x120 DUP3 ADD MSTORE DUP5 PUSH1 0x0 MSTORE PUSH1 0xFF DUP7 MSTORE PUSH1 0x7 PUSH2 0x120 PUSH1 0x40 PUSH1 0x0 KECCAK256 SWAP3 PUSH1 0x1 DUP1 PUSH1 0xA0 SHL SUB DUP2 MLOAD AND PUSH1 0x1 PUSH1 0x1 PUSH1 0x60 SHL SUB PUSH1 0xA0 SHL DUP6 SLOAD AND OR DUP5 SSTORE PUSH1 0x1 DUP5 ADD PUSH1 0x1 DUP1 PUSH1 0xA0 SHL SUB DUP11 DUP4 ADD MLOAD AND PUSH1 0x1 PUSH1 0x1 PUSH1 0x60 SHL SUB PUSH1 0xA0 SHL DUP3 SLOAD AND OR SWAP1 SSTORE PUSH1 0x2 DUP5 ADD PUSH1 0x1 DUP1 PUSH1 0xA0 SHL SUB PUSH1 0x40 DUP4 ADD MLOAD AND PUSH1 0x1 PUSH1 0x1 PUSH1 0x60 SHL SUB PUSH1 0xA0 SHL DUP3 SLOAD AND OR SWAP1 SSTORE PUSH1 0x60 DUP2 ADD MLOAD PUSH1 0x3 DUP6 ADD SSTORE PUSH1 0x80 DUP2 ADD MLOAD PUSH1 0x4 DUP6 ADD SSTORE PUSH1 0x5 DUP5 ADD PUSH1 0xA0 DUP3 ADD MLOAD ISZERO ISZERO DUP2 SLOAD PUSH2 0xFF00 PUSH1 0xC0 DUP6 ADD MLOAD ISZERO ISZERO PUSH1 0x8 SHL AND SWAP1 PUSH1 0xFF PUSH3 0x10000 PUSH1 0x1 PUSH1 0xB0 SHL SUB PUSH1 0xE0 DUP8 ADD MLOAD PUSH1 0x10 SHL AND SWAP4 AND SWAP1 PUSH10 0xFFFFFFFFFFFFFFFFFFFF PUSH1 0xB0 SHL AND OR OR OR SWAP1 SSTORE PUSH1 0x6 DUP5 ADD PUSH1 0x1 PUSH1 0x1 PUSH1 0x60 SHL SUB PUSH2 0x100 DUP4 ADD MLOAD AND PUSH1 0x1 PUSH1 0x1 PUSH1 0x60 SHL SUB NOT DUP3 SLOAD AND OR SWAP1 SSTORE ADD MLOAD SWAP2 ADD SSTORE PUSH1 0x1 DUP1 PUSH1 0xA0 SHL SUB PUSH1 0x98 SLOAD PUSH1 0x40 SHR AND PUSH1 0x4 PUSH1 0x40 MLOAD SWAP2 PUSH2 0x1346 DUP4 PUSH2 0x1D43 JUMP JUMPDEST PUSH1 0x24 CALLDATALOAD DUP4 MSTORE DUP8 DUP4 ADD SWAP1 DUP2 MSTORE PUSH1 0x40 DUP4 ADD CALLER DUP2 MSTORE PUSH1 0x60 DUP5 ADD SWAP1 PUSH1 0x1 DUP1 PUSH1 0xA0 SHL SUB DUP7 AND DUP3 MSTORE PUSH1 0x80 DUP6 ADD SWAP3 DUP10 DUP5 MSTORE DUP10 PUSH1 0x0 MSTORE PUSH2 0x100 DUP12 MSTORE PUSH1 0x40 PUSH1 0x0 KECCAK256 SWAP6 MLOAD DUP7 SSTORE PUSH1 0x1 DUP7 ADD SWAP1 PUSH1 0x1 DUP1 PUSH1 0xA0 SHL SUB SWAP1 MLOAD AND PUSH1 0x1 PUSH1 0x1 PUSH1 0x60 SHL SUB PUSH1 0xA0 SHL DUP3 SLOAD AND OR SWAP1 SSTORE PUSH1 0x2 DUP6 ADD SWAP1 PUSH1 0x1 DUP1 PUSH1 0xA0 SHL SUB SWAP1 MLOAD AND PUSH1 0x1 PUSH1 0x1 PUSH1 0x60 SHL SUB PUSH1 0xA0 SHL DUP3 SLOAD AND OR SWAP1 SSTORE PUSH1 0x3 DUP5 ADD SWAP1 PUSH1 0x1 DUP1 PUSH1 0xA0 SHL SUB SWAP1 MLOAD AND PUSH1 0x1 PUSH1 0x1 PUSH1 0x60 SHL SUB PUSH1 0xA0 SHL DUP3 SLOAD AND OR SWAP1 SSTORE MLOAD SWAP2 ADD SSTORE PUSH1 0xFF DUP6 MSTORE PUSH32 0x40CCD1CEB111A3C186EF9911E1B876DC1F789ED331B86097B3B8851055B6A137 PUSH1 0x40 PUSH1 0x0 KECCAK256 SWAP2 PUSH1 0x1 PUSH1 0x1 PUSH1 0x60 SHL SUB PUSH1 0x7 PUSH1 0x1 DUP1 PUSH1 0xA0 SHL SUB DUP6 SLOAD AND SWAP5 ADD SLOAD SWAP6 PUSH1 0x40 MLOAD SWAP6 DUP7 MSTORE DUP8 DUP10 DUP8 ADD MSTORE AND PUSH1 0x40 DUP6 ADD MSTORE PUSH1 0x80 PUSH1 0x60 DUP6 ADD MSTORE PUSH1 0xC4 CALLDATALOAD PUSH1 0x4 ADD CALLDATALOAD PUSH1 0x80 DUP6 ADD MSTORE PUSH1 0xC4 CALLDATALOAD PUSH1 0x4 ADD CALLDATALOAD PUSH1 0x24 PUSH1 0xC4 CALLDATALOAD ADD PUSH1 0xA0 DUP7 ADD CALLDATACOPY PUSH1 0x0 PUSH1 0xA0 PUSH1 0xC4 CALLDATALOAD PUSH1 0x4 ADD CALLDATALOAD DUP7 ADD ADD MSTORE PUSH1 0x1 DUP1 PUSH1 0xA0 SHL SUB AND SWAP3 PUSH1 0xA0 DUP2 PUSH1 0x1F NOT PUSH1 0x1F PUSH1 0xC4 CALLDATALOAD PUSH1 0x4 ADD CALLDATALOAD ADD AND DUP2 ADD SUB ADD SWAP1 LOG4 PUSH1 0x40 MLOAD SWAP1 DUP2 MSTORE RETURN JUMPDEST PUSH2 0x14AE SWAP1 PUSH1 0x20 RETURNDATASIZE PUSH1 0x20 GT PUSH2 0x711 JUMPI PUSH2 0x702 DUP2 DUP4 PUSH2 0x1D5E JUMP JUMPDEST POP DUP5 PUSH2 0x1139 JUMP JUMPDEST PUSH1 0x40 MLOAD PUSH3 0x461BCD PUSH1 0xE5 SHL DUP2 MSTORE PUSH1 0x20 PUSH1 0x4 DUP3 ADD MSTORE PUSH1 0x12 PUSH1 0x24 DUP3 ADD MSTORE PUSH18 0x92DCECC2D8D2C89ACAE6E6C2CECA90C2E6D PUSH1 0x73 SHL PUSH1 0x44 DUP3 ADD MSTORE PUSH1 0x64 SWAP1 REVERT JUMPDEST PUSH1 0x1 PUSH1 0x1 PUSH1 0xA0 SHL SUB DUP4 AND PUSH2 0x10D2 JUMPI PUSH1 0x40 MLOAD PUSH3 0x461BCD PUSH1 0xE5 SHL DUP2 MSTORE PUSH1 0x20 PUSH1 0x4 DUP3 ADD MSTORE PUSH1 0x19 PUSH1 0x24 DUP3 ADD MSTORE PUSH32 0x496E76616C696453656E646572466565526563697069656E7400000000000000 PUSH1 0x44 DUP3 ADD MSTORE PUSH1 0x64 SWAP1 REVERT JUMPDEST PUSH1 0x40 MLOAD PUSH3 0x461BCD PUSH1 0xE5 SHL DUP2 MSTORE PUSH1 0x20 PUSH1 0x4 DUP3 ADD MSTORE PUSH1 0x10 PUSH1 0x24 DUP3 ADD MSTORE PUSH16 0x5468726F775A65726F41646472657373 PUSH1 0x80 SHL PUSH1 0x44 DUP3 ADD MSTORE PUSH1 0x64 SWAP1 REVERT JUMPDEST CALLVALUE PUSH2 0x188 JUMPI PUSH1 0x0 CALLDATASIZE PUSH1 0x3 NOT ADD SLT PUSH2 0x188 JUMPI PUSH1 0x65 SLOAD CALLER PUSH1 0x1 PUSH1 0x1 PUSH1 0xA0 SHL SUB SWAP1 SWAP2 AND SUB PUSH2 0x15AA JUMPI PUSH2 0x15A8 CALLER PUSH2 0x1D7F JUMP JUMPDEST STOP JUMPDEST PUSH1 0x40 MLOAD PUSH3 0x461BCD PUSH1 0xE5 SHL DUP2 MSTORE PUSH1 0x20 PUSH1 0x4 DUP3 ADD MSTORE PUSH1 0x29 PUSH1 0x24 DUP3 ADD MSTORE PUSH32 0x4F776E61626C6532537465703A2063616C6C6572206973206E6F742074686520 PUSH1 0x44 DUP3 ADD MSTORE PUSH9 0x3732BB9037BBB732B9 PUSH1 0xB9 SHL PUSH1 0x64 DUP3 ADD MSTORE PUSH1 0x84 SWAP1 REVERT JUMPDEST CALLVALUE PUSH2 0x188 JUMPI PUSH1 0x20 CALLDATASIZE PUSH1 0x3 NOT ADD SLT PUSH2 0x188 JUMPI PUSH1 0x20 PUSH2 0x1624 PUSH2 0x161F PUSH2 0x1CE5 JUMP JUMPDEST PUSH2 0x2243 JUMP JUMPDEST PUSH1 0x40 MLOAD SWAP1 ISZERO ISZERO DUP2 MSTORE RETURN JUMPDEST CALLVALUE PUSH2 0x188 JUMPI PUSH1 0x0 CALLDATASIZE PUSH1 0x3 NOT ADD SLT PUSH2 0x188 JUMPI PUSH2 0x1647 PUSH2 0x1DD0 JUMP JUMPDEST PUSH1 0x65 DUP1 SLOAD PUSH1 0x1 PUSH1 0x1 PUSH1 0xA0 SHL SUB NOT SWAP1 DUP2 AND SWAP1 SWAP2 SSTORE PUSH1 0x33 DUP1 SLOAD SWAP2 DUP3 AND SWAP1 SSTORE PUSH1 0x0 SWAP1 PUSH1 0x1 PUSH1 0x1 PUSH1 0xA0 SHL SUB AND PUSH32 0x8BE0079C531659141344CD1FD0A4F28419497F9722A3DAAFE3B4186F6B6457E0 DUP3 DUP1 LOG3 STOP JUMPDEST CALLVALUE PUSH2 0x188 JUMPI PUSH1 0x0 CALLDATASIZE PUSH1 0x3 NOT ADD SLT PUSH2 0x188 JUMPI PUSH1 0x20 PUSH1 0xFF PUSH1 0xCD SLOAD AND PUSH1 0x40 MLOAD SWAP1 ISZERO ISZERO DUP2 MSTORE RETURN JUMPDEST CALLVALUE PUSH2 0x188 JUMPI PUSH1 0x40 CALLDATASIZE PUSH1 0x3 NOT ADD SLT PUSH2 0x188 JUMPI PUSH2 0x16D1 PUSH2 0x1CE5 JUMP JUMPDEST PUSH1 0x24 CALLDATALOAD SWAP1 PUSH1 0x1 DUP1 PUSH1 0xA0 SHL SUB AND DUP1 PUSH1 0x0 MSTORE PUSH1 0x20 SWAP2 PUSH1 0x9A DUP4 MSTORE PUSH2 0x16F9 PUSH1 0x1 PUSH1 0x40 PUSH1 0x0 KECCAK256 SLOAD EQ PUSH2 0x1F24 JUMP JUMPDEST PUSH2 0x1704 DUP2 ISZERO ISZERO PUSH2 0x1F64 JUMP JUMPDEST PUSH1 0x40 MLOAD PUSH4 0x23B872DD PUSH1 0xE0 SHL DUP2 MSTORE CALLER PUSH1 0x4 DUP3 ADD MSTORE ADDRESS PUSH1 0x24 DUP3 ADD MSTORE PUSH1 0x44 DUP2 ADD DUP3 SWAP1 MSTORE DUP4 DUP2 PUSH1 0x64 DUP2 PUSH1 0x0 DUP8 GAS CALL DUP1 ISZERO PUSH2 0x718 JUMPI PUSH2 0x1790 JUMPI JUMPDEST POP DUP2 PUSH1 0x0 MSTORE PUSH2 0x102 DUP4 MSTORE PUSH1 0x40 PUSH1 0x0 KECCAK256 CALLER PUSH1 0x0 MSTORE DUP4 MSTORE PUSH1 0x40 PUSH1 0x0 KECCAK256 PUSH2 0x175E DUP3 DUP3 SLOAD PUSH2 0x1ECC JUMP JUMPDEST SWAP1 SSTORE PUSH1 0x40 MLOAD SWAP2 CALLER PUSH32 0x5548C837AB068CF56A2C2479DF0882A4922FD203EDB7517321831D95078C5F62 PUSH1 0x0 DUP1 LOG4 PUSH1 0x1 DUP2 MSTORE RETURN JUMPDEST PUSH2 0x17A6 SWAP1 DUP5 RETURNDATASIZE DUP7 GT PUSH2 0x711 JUMPI PUSH2 0x702 DUP2 DUP4 PUSH2 0x1D5E JUMP JUMPDEST POP DUP4 PUSH2 0x1739 JUMP JUMPDEST CALLVALUE PUSH2 0x188 JUMPI PUSH1 0x40 CALLDATASIZE PUSH1 0x3 NOT ADD SLT PUSH2 0x188 JUMPI PUSH1 0x4 CALLDATALOAD PUSH1 0x24 CALLDATALOAD PUSH1 0x1 DUP1 PUSH1 0xA0 SHL SUB PUSH2 0x17DA DUP2 PUSH1 0x99 SLOAD AND CALLER EQ PUSH2 0x1F9F JUMP JUMPDEST DUP2 PUSH1 0x0 MSTORE PUSH1 0xFF SWAP3 PUSH1 0x20 SWAP4 DUP1 DUP6 MSTORE PUSH2 0x17FB DUP2 PUSH1 0x5 PUSH1 0x40 PUSH1 0x0 KECCAK256 ADD SLOAD AND ISZERO PUSH2 0x1FDC JUMP JUMPDEST DUP4 PUSH1 0x0 MSTORE DUP1 DUP6 MSTORE PUSH2 0x1819 DUP2 PUSH1 0x5 PUSH1 0x40 PUSH1 0x0 KECCAK256 ADD SLOAD PUSH1 0x8 SHR AND ISZERO PUSH2 0x2019 JUMP JUMPDEST DUP4 PUSH1 0x0 MSTORE DUP1 DUP6 MSTORE DUP2 PUSH1 0x4 PUSH1 0x40 PUSH1 0x0 KECCAK256 ADD SLOAD LT PUSH2 0x19BB JUMPI DUP5 SWAP1 DUP3 PUSH2 0x193A JUMPI JUMPDEST PUSH2 0x18D8 SWAP4 DUP6 PUSH1 0x0 MSTORE DUP2 DUP4 MSTORE PUSH2 0x1877 DUP5 PUSH1 0x7 PUSH1 0x40 PUSH1 0x0 KECCAK256 PUSH1 0x5 DUP2 ADD PUSH2 0x100 PUSH2 0xFF00 NOT DUP3 SLOAD AND OR SWAP1 SSTORE PUSH1 0x6 DUP2 ADD PUSH1 0x1 PUSH1 0x1 PUSH1 0x60 SHL SUB NOT DUP2 SLOAD AND SWAP1 SSTORE ADD SLOAD PUSH2 0x2055 JUMP JUMPDEST SWAP2 DUP7 PUSH1 0x0 MSTORE DUP4 MSTORE PUSH2 0x18A3 PUSH1 0x40 PUSH1 0x0 KECCAK256 SWAP3 PUSH1 0x3 DUP4 PUSH1 0x1 DUP7 ADD SLOAD AND SWAP4 PUSH1 0x5 DUP7 ADD SLOAD PUSH1 0x10 SHR AND SWAP5 ADD SLOAD SWAP1 PUSH2 0x1ECC JUMP JUMPDEST PUSH1 0x40 MLOAD PUSH4 0xA9059CBB PUSH1 0xE0 SHL DUP2 MSTORE PUSH1 0x1 PUSH1 0x1 PUSH1 0xA0 SHL SUB SWAP1 SWAP4 AND PUSH1 0x4 DUP5 ADD MSTORE PUSH1 0x24 DUP4 ADD MSTORE SWAP1 SWAP4 DUP5 SWAP2 SWAP1 DUP3 SWAP1 PUSH1 0x0 SWAP1 DUP3 SWAP1 PUSH1 0x44 DUP3 ADD SWAP1 JUMP JUMPDEST SUB SWAP3 GAS CALL SWAP1 DUP2 ISZERO PUSH2 0x718 JUMPI PUSH32 0x736FE428E1747CA8D387C2E6FA1A31A0CDE62D3A167C40A46ADE59A3CDC828E SWAP3 DUP6 SWAP3 PUSH2 0x191D JUMPI JUMPDEST POP PUSH1 0x40 MLOAD SWAP1 DUP2 MSTORE LOG2 PUSH1 0x40 MLOAD PUSH1 0x1 DUP2 MSTORE RETURN JUMPDEST PUSH2 0x1933 SWAP1 DUP4 RETURNDATASIZE DUP6 GT PUSH2 0x711 JUMPI PUSH2 0x702 DUP2 DUP4 PUSH2 0x1D5E JUMP JUMPDEST POP DUP6 PUSH2 0x190C JUMP JUMPDEST PUSH1 0x0 DUP6 DUP2 MSTORE DUP2 DUP8 MSTORE PUSH1 0x40 DUP1 DUP3 KECCAK256 PUSH1 0x1 ADD SLOAD PUSH1 0x98 SLOAD DUP3 MLOAD PUSH4 0xA9059CBB PUSH1 0xE0 SHL DUP2 MSTORE SWAP3 SHR DUP8 AND PUSH1 0x1 PUSH1 0x1 PUSH1 0xA0 SHL SUB AND PUSH1 0x4 DUP4 ADD MSTORE PUSH1 0x24 DUP3 ADD DUP7 SWAP1 MSTORE SWAP1 SWAP6 SWAP4 POP DUP8 SWAP2 DUP7 SWAP2 PUSH1 0x44 SWAP2 DUP4 SWAP2 DUP8 AND GAS CALL SWAP2 DUP3 ISZERO PUSH2 0x718 JUMPI PUSH2 0x18D8 SWAP5 DUP8 SWAP4 PUSH2 0x199E JUMPI JUMPDEST POP SWAP4 POP PUSH2 0x1837 JUMP JUMPDEST PUSH2 0x19B4 SWAP1 DUP5 RETURNDATASIZE DUP7 GT PUSH2 0x711 JUMPI PUSH2 0x702 DUP2 DUP4 PUSH2 0x1D5E JUMP JUMPDEST POP DUP8 PUSH2 0x1996 JUMP JUMPDEST PUSH1 0x40 MLOAD PUSH3 0x461BCD PUSH1 0xE5 SHL DUP2 MSTORE PUSH1 0x4 DUP2 ADD DUP7 SWAP1 MSTORE PUSH1 0x15 PUSH1 0x24 DUP3 ADD MSTORE PUSH21 0x4665654578636565647350726F746F636F6C466565 PUSH1 0x58 SHL PUSH1 0x44 DUP3 ADD MSTORE PUSH1 0x64 SWAP1 REVERT JUMPDEST CALLVALUE PUSH2 0x188 JUMPI PUSH1 0x20 CALLDATASIZE PUSH1 0x3 NOT ADD SLT PUSH2 0x188 JUMPI PUSH1 0x4 CALLDATALOAD PUSH1 0x1 PUSH1 0x1 PUSH1 0x40 SHL SUB DUP2 AND DUP1 SWAP2 SUB PUSH2 0x188 JUMPI PUSH1 0x20 PUSH32 0x1CE29A697A4765BD17D91DF93BA75B250B629ECF030553FF1F6AB59F15AE6C7B SWAP2 PUSH2 0x1A49 PUSH2 0x1DD0 JUMP JUMPDEST DUP1 PUSH1 0x1 PUSH1 0x1 PUSH1 0x40 SHL SUB NOT PUSH1 0x98 SLOAD AND OR PUSH1 0x98 SSTORE PUSH1 0x40 MLOAD SWAP1 DUP2 MSTORE LOG1 STOP JUMPDEST CALLVALUE PUSH2 0x188 JUMPI PUSH1 0x40 CALLDATASIZE PUSH1 0x3 NOT ADD SLT PUSH2 0x188 JUMPI PUSH1 0x4 CALLDATALOAD PUSH2 0x1A80 PUSH2 0x1CCF JUMP JUMPDEST SWAP1 PUSH2 0x1A89 PUSH2 0x1DD0 JUMP JUMPDEST PUSH1 0x1 PUSH1 0x1 PUSH1 0xA0 SHL SUB DUP3 DUP2 AND SWAP3 PUSH2 0x1AA0 DUP5 ISZERO ISZERO PUSH2 0x226C JUMP JUMPDEST PUSH1 0x0 PUSH8 0x7472656173757279 PUSH1 0xC0 SHL DUP5 SUB PUSH2 0x1B76 JUMPI POP DUP4 PUSH1 0x98 SLOAD SWAP3 DUP4 PUSH1 0x40 SHR AND EQ PUSH2 0x1B23 JUMPI PUSH9 0x10000000000000000 PUSH1 0x1 PUSH1 0xE0 SHL SUB NOT SWAP1 SWAP2 AND PUSH1 0x40 SWAP2 SWAP1 SWAP2 SHL PUSH9 0x10000000000000000 PUSH1 0x1 PUSH1 0xE0 SHL SUB AND OR PUSH1 0x98 SSTORE PUSH1 0x1 JUMPDEST PUSH2 0x1AFC JUMPI STOP JUMPDEST PUSH32 0xBBC5B96E57CFECB3DBEEADF92E87F15E58E64FCD75CBE256DCC5D9EF2E51E8A4 PUSH1 0x0 DUP1 LOG3 STOP JUMPDEST PUSH1 0x40 MLOAD PUSH3 0x461BCD PUSH1 0xE5 SHL DUP2 MSTORE PUSH1 0x20 PUSH1 0x4 DUP3 ADD MSTORE PUSH1 0x25 PUSH1 0x24 DUP3 ADD MSTORE PUSH32 0x476174657761793A207472656173757279206164647265737320616C72656164 PUSH1 0x44 DUP3 ADD MSTORE PUSH5 0x1E481CD95D PUSH1 0xDA SHL PUSH1 0x64 DUP3 ADD MSTORE PUSH1 0x84 SWAP1 REVERT JUMPDEST SWAP2 SWAP1 POP PUSH10 0x30B3B3B932B3B0BA37B9 PUSH1 0xB1 SHL DUP4 EQ PUSH2 0x1B94 JUMPI JUMPDEST POP PUSH2 0x1AF6 JUMP JUMPDEST PUSH1 0x99 SLOAD SWAP2 POP DUP2 AND DUP4 EQ PUSH2 0x1BB8 JUMPI PUSH1 0x1 PUSH1 0x1 PUSH1 0xA0 SHL SUB NOT AND DUP3 OR PUSH1 0x99 SSTORE PUSH1 0x1 DUP4 PUSH2 0x1B8E JUMP JUMPDEST PUSH1 0x40 MLOAD PUSH3 0x461BCD PUSH1 0xE5 SHL DUP2 MSTORE PUSH1 0x20 PUSH1 0x4 DUP3 ADD MSTORE PUSH1 0x27 PUSH1 0x24 DUP3 ADD MSTORE PUSH32 0x476174657761793A2061676772656761746F72206164647265737320616C7265 PUSH1 0x44 DUP3 ADD MSTORE PUSH7 0x18591E481CD95D PUSH1 0xCA SHL PUSH1 0x64 DUP3 ADD MSTORE PUSH1 0x84 SWAP1 REVERT JUMPDEST CALLVALUE PUSH2 0x188 JUMPI PUSH1 0x0 CALLDATASIZE PUSH1 0x3 NOT ADD SLT PUSH2 0x188 JUMPI PUSH2 0x1C26 PUSH2 0x1DD0 JUMP JUMPDEST PUSH1 0xCD SLOAD PUSH1 0xFF DUP2 AND ISZERO PUSH2 0x1C65 JUMPI PUSH1 0xFF NOT AND PUSH1 0xCD SSTORE PUSH32 0x5DB9EE0A495BF2E6FF9C91A7834C1BA4FDD244A5E8AA4E537BD38AEAE4B073AA PUSH1 0x20 PUSH1 0x40 MLOAD CALLER DUP2 MSTORE LOG1 STOP JUMPDEST PUSH1 0x40 MLOAD PUSH3 0x461BCD PUSH1 0xE5 SHL DUP2 MSTORE PUSH1 0x20 PUSH1 0x4 DUP3 ADD MSTORE PUSH1 0x14 PUSH1 0x24 DUP3 ADD MSTORE PUSH20 0x14185D5CD8589B194E881B9BDD081C185D5CD959 PUSH1 0x62 SHL PUSH1 0x44 DUP3 ADD MSTORE PUSH1 0x64 SWAP1 REVERT JUMPDEST CALLVALUE PUSH2 0x188 JUMPI PUSH1 0x20 CALLDATASIZE PUSH1 0x3 NOT ADD SLT PUSH2 0x188 JUMPI PUSH1 0x20 SWAP1 PUSH1 0x4 CALLDATALOAD PUSH1 0x0 MSTORE PUSH2 0x103 DUP3 MSTORE PUSH1 0xFF PUSH1 0x40 PUSH1 0x0 KECCAK256 SLOAD AND ISZERO ISZERO DUP2 MSTORE RETURN JUMPDEST PUSH1 0x24 CALLDATALOAD SWAP1 PUSH1 0x1 PUSH1 0x1 PUSH1 0xA0 SHL SUB DUP3 AND DUP3 SUB PUSH2 0x188 JUMPI JUMP JUMPDEST PUSH1 0x4 CALLDATALOAD SWAP1 PUSH1 0x1 PUSH1 0x1 PUSH1 0xA0 SHL SUB DUP3 AND DUP3 SUB PUSH2 0x188 JUMPI JUMP JUMPDEST PUSH1 0x64 CALLDATALOAD SWAP1 PUSH1 0x1 PUSH1 0x1 PUSH1 0xA0 SHL SUB DUP3 AND DUP3 SUB PUSH2 0x188 JUMPI JUMP JUMPDEST PUSH1 0x44 CALLDATALOAD SWAP1 PUSH1 0x1 PUSH1 0x1 PUSH1 0xA0 SHL SUB DUP3 AND DUP3 SUB PUSH2 0x188 JUMPI JUMP JUMPDEST PUSH2 0x140 DUP2 ADD SWAP1 DUP2 LT PUSH1 0x1 PUSH1 0x1 PUSH1 0x40 SHL SUB DUP3 GT OR PUSH2 0x880 JUMPI PUSH1 0x40 MSTORE JUMP JUMPDEST PUSH1 0xA0 DUP2 ADD SWAP1 DUP2 LT PUSH1 0x1 PUSH1 0x1 PUSH1 0x40 SHL SUB DUP3 GT OR PUSH2 0x880 JUMPI PUSH1 0x40 MSTORE JUMP JUMPDEST SWAP1 PUSH1 0x1F DUP1 NOT SWAP2 ADD AND DUP2 ADD SWAP1 DUP2 LT PUSH1 0x1 PUSH1 0x1 PUSH1 0x40 SHL SUB DUP3 GT OR PUSH2 0x880 JUMPI PUSH1 0x40 MSTORE JUMP JUMPDEST PUSH1 0x1 PUSH1 0x1 PUSH1 0x60 SHL SUB PUSH1 0xA0 SHL SWAP1 DUP2 PUSH1 0x65 SLOAD AND PUSH1 0x65 SSTORE PUSH1 0x33 SLOAD PUSH1 0x1 DUP1 PUSH1 0xA0 SHL SUB DUP1 SWAP3 AND DUP1 SWAP4 DUP3 AND OR PUSH1 0x33 SSTORE AND PUSH32 0x8BE0079C531659141344CD1FD0A4F28419497F9722A3DAAFE3B4186F6B6457E0 PUSH1 0x0 DUP1 LOG3 JUMP JUMPDEST PUSH1 0x33 SLOAD PUSH1 0x1 PUSH1 0x1 PUSH1 0xA0 SHL SUB AND CALLER SUB PUSH2 0x1DE4 JUMPI JUMP JUMPDEST PUSH1 0x64 PUSH1 0x40 MLOAD PUSH3 0x461BCD PUSH1 0xE5 SHL DUP2 MSTORE PUSH1 0x20 PUSH1 0x4 DUP3 ADD MSTORE PUSH1 0x20 PUSH1 0x24 DUP3 ADD MSTORE PUSH32 0x4F776E61626C653A2063616C6C6572206973206E6F7420746865206F776E6572 PUSH1 0x44 DUP3 ADD MSTORE REVERT JUMPDEST ISZERO PUSH2 0x1E2F JUMPI JUMP JUMPDEST PUSH1 0x40 MLOAD PUSH3 0x461BCD PUSH1 0xE5 SHL DUP2 MSTORE PUSH1 0x20 PUSH1 0x4 DUP3 ADD MSTORE PUSH1 0x2B PUSH1 0x24 DUP3 ADD MSTORE PUSH32 0x496E697469616C697A61626C653A20636F6E7472616374206973206E6F742069 PUSH1 0x44 DUP3 ADD MSTORE PUSH11 0x6E697469616C697A696E67 PUSH1 0xA8 SHL PUSH1 0x64 DUP3 ADD MSTORE PUSH1 0x84 SWAP1 REVERT JUMPDEST PUSH1 0xFF PUSH1 0xCD SLOAD AND PUSH2 0x1E94 JUMPI JUMP JUMPDEST PUSH1 0x40 MLOAD PUSH3 0x461BCD PUSH1 0xE5 SHL DUP2 MSTORE PUSH1 0x20 PUSH1 0x4 DUP3 ADD MSTORE PUSH1 0x10 PUSH1 0x24 DUP3 ADD MSTORE PUSH16 0x14185D5CD8589B194E881C185D5CD959 PUSH1 0x82 SHL PUSH1 0x44 DUP3 ADD MSTORE PUSH1 0x64 SWAP1 REVERT JUMPDEST SWAP2 SWAP1 DUP3 ADD DUP1 SWAP3 GT PUSH2 0xE02 JUMPI JUMP JUMPDEST SWAP1 DUP2 PUSH1 0x20 SWAP2 SUB SLT PUSH2 0x188 JUMPI MLOAD DUP1 ISZERO ISZERO DUP2 SUB PUSH2 0x188 JUMPI SWAP1 JUMP JUMPDEST DUP2 DUP2 MUL SWAP3 SWAP2 DUP2 ISZERO SWAP2 DUP5 DIV EQ OR ISZERO PUSH2 0xE02 JUMPI JUMP JUMPDEST DUP2 ISZERO PUSH2 0x1F0E JUMPI DIV SWAP1 JUMP JUMPDEST PUSH4 0x4E487B71 PUSH1 0xE0 SHL PUSH1 0x0 MSTORE PUSH1 0x12 PUSH1 0x4 MSTORE PUSH1 0x24 PUSH1 0x0 REVERT JUMPDEST ISZERO PUSH2 0x1F2B JUMPI JUMP JUMPDEST PUSH1 0x40 MLOAD PUSH3 0x461BCD PUSH1 0xE5 SHL DUP2 MSTORE PUSH1 0x20 PUSH1 0x4 DUP3 ADD MSTORE PUSH1 0x11 PUSH1 0x24 DUP3 ADD MSTORE PUSH17 0x151BDAD95B939BDD14DD5C1C1BDC9D1959 PUSH1 0x7A SHL PUSH1 0x44 DUP3 ADD MSTORE PUSH1 0x64 SWAP1 REVERT JUMPDEST ISZERO PUSH2 0x1F6B JUMPI JUMP JUMPDEST PUSH1 0x40 MLOAD PUSH3 0x461BCD PUSH1 0xE5 SHL DUP2 MSTORE PUSH1 0x20 PUSH1 0x4 DUP3 ADD MSTORE PUSH1 0xC PUSH1 0x24 DUP3 ADD MSTORE PUSH12 0x416D6F756E7449735A65726F PUSH1 0xA0 SHL PUSH1 0x44 DUP3 ADD MSTORE PUSH1 0x64 SWAP1 REVERT JUMPDEST ISZERO PUSH2 0x1FA6 JUMPI JUMP JUMPDEST PUSH1 0x40 MLOAD PUSH3 0x461BCD PUSH1 0xE5 SHL DUP2 MSTORE PUSH1 0x20 PUSH1 0x4 DUP3 ADD MSTORE PUSH1 0xE PUSH1 0x24 DUP3 ADD MSTORE PUSH14 0x27B7363CA0B3B3B932B3B0BA37B9 PUSH1 0x91 SHL PUSH1 0x44 DUP3 ADD MSTORE PUSH1 0x64 SWAP1 REVERT JUMPDEST ISZERO PUSH2 0x1FE3 JUMPI JUMP JUMPDEST PUSH1 0x40 MLOAD PUSH3 0x461BCD PUSH1 0xE5 SHL DUP2 MSTORE PUSH1 0x20 PUSH1 0x4 DUP3 ADD MSTORE PUSH1 0xE PUSH1 0x24 DUP3 ADD MSTORE PUSH14 0x13DC99195C919D5B199A5B1B1959 PUSH1 0x92 SHL PUSH1 0x44 DUP3 ADD MSTORE PUSH1 0x64 SWAP1 REVERT JUMPDEST ISZERO PUSH2 0x2020 JUMPI JUMP JUMPDEST PUSH1 0x40 MLOAD PUSH3 0x461BCD PUSH1 0xE5 SHL DUP2 MSTORE PUSH1 0x20 PUSH1 0x4 DUP3 ADD MSTORE PUSH1 0xD PUSH1 0x24 DUP3 ADD MSTORE PUSH13 0x13DC99195C9499599D5B991959 PUSH1 0x9A SHL PUSH1 0x44 DUP3 ADD MSTORE PUSH1 0x64 SWAP1 REVERT JUMPDEST SWAP2 SWAP1 DUP3 SUB SWAP2 DUP3 GT PUSH2 0xE02 JUMPI JUMP JUMPDEST PUSH1 0x5 DUP2 LT ISZERO PUSH2 0x2166 JUMPI DUP1 PUSH2 0x2073 JUMPI POP JUMP JUMPDEST PUSH1 0x1 DUP2 SUB PUSH2 0x20C0 JUMPI PUSH1 0x40 MLOAD PUSH3 0x461BCD PUSH1 0xE5 SHL DUP2 MSTORE PUSH1 0x20 PUSH1 0x4 DUP3 ADD MSTORE PUSH1 0x18 PUSH1 0x24 DUP3 ADD MSTORE PUSH32 0x45434453413A20696E76616C6964207369676E61747572650000000000000000 PUSH1 0x44 DUP3 ADD MSTORE PUSH1 0x64 SWAP1 REVERT JUMPDEST PUSH1 0x2 DUP2 SUB PUSH2 0x210D JUMPI PUSH1 0x40 MLOAD PUSH3 0x461BCD PUSH1 0xE5 SHL DUP2 MSTORE PUSH1 0x20 PUSH1 0x4 DUP3 ADD MSTORE PUSH1 0x1F PUSH1 0x24 DUP3 ADD MSTORE PUSH32 0x45434453413A20696E76616C6964207369676E6174757265206C656E67746800 PUSH1 0x44 DUP3 ADD MSTORE PUSH1 0x64 SWAP1 REVERT JUMPDEST PUSH1 0x3 EQ PUSH2 0x2116 JUMPI JUMP JUMPDEST PUSH1 0x40 MLOAD PUSH3 0x461BCD PUSH1 0xE5 SHL DUP2 MSTORE PUSH1 0x20 PUSH1 0x4 DUP3 ADD MSTORE PUSH1 0x22 PUSH1 0x24 DUP3 ADD MSTORE PUSH32 0x45434453413A20696E76616C6964207369676E6174757265202773272076616C PUSH1 0x44 DUP3 ADD MSTORE PUSH2 0x7565 PUSH1 0xF0 SHL PUSH1 0x64 DUP3 ADD MSTORE PUSH1 0x84 SWAP1 REVERT JUMPDEST PUSH4 0x4E487B71 PUSH1 0xE0 SHL PUSH1 0x0 MSTORE PUSH1 0x21 PUSH1 0x4 MSTORE PUSH1 0x24 PUSH1 0x0 REVERT JUMPDEST SWAP1 PUSH1 0x41 DUP2 MLOAD EQ PUSH1 0x0 EQ PUSH2 0x21AA JUMPI PUSH2 0x21A6 SWAP2 PUSH1 0x20 DUP3 ADD MLOAD SWAP1 PUSH1 0x60 PUSH1 0x40 DUP5 ADD MLOAD SWAP4 ADD MLOAD PUSH1 0x0 BYTE SWAP1 PUSH2 0x21B4 JUMP JUMPDEST SWAP1 SWAP2 JUMP JUMPDEST POP POP PUSH1 0x0 SWAP1 PUSH1 0x2 SWAP1 JUMP JUMPDEST SWAP3 SWAP2 SWAP1 PUSH32 0x7FFFFFFFFFFFFFFFFFFFFFFFFFFFFFFF5D576E7357A4501DDFE92F46681B20A0 DUP4 GT PUSH2 0x2237 JUMPI SWAP2 PUSH1 0x80 SWAP5 SWAP4 SWAP2 PUSH1 0xFF PUSH1 0x20 SWAP5 PUSH1 0x40 MLOAD SWAP5 DUP6 MSTORE AND DUP5 DUP5 ADD MSTORE PUSH1 0x40 DUP4 ADD MSTORE PUSH1 0x60 DUP3 ADD MSTORE PUSH1 0x0 SWAP4 DUP5 SWAP2 DUP3 DUP1 MSTORE PUSH1 0x1 GAS STATICCALL ISZERO PUSH2 0x222A JUMPI DUP2 MLOAD PUSH1 0x1 PUSH1 0x1 PUSH1 0xA0 SHL SUB DUP2 AND ISZERO PUSH2 0x2224 JUMPI SWAP2 SWAP1 JUMP JUMPDEST POP PUSH1 0x1 SWAP1 JUMP JUMPDEST POP PUSH1 0x40 MLOAD SWAP1 RETURNDATASIZE SWAP1 DUP3 RETURNDATACOPY RETURNDATASIZE SWAP1 REVERT JUMPDEST POP POP POP POP PUSH1 0x0 SWAP1 PUSH1 0x3 SWAP1 JUMP JUMPDEST PUSH1 0x1 PUSH1 0x1 PUSH1 0xA0 SHL SUB AND PUSH1 0x0 SWAP1 DUP2 MSTORE PUSH1 0x9A PUSH1 0x20 MSTORE PUSH1 0x40 SWAP1 KECCAK256 SLOAD PUSH1 0x1 EQ PUSH2 0x2267 JUMPI PUSH1 0x0 SWAP1 JUMP JUMPDEST PUSH1 0x1 SWAP1 JUMP JUMPDEST ISZERO PUSH2 0x2273 JUMPI JUMP JUMPDEST PUSH1 0x40 MLOAD PUSH3 0x461BCD PUSH1 0xE5 SHL DUP2 MSTORE PUSH1 0x20 PUSH1 0x4 DUP3 ADD MSTORE PUSH1 0x15 PUSH1 0x24 DUP3 ADD MSTORE PUSH21 0x476174657761793A207A65726F2061646472657373 PUSH1 0x58 SHL PUSH1 0x44 DUP3 ADD MSTORE PUSH1 0x64 SWAP1 REVERT INVALID LOG2 PUSH5 0x6970667358 0x22 SLT KECCAK256 0xBF 0xD6 EQ 0x4B DUP9 0xE1 SWAP14 MSTORE8 PUSH26 0x811BA9759B5478AE14720EF07C22D60EE549FA6D3D0C1164736F PUSH13 0x63430008120033000000000000 "},"gasEstimates":{"creation":{"codeDepositCost":"1786800","executionCost":"27227","totalCost":"1814027"},"external":{"acceptOwnership()":"52493","createOrder(address,uint256,uint96,address,uint256,address,string)":"infinite","deposit(address,uint256)":"infinite","getBalance(address,address)":"2997","getFeeDetails()":"4790","getOrderInfoIn(bytes32)":"infinite","getOrderInfoOut(bytes32)":"infinite","initialize()":"infinite","isOrderProcessed(bytes32)":"2328","isTokenSupported(address)":"2647","owner()":"2568","pause()":"29957","paused()":"2402","pendingOwner()":"2744","refundOrder(uint256,bytes32)":"infinite","renounceOwnership()":"52438","settingManagerBool(bytes32,address,uint256)":"26925","settleOrderIn(bytes32,bytes,address,address,address,uint256)":"infinite","settleOrderOut(bytes32,bytes32,address,uint64)":"infinite","transferOwnership(address)":"30735","unpause()":"27588","updateProtocolAddress(bytes32,address)":"28383","updateProtocolFee(uint64)":"27678"},"internal":{"_handler(address,uint256,address,address,uint256)":"infinite"}},"methodIdentifiers":{"acceptOwnership()":"79ba5097","createOrder(address,uint256,uint96,address,uint256,address,string)":"809804f7","deposit(address,uint256)":"47e7ef24","getBalance(address,address)":"d4fac45d","getFeeDetails()":"b810c636","getOrderInfoIn(bytes32)":"9c0fea2c","getOrderInfoOut(bytes32)":"9bb39e13","initialize()":"8129fc1c","isOrderProcessed(bytes32)":"00b727da","isTokenSupported(address)":"75151b63","owner()":"8da5cb5b","pause()":"8456cb59","paused()":"5c975abb","pendingOwner()":"e30c3978","refundOrder(uint256,bytes32)":"47b0f1cd","renounceOwnership()":"715018a6","settingManagerBool(bytes32,address,uint256)":"cd992400","settleOrderIn(bytes32,bytes,address,address,address,uint256)":"b682b667","settleOrderOut(bytes32,bytes32,address,uint64)":"9a06601f","transferOwnership(address)":"f2fde38b","unpause()":"3f4ba83a","updateProtocolAddress(bytes32,address)":"40ebc677","updateProtocolFee(uint64)":"47094e2e"}},"storageLayout":{"storage":[{"astId":246,"contract":"contracts/Gateway.sol:Gateway","label":"_initialized","offset":0,"slot":"0","type":"t_uint8"},{"astId":249,"contract":"contracts/Gateway.sol:Gateway","label":"_initializing","offset":1,"slot":"0","type":"t_bool"},{"astId":916,"contract":"contracts/Gateway.sol:Gateway","label":"__gap","offset":0,"slot":"1","type":"t_array(t_uint256)50_storage"},{"astId":118,"contract":"contracts/Gateway.sol:Gateway","label":"_owner","offset":0,"slot":"51","type":"t_address"},{"astId":238,"contract":"contracts/Gateway.sol:Gateway","label":"__gap","offset":0,"slot":"52","type":"t_array(t_uint256)49_storage"},{"astId":11,"contract":"contracts/Gateway.sol:Gateway","label":"_pendingOwner","offset":0,"slot":"101","type":"t_address"},{"astId":105,"contract":"contracts/Gateway.sol:Gateway","label":"__gap","offset":0,"slot":"102","type":"t_array(t_uint256)49_storage"},{"astId":3457,"contract":"contracts/Gateway.sol:Gateway","label":"MAX_BPS","offset":0,"slot":"151","type":"t_uint256"},{"astId":3459,"contract":"contracts/Gateway.sol:Gateway","label":"protocolFeePercent","offset":0,"slot":"152","type":"t_uint64"},{"astId":3461,"contract":"contracts/Gateway.sol:Gateway","label":"treasuryAddress","offset":8,"slot":"152","type":"t_address"},{"astId":3463,"contract":"contracts/Gateway.sol:Gateway","label":"_aggregatorAddress","offset":0,"slot":"153","type":"t_address"},{"astId":3467,"contract":"contracts/Gateway.sol:Gateway","label":"_isTokenSupported","offset":0,"slot":"154","type":"t_mapping(t_address,t_uint256)"},{"astId":3471,"contract":"contracts/Gateway.sol:Gateway","label":"__gap","offset":0,"slot":"155","type":"t_array(t_uint256)50_storage"},{"astId":430,"contract":"contracts/Gateway.sol:Gateway","label":"_paused","offset":0,"slot":"205","type":"t_bool"},{"astId":535,"contract":"contracts/Gateway.sol:Gateway","label":"__gap","offset":0,"slot":"206","type":"t_array(t_uint256)49_storage"},{"astId":2590,"contract":"contracts/Gateway.sol:Gateway","label":"orderOut","offset":0,"slot":"255","type":"t_mapping(t_bytes32,t_struct(OrderOut)3724_storage)"},{"astId":2595,"contract":"contracts/Gateway.sol:Gateway","label":"orderIn","offset":0,"slot":"256","type":"t_mapping(t_bytes32,t_struct(OrderIn)3735_storage)"},{"astId":2599,"contract":"contracts/Gateway.sol:Gateway","label":"_nonce","offset":0,"slot":"257","type":"t_mapping(t_address,t_uint256)"},{"astId":2605,"contract":"contracts/Gateway.sol:Gateway","label":"balance","offset":0,"slot":"258","type":"t_mapping(t_address,t_mapping(t_address,t_uint256))"},{"astId":2609,"contract":"contracts/Gateway.sol:Gateway","label":"processedOrders","offset":0,"slot":"259","type":"t_mapping(t_bytes32,t_bool)"},{"astId":2613,"contract":"contracts/Gateway.sol:Gateway","label":"__gap","offset":0,"slot":"260","type":"t_array(t_uint256)50_storage"}],"types":{"t_address":{"encoding":"inplace","label":"address","numberOfBytes":"20"},"t_array(t_uint256)49_storage":{"base":"t_uint256","encoding":"inplace","label":"uint256[49]","numberOfBytes":"1568"},"t_array(t_uint256)50_storage":{"base":"t_uint256","encoding":"inplace","label":"uint256[50]","numberOfBytes":"1600"},"t_bool":{"encoding":"inplace","label":"bool","numberOfBytes":"1"},"t_bytes32":{"encoding":"inplace","label":"bytes32","numberOfBytes":"32"},"t_mapping(t_address,t_mapping(t_address,t_uint256))":{"encoding":"mapping","key":"t_address","label":"mapping(address => mapping(address => uint256))","numberOfBytes":"32","value":"t_mapping(t_address,t_uint256)"},"t_mapping(t_address,t_uint256)":{"encoding":"mapping","key":"t_address","label":"mapping(address => uint256)","numberOfBytes":"32","value":"t_uint256"},"t_mapping(t_bytes32,t_bool)":{"encoding":"mapping","key":"t_bytes32","label":"mapping(bytes32 => bool)","numberOfBytes":"32","value":"t_bool"},"t_mapping(t_bytes32,t_struct(OrderIn)3735_storage)":{"encoding":"mapping","key":"t_bytes32","label":"mapping(bytes32 => struct IGateway.OrderIn)","numberOfBytes":"32","value":"t_struct(OrderIn)3735_storage"},"t_mapping(t_bytes32,t_struct(OrderOut)3724_storage)":{"encoding":"mapping","key":"t_bytes32","label":"mapping(bytes32 => struct IGateway.OrderOut)","numberOfBytes":"32","value":"t_struct(OrderOut)3724_storage"},"t_struct(OrderIn)3735_storage":{"encoding":"inplace","label":"struct IGateway.OrderIn","members":[{"astId":3726,"contract":"contracts/Gateway.sol:Gateway","label":"amount","offset":0,"slot":"0","type":"t_uint256"},{"astId":3728,"contract":"contracts/Gateway.sol:Gateway","label":"provider","offset":0,"slot":"1","type":"t_address"},{"astId":3730,"contract":"contracts/Gateway.sol:Gateway","label":"sender","offset":0,"slot":"2","type":"t_address"},{"astId":3732,"contract":"contracts/Gateway.sol:Gateway","label":"token","offset":0,"slot":"3","type":"t_address"},{"astId":3734,"contract":"contracts/Gateway.sol:Gateway","label":"orderId","offset":0,"slot":"4","type":"t_bytes32"}],"numberOfBytes":"160"},"t_struct(OrderOut)3724_storage":{"encoding":"inplace","label":"struct IGateway.OrderOut","members":[{"astId":3705,"contract":"contracts/Gateway.sol:Gateway","label":"sender","offset":0,"slot":"0","type":"t_address"},{"astId":3707,"contract":"contracts/Gateway.sol:Gateway","label":"token","offset":0,"slot":"1","type":"t_address"},{"astId":3709,"contract":"contracts/Gateway.sol:Gateway","label":"senderFeeRecipient","offset":0,"slot":"2","type":"t_address"},{"astId":3711,"contract":"contracts/Gateway.sol:Gateway","label":"senderFee","offset":0,"slot":"3","type":"t_uint256"},{"astId":3713,"contract":"contracts/Gateway.sol:Gateway","label":"protocolFee","offset":0,"slot":"4","type":"t_uint256"},{"astId":3715,"contract":"contracts/Gateway.sol:Gateway","label":"isFulfilled","offset":0,"slot":"5","type":"t_bool"},{"astId":3717,"contract":"contracts/Gateway.sol:Gateway","label":"isRefunded","offset":1,"slot":"5","type":"t_bool"},{"astId":3719,"contract":"contracts/Gateway.sol:Gateway","label":"refundAddress","offset":2,"slot":"5","type":"t_address"},{"astId":3721,"contract":"contracts/Gateway.sol:Gateway","label":"currentBPS","offset":0,"slot":"6","type":"t_uint96"},{"astId":3723,"contract":"contracts/Gateway.sol:Gateway","label":"amount","offset":0,"slot":"7","type":"t_uint256"}],"numberOfBytes":"256"},"t_uint256":{"encoding":"inplace","label":"uint256","numberOfBytes":"32"},"t_uint64":{"encoding":"inplace","label":"uint64","numberOfBytes":"8"},"t_uint8":{"encoding":"inplace","label":"uint8","numberOfBytes":"1"},"t_uint96":{"encoding":"inplace","label":"uint96","numberOfBytes":"12"}}},"userdoc":{"events":{"Deposit(address,address,uint256)":{"notice":"Emitted when a deposit is made by a provider."},"OrderCreated(address,address,uint256,uint256,bytes32,uint256,string)":{"notice":"Emitted when an order is created."},"OrderRefunded(uint256,bytes32)":{"notice":"Emitted when an aggregator refunds a transaction."},"OrderSettledOut(bytes32,bytes32,address,uint96)":{"notice":"Emitted when an order is settled out."},"SenderFeeTransferred(address,uint256)":{"notice":"Emitted when the sender's fee is transferred."}},"kind":"user","methods":{"isOrderProcessed(bytes32)":{"notice":"See {isOrderProcessed-IGateway} "}},"notice":"This contract serves as a gateway for creating orders and managing settlements.","version":1}}}}