{"contracts/GatewaySettingManager.sol":{"GatewaySettingManager":{"abi":[{"anonymous":false,"inputs":[{"indexed":false,"internalType":"uint8","name":"version","type":"uint8"}],"name":"Initialized","type":"event"},{"anonymous":false,"inputs":[{"indexed":true,"internalType":"address","name":"previousOwner","type":"address"},{"indexed":true,"internalType":"address","name":"newOwner","type":"address"}],"name":"OwnershipTransferStarted","type":"event"},{"anonymous":false,"inputs":[{"indexed":true,"internalType":"address","name":"previousOwner","type":"address"},{"indexed":true,"internalType":"address","name":"newOwner","type":"address"}],"name":"OwnershipTransferred","type":"event"},{"anonymous":false,"inputs":[{"indexed":true,"internalType":"bytes32","name":"what","type":"bytes32"},{"indexed":true,"internalType":"address","name":"treasuryAddress","type":"address"}],"name":"ProtocolAddressUpdated","type":"event"},{"anonymous":false,"inputs":[{"indexed":false,"internalType":"uint64","name":"protocolFee","type":"uint64"}],"name":"ProtocolFeeUpdated","type":"event"},{"anonymous":false,"inputs":[{"indexed":true,"internalType":"address","name":"treasuryAddress","type":"address"}],"name":"SetFeeRecipient","type":"event"},{"anonymous":false,"inputs":[{"indexed":true,"internalType":"bytes32","name":"what","type":"bytes32"},{"indexed":true,"internalType":"address","name":"value","type":"address"},{"indexed":false,"internalType":"uint256","name":"status","type":"uint256"}],"name":"SettingManagerBool","type":"event"},{"inputs":[],"name":"acceptOwnership","outputs":[],"stateMutability":"nonpayable","type":"function"},{"inputs":[],"name":"owner","outputs":[{"internalType":"address","name":"","type":"address"}],"stateMutability":"view","type":"function"},{"inputs":[],"name":"pendingOwner","outputs":[{"internalType":"address","name":"","type":"address"}],"stateMutability":"view","type":"function"},{"inputs":[],"name":"renounceOwnership","outputs":[],"stateMutability":"nonpayable","type":"function"},{"inputs":[{"internalType":"bytes32","name":"what","type":"bytes32"},{"internalType":"address","name":"value","type":"address"},{"internalType":"uint256","name":"status","type":"uint256"}],"name":"settingManagerBool","outputs":[],"stateMutability":"nonpayable","type":"function"},{"inputs":[{"internalType":"address","name":"newOwner","type":"address"}],"name":"transferOwnership","outputs":[],"stateMutability":"nonpayable","type":"function"},{"inputs":[{"internalType":"bytes32","name":"what","type":"bytes32"},{"internalType":"address","name":"value","type":"address"}],"name":"updateProtocolAddress","outputs":[],"stateMutability":"nonpayable","type":"function"},{"inputs":[{"internalType":"uint64","name":"_protocolFeePercent","type":"uint64"}],"name":"updateProtocolFee","outputs":[],"stateMutability":"nonpayable","type":"function"}],"devdoc":{"events":{"Initialized(uint8)":{"details":"Triggered when the contract has been initialized or reinitialized."}},"kind":"dev","methods":{"acceptOwnership()":{"details":"The new owner accepts the ownership transfer."},"owner()":{"details":"Returns the address of the current owner."},"pendingOwner()":{"details":"Returns the address of the pending owner."},"renounceOwnership()":{"details":"Leaves the contract without owner. It will not be possible to call `onlyOwner` functions. Can only be called by the current owner. NOTE: Renouncing ownership will leave the contract without an owner, thereby disabling any functionality that is only available to the owner."},"settingManagerBool(bytes32,address,uint256)":{"details":"Sets the boolean value for a specific setting.","params":{"status":"The boolean value to be set. Requirements: - The value must not be a zero address.","value":"The address or value associated with the setting.","what":"The setting to be updated."}},"transferOwnership(address)":{"details":"Starts the ownership transfer of the contract to a new account. Replaces the pending transfer if there is one. Can only be called by the current owner."},"updateProtocolAddress(bytes32,address)":{"details":"Updates a protocol address.","params":{"value":"The new address to be set. Requirements: - The value must not be a zero address.","what":"The address type to be updated (treasury or aggregator)."}},"updateProtocolFee(uint64)":{"details":"Updates the protocol fee percentage.","params":{"_protocolFeePercent":"The new protocol fee percentage to be set."}}},"version":1},"evm":{"bytecode":{"linkReferences":{},"object":"6080806040523461001657610672908161001c8239f35b600080fdfe60406080815260048036101561001457600080fd5b600091823560e01c90816340ebc677146103d157816347094e2e14610361578163715018a6146102f757816379ba50971461022c5781638da5cb5b14610203578163cd99240014610115578163e30c3978146100ec575063f2fde38b1461007a57600080fd5b346100e85760203660031901126100e857356001600160a01b03818116918290036100e4576100a76105a0565b606580546001600160a01b03191683179055603354167f38d16b8cac22d99fc7c124b9cd0de2d3fa1faef420bfe791d8c362d765e227008380a380f35b8280fd5b5080fd5b8390346100e857816003193601126100e85760655490516001600160a01b039091168152602090f35b9050346100e45760603660031901126100e457813590610133610585565b90604435916101406105a0565b6001600160a01b0316936101558515156105f8565b6001831480156101f9575b156101b75750643a37b5b2b760d91b8314610179578480f35b7fcfa976492af7c14a916cc3a239f4c9c75bbd7f5f0e398beb41d892c7eeccae4c91602091858752609a8352818188205551908152a3388080808480f35b6020606492519162461bcd60e51b8352820152601760248201527f476174657761793a20696e76616c6964207374617475730000000000000000006044820152fd5b5060028314610160565b8390346100e857816003193601126100e85760335490516001600160a01b039091168152602090f35b9050346100e457826003193601126100e457606554916001600160a01b039133838516036102a25750506bffffffffffffffffffffffff60a01b8092166065556033549133908316176033553391167f8be0079c531659141344cd1fd0a4f28419497f9722a3daafe3b4186f6b6457e08380a380f35b906020608492519162461bcd60e51b8352820152602960248201527f4f776e61626c6532537465703a2063616c6c6572206973206e6f7420746865206044820152683732bb9037bbb732b960b91b6064820152fd5b833461035e578060031936011261035e576103106105a0565b606580546001600160a01b031990811690915560338054918216905581906001600160a01b03167f8be0079c531659141344cd1fd0a4f28419497f9722a3daafe3b4186f6b6457e08280a380f35b80fd5b919050346100e45760203660031901126100e457359067ffffffffffffffff82168092036100e4577f1ce29a697a4765bd17d91df93ba75b250b629ecf030553ff1f6ab59f15ae6c7b916020916103b66105a0565b8167ffffffffffffffff19609854161760985551908152a180f35b9050346100e457806003193601126100e4578135906103ee610585565b906103f76105a0565b6001600160a01b03828116949092906104118615156105f8565b8667747265617375727960c01b86036104e65750856098549485851c1614610495575068010000000000000000600160e01b031990921691901b68010000000000000000600160e01b03161760985560015b61046b578280f35b7fbbc5b96e57cfecb3dbeeadf92e87f15e58e64fcd75cbe256dcc5d9ef2e51e8a48380a338808280f35b608490602084519162461bcd60e51b8352820152602560248201527f476174657761793a207472656173757279206164647265737320616c726561646044820152641e481cd95d60da1b6064820152fd5b93929091506930b3b3b932b3b0ba37b960b11b8514610508575b505050610463565b60995493509091831685146105325750506001600160a01b03191682176099556001388080610500565b906020608492519162461bcd60e51b8352820152602760248201527f476174657761793a2061676772656761746f72206164647265737320616c726560448201526618591e481cd95d60ca1b6064820152fd5b602435906001600160a01b038216820361059b57565b600080fd5b6033546001600160a01b031633036105b457565b606460405162461bcd60e51b815260206004820152602060248201527f4f776e61626c653a2063616c6c6572206973206e6f7420746865206f776e65726044820152fd5b156105ff57565b60405162461bcd60e51b8152602060048201526015602482015274476174657761793a207a65726f206164647265737360581b6044820152606490fdfea2646970667358221220d7d303c1ed8ef3b4ea0c2bd21f980d0c6c846cbfa3b29b0986087506184b4f7564736f6c63430008120033","opcodes":"PUSH1 0x80 DUP1 PUSH1 0x40 MSTORE CALLVALUE PUSH2 0x16 JUMPI PUSH2 0x672 SWAP1 DUP2 PUSH2 0x1C DUP3 CODECOPY RETURN JUMPDEST PUSH1 0x0 DUP1 REVERT INVALID PUSH1 0x40 PUSH1 0x80 DUP2 MSTORE PUSH1 0x4 DUP1 CALLDATASIZE LT ISZERO PUSH2 0x14 JUMPI PUSH1 0x0 DUP1 REVERT JUMPDEST PUSH1 0x0 SWAP2 DUP3 CALLDATALOAD PUSH1 0xE0 SHR SWAP1 DUP2 PUSH4 0x40EBC677 EQ PUSH2 0x3D1 JUMPI DUP2 PUSH4 0x47094E2E EQ PUSH2 0x361 JUMPI DUP2 PUSH4 0x715018A6 EQ PUSH2 0x2F7 JUMPI DUP2 PUSH4 0x79BA5097 EQ PUSH2 0x22C JUMPI DUP2 PUSH4 0x8DA5CB5B EQ PUSH2 0x203 JUMPI DUP2 PUSH4 0xCD992400 EQ PUSH2 0x115 JUMPI DUP2 PUSH4 0xE30C3978 EQ PUSH2 0xEC JUMPI POP PUSH4 0xF2FDE38B EQ PUSH2 0x7A JUMPI PUSH1 0x0 DUP1 REVERT JUMPDEST CALLVALUE PUSH2 0xE8 JUMPI PUSH1 0x20 CALLDATASIZE PUSH1 0x3 NOT ADD SLT PUSH2 0xE8 JUMPI CALLDATALOAD PUSH1 0x1 PUSH1 0x1 PUSH1 0xA0 SHL SUB DUP2 DUP2 AND SWAP2 DUP3 SWAP1 SUB PUSH2 0xE4 JUMPI PUSH2 0xA7 PUSH2 0x5A0 JUMP JUMPDEST PUSH1 0x65 DUP1 SLOAD PUSH1 0x1 PUSH1 0x1 PUSH1 0xA0 SHL SUB NOT AND DUP4 OR SWAP1 SSTORE PUSH1 0x33 SLOAD AND PUSH32 0x38D16B8CAC22D99FC7C124B9CD0DE2D3FA1FAEF420BFE791D8C362D765E22700 DUP4 DUP1 LOG3 DUP1 RETURN JUMPDEST DUP3 DUP1 REVERT JUMPDEST POP DUP1 REVERT JUMPDEST DUP4 SWAP1 CALLVALUE PUSH2 0xE8 JUMPI DUP2 PUSH1 0x3 NOT CALLDATASIZE ADD SLT PUSH2 0xE8 JUMPI PUSH1 0x65 SLOAD SWAP1 MLOAD PUSH1 0x1 PUSH1 0x1 PUSH1 0xA0 SHL SUB SWAP1 SWAP2 AND DUP2 MSTORE PUSH1 0x20 SWAP1 RETURN JUMPDEST SWAP1 POP CALLVALUE PUSH2 0xE4 JUMPI PUSH1 0x60 CALLDATASIZE PUSH1 0x3 NOT ADD SLT PUSH2 0xE4 JUMPI DUP2 CALLDATALOAD SWAP1 PUSH2 0x133 PUSH2 0x585 JUMP JUMPDEST SWAP1 PUSH1 0x44 CALLDATALOAD SWAP2 PUSH2 0x140 PUSH2 0x5A0 JUMP JUMPDEST PUSH1 0x1 PUSH1 0x1 PUSH1 0xA0 SHL SUB AND SWAP4 PUSH2 0x155 DUP6 ISZERO ISZERO PUSH2 0x5F8 JUMP JUMPDEST PUSH1 0x1 DUP4 EQ DUP1 ISZERO PUSH2 0x1F9 JUMPI JUMPDEST ISZERO PUSH2 0x1B7 JUMPI POP PUSH5 0x3A37B5B2B7 PUSH1 0xD9 SHL DUP4 EQ PUSH2 0x179 JUMPI DUP5 DUP1 RETURN JUMPDEST PUSH32 0xCFA976492AF7C14A916CC3A239F4C9C75BBD7F5F0E398BEB41D892C7EECCAE4C SWAP2 PUSH1 0x20 SWAP2 DUP6 DUP8 MSTORE PUSH1 0x9A DUP4 MSTORE DUP2 DUP2 DUP9 KECCAK256 SSTORE MLOAD SWAP1 DUP2 MSTORE LOG3 CODESIZE DUP1 DUP1 DUP1 DUP5 DUP1 RETURN JUMPDEST PUSH1 0x20 PUSH1 0x64 SWAP3 MLOAD SWAP2 PUSH3 0x461BCD PUSH1 0xE5 SHL DUP4 MSTORE DUP3 ADD MSTORE PUSH1 0x17 PUSH1 0x24 DUP3 ADD MSTORE PUSH32 0x476174657761793A20696E76616C696420737461747573000000000000000000 PUSH1 0x44 DUP3 ADD MSTORE REVERT JUMPDEST POP PUSH1 0x2 DUP4 EQ PUSH2 0x160 JUMP JUMPDEST DUP4 SWAP1 CALLVALUE PUSH2 0xE8 JUMPI DUP2 PUSH1 0x3 NOT CALLDATASIZE ADD SLT PUSH2 0xE8 JUMPI PUSH1 0x33 SLOAD SWAP1 MLOAD PUSH1 0x1 PUSH1 0x1 PUSH1 0xA0 SHL SUB SWAP1 SWAP2 AND DUP2 MSTORE PUSH1 0x20 SWAP1 RETURN JUMPDEST SWAP1 POP CALLVALUE PUSH2 0xE4 JUMPI DUP3 PUSH1 0x3 NOT CALLDATASIZE ADD SLT PUSH2 0xE4 JUMPI PUSH1 0x65 SLOAD SWAP2 PUSH1 0x1 PUSH1 0x1 PUSH1 0xA0 SHL SUB SWAP2 CALLER DUP4 DUP6 AND SUB PUSH2 0x2A2 JUMPI POP POP PUSH12 0xFFFFFFFFFFFFFFFFFFFFFFFF PUSH1 0xA0 SHL DUP1 SWAP3 AND PUSH1 0x65 SSTORE PUSH1 0x33 SLOAD SWAP2 CALLER SWAP1 DUP4 AND OR PUSH1 0x33 SSTORE CALLER SWAP2 AND PUSH32 0x8BE0079C531659141344CD1FD0A4F28419497F9722A3DAAFE3B4186F6B6457E0 DUP4 DUP1 LOG3 DUP1 RETURN JUMPDEST SWAP1 PUSH1 0x20 PUSH1 0x84 SWAP3 MLOAD SWAP2 PUSH3 0x461BCD PUSH1 0xE5 SHL DUP4 MSTORE DUP3 ADD MSTORE PUSH1 0x29 PUSH1 0x24 DUP3 ADD MSTORE PUSH32 0x4F776E61626C6532537465703A2063616C6C6572206973206E6F742074686520 PUSH1 0x44 DUP3 ADD MSTORE PUSH9 0x3732BB9037BBB732B9 PUSH1 0xB9 SHL PUSH1 0x64 DUP3 ADD MSTORE REVERT JUMPDEST DUP4 CALLVALUE PUSH2 0x35E JUMPI DUP1 PUSH1 0x3 NOT CALLDATASIZE ADD SLT PUSH2 0x35E JUMPI PUSH2 0x310 PUSH2 0x5A0 JUMP JUMPDEST PUSH1 0x65 DUP1 SLOAD PUSH1 0x1 PUSH1 0x1 PUSH1 0xA0 SHL SUB NOT SWAP1 DUP2 AND SWAP1 SWAP2 SSTORE PUSH1 0x33 DUP1 SLOAD SWAP2 DUP3 AND SWAP1 SSTORE DUP2 SWAP1 PUSH1 0x1 PUSH1 0x1 PUSH1 0xA0 SHL SUB AND PUSH32 0x8BE0079C531659141344CD1FD0A4F28419497F9722A3DAAFE3B4186F6B6457E0 DUP3 DUP1 LOG3 DUP1 RETURN JUMPDEST DUP1 REVERT JUMPDEST SWAP2 SWAP1 POP CALLVALUE PUSH2 0xE4 JUMPI PUSH1 0x20 CALLDATASIZE PUSH1 0x3 NOT ADD SLT PUSH2 0xE4 JUMPI CALLDATALOAD SWAP1 PUSH8 0xFFFFFFFFFFFFFFFF DUP3 AND DUP1 SWAP3 SUB PUSH2 0xE4 JUMPI PUSH32 0x1CE29A697A4765BD17D91DF93BA75B250B629ECF030553FF1F6AB59F15AE6C7B SWAP2 PUSH1 0x20 SWAP2 PUSH2 0x3B6 PUSH2 0x5A0 JUMP JUMPDEST DUP2 PUSH8 0xFFFFFFFFFFFFFFFF NOT PUSH1 0x98 SLOAD AND OR PUSH1 0x98 SSTORE MLOAD SWAP1 DUP2 MSTORE LOG1 DUP1 RETURN JUMPDEST SWAP1 POP CALLVALUE PUSH2 0xE4 JUMPI DUP1 PUSH1 0x3 NOT CALLDATASIZE ADD SLT PUSH2 0xE4 JUMPI DUP2 CALLDATALOAD SWAP1 PUSH2 0x3EE PUSH2 0x585 JUMP JUMPDEST SWAP1 PUSH2 0x3F7 PUSH2 0x5A0 JUMP JUMPDEST PUSH1 0x1 PUSH1 0x1 PUSH1 0xA0 SHL SUB DUP3 DUP2 AND SWAP5 SWAP1 SWAP3 SWAP1 PUSH2 0x411 DUP7 ISZERO ISZERO PUSH2 0x5F8 JUMP JUMPDEST DUP7 PUSH8 0x7472656173757279 PUSH1 0xC0 SHL DUP7 SUB PUSH2 0x4E6 JUMPI POP DUP6 PUSH1 0x98 SLOAD SWAP5 DUP6 DUP6 SHR AND EQ PUSH2 0x495 JUMPI POP PUSH9 0x10000000000000000 PUSH1 0x1 PUSH1 0xE0 SHL SUB NOT SWAP1 SWAP3 AND SWAP2 SWAP1 SHL PUSH9 0x10000000000000000 PUSH1 0x1 PUSH1 0xE0 SHL SUB AND OR PUSH1 0x98 SSTORE PUSH1 0x1 JUMPDEST PUSH2 0x46B JUMPI DUP3 DUP1 RETURN JUMPDEST PUSH32 0xBBC5B96E57CFECB3DBEEADF92E87F15E58E64FCD75CBE256DCC5D9EF2E51E8A4 DUP4 DUP1 LOG3 CODESIZE DUP1 DUP3 DUP1 RETURN JUMPDEST PUSH1 0x84 SWAP1 PUSH1 0x20 DUP5 MLOAD SWAP2 PUSH3 0x461BCD PUSH1 0xE5 SHL DUP4 MSTORE DUP3 ADD MSTORE PUSH1 0x25 PUSH1 0x24 DUP3 ADD MSTORE PUSH32 0x476174657761793A207472656173757279206164647265737320616C72656164 PUSH1 0x44 DUP3 ADD MSTORE PUSH5 0x1E481CD95D PUSH1 0xDA SHL PUSH1 0x64 DUP3 ADD MSTORE REVERT JUMPDEST SWAP4 SWAP3 SWAP1 SWAP2 POP PUSH10 0x30B3B3B932B3B0BA37B9 PUSH1 0xB1 SHL DUP6 EQ PUSH2 0x508 JUMPI JUMPDEST POP POP POP PUSH2 0x463 JUMP JUMPDEST PUSH1 0x99 SLOAD SWAP4 POP SWAP1 SWAP2 DUP4 AND DUP6 EQ PUSH2 0x532 JUMPI POP POP PUSH1 0x1 PUSH1 0x1 PUSH1 0xA0 SHL SUB NOT AND DUP3 OR PUSH1 0x99 SSTORE PUSH1 0x1 CODESIZE DUP1 DUP1 PUSH2 0x500 JUMP JUMPDEST SWAP1 PUSH1 0x20 PUSH1 0x84 SWAP3 MLOAD SWAP2 PUSH3 0x461BCD PUSH1 0xE5 SHL DUP4 MSTORE DUP3 ADD MSTORE PUSH1 0x27 PUSH1 0x24 DUP3 ADD MSTORE PUSH32 0x476174657761793A2061676772656761746F72206164647265737320616C7265 PUSH1 0x44 DUP3 ADD MSTORE PUSH7 0x18591E481CD95D PUSH1 0xCA SHL PUSH1 0x64 DUP3 ADD MSTORE REVERT JUMPDEST PUSH1 0x24 CALLDATALOAD SWAP1 PUSH1 0x1 PUSH1 0x1 PUSH1 0xA0 SHL SUB DUP3 AND DUP3 SUB PUSH2 0x59B JUMPI JUMP JUMPDEST PUSH1 0x0 DUP1 REVERT JUMPDEST PUSH1 0x33 SLOAD PUSH1 0x1 PUSH1 0x1 PUSH1 0xA0 SHL SUB AND CALLER SUB PUSH2 0x5B4 JUMPI JUMP JUMPDEST PUSH1 0x64 PUSH1 0x40 MLOAD PUSH3 0x461BCD PUSH1 0xE5 SHL DUP2 MSTORE PUSH1 0x20 PUSH1 0x4 DUP3 ADD MSTORE PUSH1 0x20 PUSH1 0x24 DUP3 ADD MSTORE PUSH32 0x4F776E61626C653A2063616C6C6572206973206E6F7420746865206F776E6572 PUSH1 0x44 DUP3 ADD MSTORE REVERT JUMPDEST ISZERO PUSH2 0x5FF JUMPI JUMP JUMPDEST PUSH1 0x40 MLOAD PUSH3 0x461BCD PUSH1 0xE5 SHL DUP2 MSTORE PUSH1 0x20 PUSH1 0x4 DUP3 ADD MSTORE PUSH1 0x15 PUSH1 0x24 DUP3 ADD MSTORE PUSH21 0x476174657761793A207A65726F2061646472657373 PUSH1 0x58 SHL PUSH1 0x44 DUP3 ADD MSTORE PUSH1 0x64 SWAP1 REVERT INVALID LOG2 PUSH5 0x6970667358 0x22 SLT KECCAK256 0xD7 0xD3 SUB 0xC1 0xED DUP15 RETURN 0xB4 0xEA 0xC 0x2B 0xD2 0x1F SWAP9 0xD 0xC PUSH13 0x846CBFA3B29B0986087506184B 0x4F PUSH22 0x64736F6C634300081200330000000000000000000000 "},"gasEstimates":{"creation":{"codeDepositCost":"330000","executionCost":"375","totalCost":"330375"},"external":{"acceptOwnership()":"50228","owner()":"2383","pendingOwner()":"2427","renounceOwnership()":"52341","settingManagerBool(bytes32,address,uint256)":"26651","transferOwnership(address)":"30360","updateProtocolAddress(bytes32,address)":"28399","updateProtocolFee(uint64)":"27628"}},"methodIdentifiers":{"acceptOwnership()":"79ba5097","owner()":"8da5cb5b","pendingOwner()":"e30c3978","renounceOwnership()":"715018a6","settingManagerBool(bytes32,address,uint256)":"cd992400","transferOwnership(address)":"f2fde38b","updateProtocolAddress(bytes32,address)":"40ebc677","updateProtocolFee(uint64)":"47094e2e"}},"storageLayout":{"storage":[{"astId":246,"contract":"contracts/GatewaySettingManager.sol:GatewaySettingManager","label":"_initialized","offset":0,"slot":"0","type":"t_uint8"},{"astId":249,"contract":"contracts/GatewaySettingManager.sol:GatewaySettingManager","label":"_initializing","offset":1,"slot":"0","type":"t_bool"},{"astId":916,"contract":"contracts/GatewaySettingManager.sol:GatewaySettingManager","label":"__gap","offset":0,"slot":"1","type":"t_array(t_uint256)50_storage"},{"astId":118,"contract":"contracts/GatewaySettingManager.sol:GatewaySettingManager","label":"_owner","offset":0,"slot":"51","type":"t_address"},{"astId":238,"contract":"contracts/GatewaySettingManager.sol:GatewaySettingManager","label":"__gap","offset":0,"slot":"52","type":"t_array(t_uint256)49_storage"},{"astId":11,"contract":"contracts/GatewaySettingManager.sol:GatewaySettingManager","label":"_pendingOwner","offset":0,"slot":"101","type":"t_address"},{"astId":105,"contract":"contracts/GatewaySettingManager.sol:GatewaySettingManager","label":"__gap","offset":0,"slot":"102","type":"t_array(t_uint256)49_storage"},{"astId":3457,"contract":"contracts/GatewaySettingManager.sol:GatewaySettingManager","label":"MAX_BPS","offset":0,"slot":"151","type":"t_uint256"},{"astId":3459,"contract":"contracts/GatewaySettingManager.sol:GatewaySettingManager","label":"protocolFeePercent","offset":0,"slot":"152","type":"t_uint64"},{"astId":3461,"contract":"contracts/GatewaySettingManager.sol:GatewaySettingManager","label":"treasuryAddress","offset":8,"slot":"152","type":"t_address"},{"astId":3463,"contract":"contracts/GatewaySettingManager.sol:GatewaySettingManager","label":"_aggregatorAddress","offset":0,"slot":"153","type":"t_address"},{"astId":3467,"contract":"contracts/GatewaySettingManager.sol:GatewaySettingManager","label":"_isTokenSupported","offset":0,"slot":"154","type":"t_mapping(t_address,t_uint256)"},{"astId":3471,"contract":"contracts/GatewaySettingManager.sol:GatewaySettingManager","label":"__gap","offset":0,"slot":"155","type":"t_array(t_uint256)50_storage"}],"types":{"t_address":{"encoding":"inplace","label":"address","numberOfBytes":"20"},"t_array(t_uint256)49_storage":{"base":"t_uint256","encoding":"inplace","label":"uint256[49]","numberOfBytes":"1568"},"t_array(t_uint256)50_storage":{"base":"t_uint256","encoding":"inplace","label":"uint256[50]","numberOfBytes":"1600"},"t_bool":{"encoding":"inplace","label":"bool","numberOfBytes":"1"},"t_mapping(t_address,t_uint256)":{"encoding":"mapping","key":"t_address","label":"mapping(address => uint256)","numberOfBytes":"32","value":"t_uint256"},"t_uint256":{"encoding":"inplace","label":"uint256","numberOfBytes":"32"},"t_uint64":{"encoding":"inplace","label":"uint64","numberOfBytes":"8"},"t_uint8":{"encoding":"inplace","label":"uint8","numberOfBytes":"1"}}},"userdoc":{"kind":"user","methods":{},"version":1}}}}