{"contracts/mocks/MockUSDC.sol":{"MockUSDT":{"abi":[{"inputs":[],"stateMutability":"nonpayable","type":"constructor"},{"anonymous":false,"inputs":[{"indexed":true,"internalType":"address","name":"owner","type":"address"},{"indexed":true,"internalType":"address","name":"spender","type":"address"},{"indexed":false,"internalType":"uint256","name":"value","type":"uint256"}],"name":"Approval","type":"event"},{"anonymous":false,"inputs":[{"indexed":true,"internalType":"address","name":"from","type":"address"},{"indexed":true,"internalType":"address","name":"to","type":"address"},{"indexed":false,"internalType":"uint256","name":"value","type":"uint256"}],"name":"Transfer","type":"event"},{"inputs":[{"internalType":"address","name":"owner","type":"address"},{"internalType":"address","name":"spender","type":"address"}],"name":"allowance","outputs":[{"internalType":"uint256","name":"","type":"uint256"}],"stateMutability":"view","type":"function"},{"inputs":[{"internalType":"address","name":"spender","type":"address"},{"internalType":"uint256","name":"amount","type":"uint256"}],"name":"approve","outputs":[{"internalType":"bool","name":"","type":"bool"}],"stateMutability":"nonpayable","type":"function"},{"inputs":[{"internalType":"address","name":"account","type":"address"}],"name":"balanceOf","outputs":[{"internalType":"uint256","name":"","type":"uint256"}],"stateMutability":"view","type":"function"},{"inputs":[{"internalType":"uint256","name":"_amount","type":"uint256"}],"name":"burn","outputs":[],"stateMutability":"nonpayable","type":"function"},{"inputs":[],"name":"burnAll","outputs":[],"stateMutability":"nonpayable","type":"function"},{"inputs":[],"name":"decimals","outputs":[{"internalType":"uint8","name":"","type":"uint8"}],"stateMutability":"view","type":"function"},{"inputs":[{"internalType":"address","name":"spender","type":"address"},{"internalType":"uint256","name":"subtractedValue","type":"uint256"}],"name":"decreaseAllowance","outputs":[{"internalType":"bool","name":"","type":"bool"}],"stateMutability":"nonpayable","type":"function"},{"inputs":[{"internalType":"address","name":"spender","type":"address"},{"internalType":"uint256","name":"addedValue","type":"uint256"}],"name":"increaseAllowance","outputs":[{"internalType":"bool","name":"","type":"bool"}],"stateMutability":"nonpayable","type":"function"},{"inputs":[{"internalType":"uint256","name":"_amount","type":"uint256"}],"name":"mint","outputs":[],"stateMutability":"nonpayable","type":"function"},{"inputs":[],"name":"name","outputs":[{"internalType":"string","name":"","type":"string"}],"stateMutability":"view","type":"function"},{"inputs":[],"name":"symbol","outputs":[{"internalType":"string","name":"","type":"string"}],"stateMutability":"view","type":"function"},{"inputs":[],"name":"totalSupply","outputs":[{"internalType":"uint256","name":"","type":"uint256"}],"stateMutability":"view","type":"function"},{"inputs":[{"internalType":"address","name":"to","type":"address"},{"internalType":"uint256","name":"amount","type":"uint256"}],"name":"transfer","outputs":[{"internalType":"bool","name":"","type":"bool"}],"stateMutability":"nonpayable","type":"function"},{"inputs":[{"internalType":"address","name":"from","type":"address"},{"internalType":"address","name":"to","type":"address"},{"internalType":"uint256","name":"amount","type":"uint256"}],"name":"transferFrom","outputs":[{"internalType":"bool","name":"","type":"bool"}],"stateMutability":"nonpayable","type":"function"}],"devdoc":{"details":"Mock mintable USDC","events":{"Approval(address,address,uint256)":{"details":"Emitted when the allowance of a `spender` for an `owner` is set by a call to {approve}. `value` is the new allowance."},"Transfer(address,address,uint256)":{"details":"Emitted when `value` tokens are moved from one account (`from`) to another (`to`). Note that `value` may be zero."}},"kind":"dev","methods":{"allowance(address,address)":{"details":"See {IERC20-allowance}."},"approve(address,uint256)":{"details":"See {IERC20-approve}. NOTE: If `amount` is the maximum `uint256`, the allowance is not updated on `transferFrom`. This is semantically equivalent to an infinite approval. Requirements: - `spender` cannot be the zero address."},"balanceOf(address)":{"details":"See {IERC20-balanceOf}."},"decimals()":{"details":"Returns the number of decimals used to get its user representation. For example, if `decimals` equals `2`, a balance of `505` tokens should be displayed to a user as `5.05` (`505 / 10 ** 2`). Tokens usually opt for a value of 18, imitating the relationship between Ether and Wei. This is the default value returned by this function, unless it's overridden. NOTE: This information is only used for _display_ purposes: it in no way affects any of the arithmetic of the contract, including {IERC20-balanceOf} and {IERC20-transfer}."},"decreaseAllowance(address,uint256)":{"details":"Atomically decreases the allowance granted to `spender` by the caller. This is an alternative to {approve} that can be used as a mitigation for problems described in {IERC20-approve}. Emits an {Approval} event indicating the updated allowance. Requirements: - `spender` cannot be the zero address. - `spender` must have allowance for the caller of at least `subtractedValue`."},"increaseAllowance(address,uint256)":{"details":"Atomically increases the allowance granted to `spender` by the caller. This is an alternative to {approve} that can be used as a mitigation for problems described in {IERC20-approve}. Emits an {Approval} event indicating the updated allowance. Requirements: - `spender` cannot be the zero address."},"name()":{"details":"Returns the name of the token."},"symbol()":{"details":"Returns the symbol of the token, usually a shorter version of the name."},"totalSupply()":{"details":"See {IERC20-totalSupply}."},"transfer(address,uint256)":{"details":"See {IERC20-transfer}. Requirements: - `to` cannot be the zero address. - the caller must have a balance of at least `amount`."},"transferFrom(address,address,uint256)":{"details":"See {IERC20-transferFrom}. Emits an {Approval} event indicating the updated allowance. This is not required by the EIP. See the note at the beginning of {ERC20}. NOTE: Does not update the allowance if the current allowance is the maximum `uint256`. Requirements: - `from` and `to` cannot be the zero address. - `from` must have a balance of at least `amount`. - the caller must have allowance for ``from``'s tokens of at least `amount`."}},"version":1},"evm":{"bytecode":{"linkReferences":{},"object":"608034620003c2576040906001600160401b0381830181811183821017620002c257835260088252602090674d6f636b5544534360c01b8284015283519284840184811083821117620002c257855260058452644d5553444360d81b83850152805191808311620002c25760038054936001938486811c96168015620003b7575b87871014620003a1578190601f968781116200034b575b508790878311600114620002e457600092620002d8575b505060001982841b1c191690841b1781555b8551918211620002c25760049586548481811c91168015620002b7575b87821014620002a25785811162000257575b508590858411600114620001ec57938394918492600095620001e0575b50501b92600019911b1c19161783555b3315620001a1575060025469d3c21bcecceda1000000928382018092116200018c57506000917fddf252ad1be2c89b69c2b068fc378daa952ba7f163c4a11628f55a4df523b3ef9160025533835282815284832084815401905584519384523393a351610b1d9081620003c88239f35b601190634e487b7160e01b6000525260246000fd5b90606493519262461bcd60e51b845283015260248201527f45524332303a206d696e7420746f20746865207a65726f2061646472657373006044820152fd5b0151935038806200010c565b9190601f198416928860005284886000209460005b8a898383106200023f575050501062000224575b50505050811b0183556200011c565b01519060f884600019921b161c191690553880808062000215565b86860151895590970196948501948893500162000201565b87600052866000208680860160051c82019289871062000298575b0160051c019085905b8281106200028b575050620000ef565b600081550185906200027b565b9250819262000272565b602288634e487b7160e01b6000525260246000fd5b90607f1690620000dd565b634e487b7160e01b600052604160045260246000fd5b015190503880620000ae565b90869350601f1983169185600052896000209260005b8b8282106200033457505084116200031b575b505050811b018155620000c0565b015160001983861b60f8161c191690553880806200030d565b8385015186558a97909501949384019301620002fa565b90915083600052876000208780850160051c8201928a861062000397575b918891869594930160051c01915b8281106200038757505062000097565b6000815585945088910162000377565b9250819262000369565b634e487b7160e01b600052602260045260246000fd5b95607f169562000080565b600080fdfe608060408181526004918236101561001657600080fd5b600092833560e01c91826306fdde03146105fb57508163095ea7b3146105d157816318160ddd146105b257816323b872dd146104e8578163313ce567146104cc578163395093511461047c57816342966c681461045e57816370a082311461042757816395d89b41146103085781639975038c14610293578163a0712d68146101e2578163a457c2d71461013a57508063a9059cbb1461010a5763dd62ed3e146100bf57600080fd5b34610106578060031936011261010657806020926100db61071c565b6100e3610737565b6001600160a01b0391821683526001865283832091168252845220549051908152f35b5080fd5b503461010657806003193601126101065760209061013361012961071c565b6024359033610770565b5160018152f35b905082346101df57826003193601126101df5761015561071c565b918360243592338152600160205281812060018060a01b038616825260205220549082821061018e5760208561013385850387336108de565b608490602086519162461bcd60e51b8352820152602560248201527f45524332303a2064656372656173656420616c6c6f77616e63652062656c6f77604482015264207a65726f60d81b6064820152fd5b80fd5b9190503461028f57602036600319011261028f57813591331561024d575061020c8260025461074d565b6002553383528260205280832082815401905551908152817fddf252ad1be2c89b69c2b068fc378daa952ba7f163c4a11628f55a4df523b3ef60203393a380f35b6020606492519162461bcd60e51b8352820152601f60248201527f45524332303a206d696e7420746f20746865207a65726f2061646472657373006044820152fd5b8280fd5b90503461028f578260031936011261028f5733835282602052818320549182156102c557836102c284336109e0565b80f35b906020606492519162461bcd60e51b8352820152601960248201527f4d6f636b555344543a204e6f7468696e6720746f206275726e000000000000006044820152fd5b838334610106578160031936011261010657805190828454600181811c9080831692831561041d575b602093848410811461040a578388529081156103ee5750600114610399575b505050829003601f01601f191682019267ffffffffffffffff84118385101761038657508291826103829252826106d3565b0390f35b634e487b7160e01b815260418552602490fd5b8787529192508591837f8a35acfbc15ff81a39ae7d344fd709f28e8600b4aa8c65c6b64bfe7fe36bd19b5b8385106103da5750505050830101858080610350565b8054888601830152930192849082016103c4565b60ff1916878501525050151560051b8401019050858080610350565b634e487b7160e01b895260228a52602489fd5b91607f1691610331565b5050346101065760203660031901126101065760209181906001600160a01b0361044f61071c565b16815280845220549051908152f35b839034610106576020366003190112610106576102c29035336109e0565b5050346101065780600319360112610106576101336020926104c561049f61071c565b338352600186528483206001600160a01b0382168452865291849020546024359061074d565b90336108de565b5050346101065781600319360112610106576020905160128152f35b839150346101065760603660031901126101065761050461071c565b61050c610737565b91846044359460018060a01b038416815260016020528181203382526020522054906000198203610546575b602086610133878787610770565b84821061056f575091839161056460209695610133950333836108de565b919394819350610538565b606490602087519162461bcd60e51b8352820152601d60248201527f45524332303a20696e73756666696369656e7420616c6c6f77616e63650000006044820152fd5b5050346101065781600319360112610106576020906002549051908152f35b5050346101065780600319360112610106576020906101336105f161071c565b60243590336108de565b8490843461028f578260031936011261028f5782600354600181811c908083169283156106c9575b602093848410811461040a578388529081156103ee575060011461067357505050829003601f01601f191682019267ffffffffffffffff84118385101761038657508291826103829252826106d3565b600387529192508591837fc2575a0e9e593c00f959f8c92f12db2869c3395a3b0502d05e2516446f71f85b5b8385106106b55750505050830101858080610350565b80548886018301529301928490820161069f565b91607f1691610623565b6020808252825181830181905290939260005b82811061070857505060409293506000838284010152601f8019910116010190565b8181018601518482016040015285016106e6565b600435906001600160a01b038216820361073257565b600080fd5b602435906001600160a01b038216820361073257565b9190820180921161075a57565b634e487b7160e01b600052601160045260246000fd5b6001600160a01b0390811691821561088b571691821561083a576000828152806020526040812054918083106107e657604082827fddf252ad1be2c89b69c2b068fc378daa952ba7f163c4a11628f55a4df523b3ef958760209652828652038282205586815220818154019055604051908152a3565b60405162461bcd60e51b815260206004820152602660248201527f45524332303a207472616e7366657220616d6f756e7420657863656564732062604482015265616c616e636560d01b6064820152608490fd5b60405162461bcd60e51b815260206004820152602360248201527f45524332303a207472616e7366657220746f20746865207a65726f206164647260448201526265737360e81b6064820152608490fd5b60405162461bcd60e51b815260206004820152602560248201527f45524332303a207472616e736665722066726f6d20746865207a65726f206164604482015264647265737360d81b6064820152608490fd5b6001600160a01b0390811691821561098f571691821561093f5760207f8c5be1e5ebec7d5bd14f71427d1e84f3dd0314c0f7b2291e5b200ac8c7c3b925918360005260018252604060002085600052825280604060002055604051908152a3565b60405162461bcd60e51b815260206004820152602260248201527f45524332303a20617070726f766520746f20746865207a65726f206164647265604482015261737360f01b6064820152608490fd5b60405162461bcd60e51b8152602060048201526024808201527f45524332303a20617070726f76652066726f6d20746865207a65726f206164646044820152637265737360e01b6064820152608490fd5b6001600160a01b03168015610a9857600091818352826020526040832054818110610a4857817fddf252ad1be2c89b69c2b068fc378daa952ba7f163c4a11628f55a4df523b3ef926020928587528684520360408620558060025403600255604051908152a3565b60405162461bcd60e51b815260206004820152602260248201527f45524332303a206275726e20616d6f756e7420657863656564732062616c616e604482015261636560f01b6064820152608490fd5b60405162461bcd60e51b815260206004820152602160248201527f45524332303a206275726e2066726f6d20746865207a65726f206164647265736044820152607360f81b6064820152608490fdfea26469706673582212203061391f52173b4a6e4845443ebeb1ea49658159b0938e7ee97a1a9c26dd151f64736f6c63430008120033","opcodes":"PUSH1 0x80 CALLVALUE PUSH3 0x3C2 JUMPI PUSH1 0x40 SWAP1 PUSH1 0x1 PUSH1 0x1 PUSH1 0x40 SHL SUB DUP2 DUP4 ADD DUP2 DUP2 GT DUP4 DUP3 LT OR PUSH3 0x2C2 JUMPI DUP4 MSTORE PUSH1 0x8 DUP3 MSTORE PUSH1 0x20 SWAP1 PUSH8 0x4D6F636B55445343 PUSH1 0xC0 SHL DUP3 DUP5 ADD MSTORE DUP4 MLOAD SWAP3 DUP5 DUP5 ADD DUP5 DUP2 LT DUP4 DUP3 GT OR PUSH3 0x2C2 JUMPI DUP6 MSTORE PUSH1 0x5 DUP5 MSTORE PUSH5 0x4D55534443 PUSH1 0xD8 SHL DUP4 DUP6 ADD MSTORE DUP1 MLOAD SWAP2 DUP1 DUP4 GT PUSH3 0x2C2 JUMPI PUSH1 0x3 DUP1 SLOAD SWAP4 PUSH1 0x1 SWAP4 DUP5 DUP7 DUP2 SHR SWAP7 AND DUP1 ISZERO PUSH3 0x3B7 JUMPI JUMPDEST DUP8 DUP8 LT EQ PUSH3 0x3A1 JUMPI DUP2 SWAP1 PUSH1 0x1F SWAP7 DUP8 DUP2 GT PUSH3 0x34B JUMPI JUMPDEST POP DUP8 SWAP1 DUP8 DUP4 GT PUSH1 0x1 EQ PUSH3 0x2E4 JUMPI PUSH1 0x0 SWAP3 PUSH3 0x2D8 JUMPI JUMPDEST POP POP PUSH1 0x0 NOT DUP3 DUP5 SHL SHR NOT AND SWAP1 DUP5 SHL OR DUP2 SSTORE JUMPDEST DUP6 MLOAD SWAP2 DUP3 GT PUSH3 0x2C2 JUMPI PUSH1 0x4 SWAP6 DUP7 SLOAD DUP5 DUP2 DUP2 SHR SWAP2 AND DUP1 ISZERO PUSH3 0x2B7 JUMPI JUMPDEST DUP8 DUP3 LT EQ PUSH3 0x2A2 JUMPI DUP6 DUP2 GT PUSH3 0x257 JUMPI JUMPDEST POP DUP6 SWAP1 DUP6 DUP5 GT PUSH1 0x1 EQ PUSH3 0x1EC JUMPI SWAP4 DUP4 SWAP5 SWAP2 DUP5 SWAP3 PUSH1 0x0 SWAP6 PUSH3 0x1E0 JUMPI JUMPDEST POP POP SHL SWAP3 PUSH1 0x0 NOT SWAP2 SHL SHR NOT AND OR DUP4 SSTORE JUMPDEST CALLER ISZERO PUSH3 0x1A1 JUMPI POP PUSH1 0x2 SLOAD PUSH10 0xD3C21BCECCEDA1000000 SWAP3 DUP4 DUP3 ADD DUP1 SWAP3 GT PUSH3 0x18C JUMPI POP PUSH1 0x0 SWAP2 PUSH32 0xDDF252AD1BE2C89B69C2B068FC378DAA952BA7F163C4A11628F55A4DF523B3EF SWAP2 PUSH1 0x2 SSTORE CALLER DUP4 MSTORE DUP3 DUP2 MSTORE DUP5 DUP4 KECCAK256 DUP5 DUP2 SLOAD ADD SWAP1 SSTORE DUP5 MLOAD SWAP4 DUP5 MSTORE CALLER SWAP4 LOG3 MLOAD PUSH2 0xB1D SWAP1 DUP2 PUSH3 0x3C8 DUP3 CODECOPY RETURN JUMPDEST PUSH1 0x11 SWAP1 PUSH4 0x4E487B71 PUSH1 0xE0 SHL PUSH1 0x0 MSTORE MSTORE PUSH1 0x24 PUSH1 0x0 REVERT JUMPDEST SWAP1 PUSH1 0x64 SWAP4 MLOAD SWAP3 PUSH3 0x461BCD PUSH1 0xE5 SHL DUP5 MSTORE DUP4 ADD MSTORE PUSH1 0x24 DUP3 ADD MSTORE PUSH32 0x45524332303A206D696E7420746F20746865207A65726F206164647265737300 PUSH1 0x44 DUP3 ADD MSTORE REVERT JUMPDEST ADD MLOAD SWAP4 POP CODESIZE DUP1 PUSH3 0x10C JUMP JUMPDEST SWAP2 SWAP1 PUSH1 0x1F NOT DUP5 AND SWAP3 DUP9 PUSH1 0x0 MSTORE DUP5 DUP9 PUSH1 0x0 KECCAK256 SWAP5 PUSH1 0x0 JUMPDEST DUP11 DUP10 DUP4 DUP4 LT PUSH3 0x23F JUMPI POP POP POP LT PUSH3 0x224 JUMPI JUMPDEST POP POP POP POP DUP2 SHL ADD DUP4 SSTORE PUSH3 0x11C JUMP JUMPDEST ADD MLOAD SWAP1 PUSH1 0xF8 DUP5 PUSH1 0x0 NOT SWAP3 SHL AND SHR NOT AND SWAP1 SSTORE CODESIZE DUP1 DUP1 DUP1 PUSH3 0x215 JUMP JUMPDEST DUP7 DUP7 ADD MLOAD DUP10 SSTORE SWAP1 SWAP8 ADD SWAP7 SWAP5 DUP6 ADD SWAP5 DUP9 SWAP4 POP ADD PUSH3 0x201 JUMP JUMPDEST DUP8 PUSH1 0x0 MSTORE DUP7 PUSH1 0x0 KECCAK256 DUP7 DUP1 DUP7 ADD PUSH1 0x5 SHR DUP3 ADD SWAP3 DUP10 DUP8 LT PUSH3 0x298 JUMPI JUMPDEST ADD PUSH1 0x5 SHR ADD SWAP1 DUP6 SWAP1 JUMPDEST DUP3 DUP2 LT PUSH3 0x28B JUMPI POP POP PUSH3 0xEF JUMP JUMPDEST PUSH1 0x0 DUP2 SSTORE ADD DUP6 SWAP1 PUSH3 0x27B JUMP JUMPDEST SWAP3 POP DUP2 SWAP3 PUSH3 0x272 JUMP JUMPDEST PUSH1 0x22 DUP9 PUSH4 0x4E487B71 PUSH1 0xE0 SHL PUSH1 0x0 MSTORE MSTORE PUSH1 0x24 PUSH1 0x0 REVERT JUMPDEST SWAP1 PUSH1 0x7F AND SWAP1 PUSH3 0xDD JUMP JUMPDEST PUSH4 0x4E487B71 PUSH1 0xE0 SHL PUSH1 0x0 MSTORE PUSH1 0x41 PUSH1 0x4 MSTORE PUSH1 0x24 PUSH1 0x0 REVERT JUMPDEST ADD MLOAD SWAP1 POP CODESIZE DUP1 PUSH3 0xAE JUMP JUMPDEST SWAP1 DUP7 SWAP4 POP PUSH1 0x1F NOT DUP4 AND SWAP2 DUP6 PUSH1 0x0 MSTORE DUP10 PUSH1 0x0 KECCAK256 SWAP3 PUSH1 0x0 JUMPDEST DUP12 DUP3 DUP3 LT PUSH3 0x334 JUMPI POP POP DUP5 GT PUSH3 0x31B JUMPI JUMPDEST POP POP POP DUP2 SHL ADD DUP2 SSTORE PUSH3 0xC0 JUMP JUMPDEST ADD MLOAD PUSH1 0x0 NOT DUP4 DUP7 SHL PUSH1 0xF8 AND SHR NOT AND SWAP1 SSTORE CODESIZE DUP1 DUP1 PUSH3 0x30D JUMP JUMPDEST DUP4 DUP6 ADD MLOAD DUP7 SSTORE DUP11 SWAP8 SWAP1 SWAP6 ADD SWAP5 SWAP4 DUP5 ADD SWAP4 ADD PUSH3 0x2FA JUMP JUMPDEST SWAP1 SWAP2 POP DUP4 PUSH1 0x0 MSTORE DUP8 PUSH1 0x0 KECCAK256 DUP8 DUP1 DUP6 ADD PUSH1 0x5 SHR DUP3 ADD SWAP3 DUP11 DUP7 LT PUSH3 0x397 JUMPI JUMPDEST SWAP2 DUP9 SWAP2 DUP7 SWAP6 SWAP5 SWAP4 ADD PUSH1 0x5 SHR ADD SWAP2 JUMPDEST DUP3 DUP2 LT PUSH3 0x387 JUMPI POP POP PUSH3 0x97 JUMP JUMPDEST PUSH1 0x0 DUP2 SSTORE DUP6 SWAP5 POP DUP9 SWAP2 ADD PUSH3 0x377 JUMP JUMPDEST SWAP3 POP DUP2 SWAP3 PUSH3 0x369 JUMP JUMPDEST PUSH4 0x4E487B71 PUSH1 0xE0 SHL PUSH1 0x0 MSTORE PUSH1 0x22 PUSH1 0x4 MSTORE PUSH1 0x24 PUSH1 0x0 REVERT JUMPDEST SWAP6 PUSH1 0x7F AND SWAP6 PUSH3 0x80 JUMP JUMPDEST PUSH1 0x0 DUP1 REVERT INVALID PUSH1 0x80 PUSH1 0x40 DUP2 DUP2 MSTORE PUSH1 0x4 SWAP2 DUP3 CALLDATASIZE LT ISZERO PUSH2 0x16 JUMPI PUSH1 0x0 DUP1 REVERT JUMPDEST PUSH1 0x0 SWAP3 DUP4 CALLDATALOAD PUSH1 0xE0 SHR SWAP2 DUP3 PUSH4 0x6FDDE03 EQ PUSH2 0x5FB JUMPI POP DUP2 PUSH4 0x95EA7B3 EQ PUSH2 0x5D1 JUMPI DUP2 PUSH4 0x18160DDD EQ PUSH2 0x5B2 JUMPI DUP2 PUSH4 0x23B872DD EQ PUSH2 0x4E8 JUMPI DUP2 PUSH4 0x313CE567 EQ PUSH2 0x4CC JUMPI DUP2 PUSH4 0x39509351 EQ PUSH2 0x47C JUMPI DUP2 PUSH4 0x42966C68 EQ PUSH2 0x45E JUMPI DUP2 PUSH4 0x70A08231 EQ PUSH2 0x427 JUMPI DUP2 PUSH4 0x95D89B41 EQ PUSH2 0x308 JUMPI DUP2 PUSH4 0x9975038C EQ PUSH2 0x293 JUMPI DUP2 PUSH4 0xA0712D68 EQ PUSH2 0x1E2 JUMPI DUP2 PUSH4 0xA457C2D7 EQ PUSH2 0x13A JUMPI POP DUP1 PUSH4 0xA9059CBB EQ PUSH2 0x10A JUMPI PUSH4 0xDD62ED3E EQ PUSH2 0xBF JUMPI PUSH1 0x0 DUP1 REVERT JUMPDEST CALLVALUE PUSH2 0x106 JUMPI DUP1 PUSH1 0x3 NOT CALLDATASIZE ADD SLT PUSH2 0x106 JUMPI DUP1 PUSH1 0x20 SWAP3 PUSH2 0xDB PUSH2 0x71C JUMP JUMPDEST PUSH2 0xE3 PUSH2 0x737 JUMP JUMPDEST PUSH1 0x1 PUSH1 0x1 PUSH1 0xA0 SHL SUB SWAP2 DUP3 AND DUP4 MSTORE PUSH1 0x1 DUP7 MSTORE DUP4 DUP4 KECCAK256 SWAP2 AND DUP3 MSTORE DUP5 MSTORE KECCAK256 SLOAD SWAP1 MLOAD SWAP1 DUP2 MSTORE RETURN JUMPDEST POP DUP1 REVERT JUMPDEST POP CALLVALUE PUSH2 0x106 JUMPI DUP1 PUSH1 0x3 NOT CALLDATASIZE ADD SLT PUSH2 0x106 JUMPI PUSH1 0x20 SWAP1 PUSH2 0x133 PUSH2 0x129 PUSH2 0x71C JUMP JUMPDEST PUSH1 0x24 CALLDATALOAD SWAP1 CALLER PUSH2 0x770 JUMP JUMPDEST MLOAD PUSH1 0x1 DUP2 MSTORE RETURN JUMPDEST SWAP1 POP DUP3 CALLVALUE PUSH2 0x1DF JUMPI DUP3 PUSH1 0x3 NOT CALLDATASIZE ADD SLT PUSH2 0x1DF JUMPI PUSH2 0x155 PUSH2 0x71C JUMP JUMPDEST SWAP2 DUP4 PUSH1 0x24 CALLDATALOAD SWAP3 CALLER DUP2 MSTORE PUSH1 0x1 PUSH1 0x20 MSTORE DUP2 DUP2 KECCAK256 PUSH1 0x1 DUP1 PUSH1 0xA0 SHL SUB DUP7 AND DUP3 MSTORE PUSH1 0x20 MSTORE KECCAK256 SLOAD SWAP1 DUP3 DUP3 LT PUSH2 0x18E JUMPI PUSH1 0x20 DUP6 PUSH2 0x133 DUP6 DUP6 SUB DUP8 CALLER PUSH2 0x8DE JUMP JUMPDEST PUSH1 0x84 SWAP1 PUSH1 0x20 DUP7 MLOAD SWAP2 PUSH3 0x461BCD PUSH1 0xE5 SHL DUP4 MSTORE DUP3 ADD MSTORE PUSH1 0x25 PUSH1 0x24 DUP3 ADD MSTORE PUSH32 0x45524332303A2064656372656173656420616C6C6F77616E63652062656C6F77 PUSH1 0x44 DUP3 ADD MSTORE PUSH5 0x207A65726F PUSH1 0xD8 SHL PUSH1 0x64 DUP3 ADD MSTORE REVERT JUMPDEST DUP1 REVERT JUMPDEST SWAP2 SWAP1 POP CALLVALUE PUSH2 0x28F JUMPI PUSH1 0x20 CALLDATASIZE PUSH1 0x3 NOT ADD SLT PUSH2 0x28F JUMPI DUP2 CALLDATALOAD SWAP2 CALLER ISZERO PUSH2 0x24D JUMPI POP PUSH2 0x20C DUP3 PUSH1 0x2 SLOAD PUSH2 0x74D JUMP JUMPDEST PUSH1 0x2 SSTORE CALLER DUP4 MSTORE DUP3 PUSH1 0x20 MSTORE DUP1 DUP4 KECCAK256 DUP3 DUP2 SLOAD ADD SWAP1 SSTORE MLOAD SWAP1 DUP2 MSTORE DUP2 PUSH32 0xDDF252AD1BE2C89B69C2B068FC378DAA952BA7F163C4A11628F55A4DF523B3EF PUSH1 0x20 CALLER SWAP4 LOG3 DUP1 RETURN JUMPDEST PUSH1 0x20 PUSH1 0x64 SWAP3 MLOAD SWAP2 PUSH3 0x461BCD PUSH1 0xE5 SHL DUP4 MSTORE DUP3 ADD MSTORE PUSH1 0x1F PUSH1 0x24 DUP3 ADD MSTORE PUSH32 0x45524332303A206D696E7420746F20746865207A65726F206164647265737300 PUSH1 0x44 DUP3 ADD MSTORE REVERT JUMPDEST DUP3 DUP1 REVERT JUMPDEST SWAP1 POP CALLVALUE PUSH2 0x28F JUMPI DUP3 PUSH1 0x3 NOT CALLDATASIZE ADD SLT PUSH2 0x28F JUMPI CALLER DUP4 MSTORE DUP3 PUSH1 0x20 MSTORE DUP2 DUP4 KECCAK256 SLOAD SWAP2 DUP3 ISZERO PUSH2 0x2C5 JUMPI DUP4 PUSH2 0x2C2 DUP5 CALLER PUSH2 0x9E0 JUMP JUMPDEST DUP1 RETURN JUMPDEST SWAP1 PUSH1 0x20 PUSH1 0x64 SWAP3 MLOAD SWAP2 PUSH3 0x461BCD PUSH1 0xE5 SHL DUP4 MSTORE DUP3 ADD MSTORE PUSH1 0x19 PUSH1 0x24 DUP3 ADD MSTORE PUSH32 0x4D6F636B555344543A204E6F7468696E6720746F206275726E00000000000000 PUSH1 0x44 DUP3 ADD MSTORE REVERT JUMPDEST DUP4 DUP4 CALLVALUE PUSH2 0x106 JUMPI DUP2 PUSH1 0x3 NOT CALLDATASIZE ADD SLT PUSH2 0x106 JUMPI DUP1 MLOAD SWAP1 DUP3 DUP5 SLOAD PUSH1 0x1 DUP2 DUP2 SHR SWAP1 DUP1 DUP4 AND SWAP3 DUP4 ISZERO PUSH2 0x41D JUMPI JUMPDEST PUSH1 0x20 SWAP4 DUP5 DUP5 LT DUP2 EQ PUSH2 0x40A JUMPI DUP4 DUP9 MSTORE SWAP1 DUP2 ISZERO PUSH2 0x3EE JUMPI POP PUSH1 0x1 EQ PUSH2 0x399 JUMPI JUMPDEST POP POP POP DUP3 SWAP1 SUB PUSH1 0x1F ADD PUSH1 0x1F NOT AND DUP3 ADD SWAP3 PUSH8 0xFFFFFFFFFFFFFFFF DUP5 GT DUP4 DUP6 LT OR PUSH2 0x386 JUMPI POP DUP3 SWAP2 DUP3 PUSH2 0x382 SWAP3 MSTORE DUP3 PUSH2 0x6D3 JUMP JUMPDEST SUB SWAP1 RETURN JUMPDEST PUSH4 0x4E487B71 PUSH1 0xE0 SHL DUP2 MSTORE PUSH1 0x41 DUP6 MSTORE PUSH1 0x24 SWAP1 REVERT JUMPDEST DUP8 DUP8 MSTORE SWAP2 SWAP3 POP DUP6 SWAP2 DUP4 PUSH32 0x8A35ACFBC15FF81A39AE7D344FD709F28E8600B4AA8C65C6B64BFE7FE36BD19B JUMPDEST DUP4 DUP6 LT PUSH2 0x3DA JUMPI POP POP POP POP DUP4 ADD ADD DUP6 DUP1 DUP1 PUSH2 0x350 JUMP JUMPDEST DUP1 SLOAD DUP9 DUP7 ADD DUP4 ADD MSTORE SWAP4 ADD SWAP3 DUP5 SWAP1 DUP3 ADD PUSH2 0x3C4 JUMP JUMPDEST PUSH1 0xFF NOT AND DUP8 DUP6 ADD MSTORE POP POP ISZERO ISZERO PUSH1 0x5 SHL DUP5 ADD ADD SWAP1 POP DUP6 DUP1 DUP1 PUSH2 0x350 JUMP JUMPDEST PUSH4 0x4E487B71 PUSH1 0xE0 SHL DUP10 MSTORE PUSH1 0x22 DUP11 MSTORE PUSH1 0x24 DUP10 REVERT JUMPDEST SWAP2 PUSH1 0x7F AND SWAP2 PUSH2 0x331 JUMP JUMPDEST POP POP CALLVALUE PUSH2 0x106 JUMPI PUSH1 0x20 CALLDATASIZE PUSH1 0x3 NOT ADD SLT PUSH2 0x106 JUMPI PUSH1 0x20 SWAP2 DUP2 SWAP1 PUSH1 0x1 PUSH1 0x1 PUSH1 0xA0 SHL SUB PUSH2 0x44F PUSH2 0x71C JUMP JUMPDEST AND DUP2 MSTORE DUP1 DUP5 MSTORE KECCAK256 SLOAD SWAP1 MLOAD SWAP1 DUP2 MSTORE RETURN JUMPDEST DUP4 SWAP1 CALLVALUE PUSH2 0x106 JUMPI PUSH1 0x20 CALLDATASIZE PUSH1 0x3 NOT ADD SLT PUSH2 0x106 JUMPI PUSH2 0x2C2 SWAP1 CALLDATALOAD CALLER PUSH2 0x9E0 JUMP JUMPDEST POP POP CALLVALUE PUSH2 0x106 JUMPI DUP1 PUSH1 0x3 NOT CALLDATASIZE ADD SLT PUSH2 0x106 JUMPI PUSH2 0x133 PUSH1 0x20 SWAP3 PUSH2 0x4C5 PUSH2 0x49F PUSH2 0x71C JUMP JUMPDEST CALLER DUP4 MSTORE PUSH1 0x1 DUP7 MSTORE DUP5 DUP4 KECCAK256 PUSH1 0x1 PUSH1 0x1 PUSH1 0xA0 SHL SUB DUP3 AND DUP5 MSTORE DUP7 MSTORE SWAP2 DUP5 SWAP1 KECCAK256 SLOAD PUSH1 0x24 CALLDATALOAD SWAP1 PUSH2 0x74D JUMP JUMPDEST SWAP1 CALLER PUSH2 0x8DE JUMP JUMPDEST POP POP CALLVALUE PUSH2 0x106 JUMPI DUP2 PUSH1 0x3 NOT CALLDATASIZE ADD SLT PUSH2 0x106 JUMPI PUSH1 0x20 SWAP1 MLOAD PUSH1 0x12 DUP2 MSTORE RETURN JUMPDEST DUP4 SWAP2 POP CALLVALUE PUSH2 0x106 JUMPI PUSH1 0x60 CALLDATASIZE PUSH1 0x3 NOT ADD SLT PUSH2 0x106 JUMPI PUSH2 0x504 PUSH2 0x71C JUMP JUMPDEST PUSH2 0x50C PUSH2 0x737 JUMP JUMPDEST SWAP2 DUP5 PUSH1 0x44 CALLDATALOAD SWAP5 PUSH1 0x1 DUP1 PUSH1 0xA0 SHL SUB DUP5 AND DUP2 MSTORE PUSH1 0x1 PUSH1 0x20 MSTORE DUP2 DUP2 KECCAK256 CALLER DUP3 MSTORE PUSH1 0x20 MSTORE KECCAK256 SLOAD SWAP1 PUSH1 0x0 NOT DUP3 SUB PUSH2 0x546 JUMPI JUMPDEST PUSH1 0x20 DUP7 PUSH2 0x133 DUP8 DUP8 DUP8 PUSH2 0x770 JUMP JUMPDEST DUP5 DUP3 LT PUSH2 0x56F JUMPI POP SWAP2 DUP4 SWAP2 PUSH2 0x564 PUSH1 0x20 SWAP7 SWAP6 PUSH2 0x133 SWAP6 SUB CALLER DUP4 PUSH2 0x8DE JUMP JUMPDEST SWAP2 SWAP4 SWAP5 DUP2 SWAP4 POP PUSH2 0x538 JUMP JUMPDEST PUSH1 0x64 SWAP1 PUSH1 0x20 DUP8 MLOAD SWAP2 PUSH3 0x461BCD PUSH1 0xE5 SHL DUP4 MSTORE DUP3 ADD MSTORE PUSH1 0x1D PUSH1 0x24 DUP3 ADD MSTORE PUSH32 0x45524332303A20696E73756666696369656E7420616C6C6F77616E6365000000 PUSH1 0x44 DUP3 ADD MSTORE REVERT JUMPDEST POP POP CALLVALUE PUSH2 0x106 JUMPI DUP2 PUSH1 0x3 NOT CALLDATASIZE ADD SLT PUSH2 0x106 JUMPI PUSH1 0x20 SWAP1 PUSH1 0x2 SLOAD SWAP1 MLOAD SWAP1 DUP2 MSTORE RETURN JUMPDEST POP POP CALLVALUE PUSH2 0x106 JUMPI DUP1 PUSH1 0x3 NOT CALLDATASIZE ADD SLT PUSH2 0x106 JUMPI PUSH1 0x20 SWAP1 PUSH2 0x133 PUSH2 0x5F1 PUSH2 0x71C JUMP JUMPDEST PUSH1 0x24 CALLDATALOAD SWAP1 CALLER PUSH2 0x8DE JUMP JUMPDEST DUP5 SWAP1 DUP5 CALLVALUE PUSH2 0x28F JUMPI DUP3 PUSH1 0x3 NOT CALLDATASIZE ADD SLT PUSH2 0x28F JUMPI DUP3 PUSH1 0x3 SLOAD PUSH1 0x1 DUP2 DUP2 SHR SWAP1 DUP1 DUP4 AND SWAP3 DUP4 ISZERO PUSH2 0x6C9 JUMPI JUMPDEST PUSH1 0x20 SWAP4 DUP5 DUP5 LT DUP2 EQ PUSH2 0x40A JUMPI DUP4 DUP9 MSTORE SWAP1 DUP2 ISZERO PUSH2 0x3EE JUMPI POP PUSH1 0x1 EQ PUSH2 0x673 JUMPI POP POP POP DUP3 SWAP1 SUB PUSH1 0x1F ADD PUSH1 0x1F NOT AND DUP3 ADD SWAP3 PUSH8 0xFFFFFFFFFFFFFFFF DUP5 GT DUP4 DUP6 LT OR PUSH2 0x386 JUMPI POP DUP3 SWAP2 DUP3 PUSH2 0x382 SWAP3 MSTORE DUP3 PUSH2 0x6D3 JUMP JUMPDEST PUSH1 0x3 DUP8 MSTORE SWAP2 SWAP3 POP DUP6 SWAP2 DUP4 PUSH32 0xC2575A0E9E593C00F959F8C92F12DB2869C3395A3B0502D05E2516446F71F85B JUMPDEST DUP4 DUP6 LT PUSH2 0x6B5 JUMPI POP POP POP POP DUP4 ADD ADD DUP6 DUP1 DUP1 PUSH2 0x350 JUMP JUMPDEST DUP1 SLOAD DUP9 DUP7 ADD DUP4 ADD MSTORE SWAP4 ADD SWAP3 DUP5 SWAP1 DUP3 ADD PUSH2 0x69F JUMP JUMPDEST SWAP2 PUSH1 0x7F AND SWAP2 PUSH2 0x623 JUMP JUMPDEST PUSH1 0x20 DUP1 DUP3 MSTORE DUP3 MLOAD DUP2 DUP4 ADD DUP2 SWAP1 MSTORE SWAP1 SWAP4 SWAP3 PUSH1 0x0 JUMPDEST DUP3 DUP2 LT PUSH2 0x708 JUMPI POP POP PUSH1 0x40 SWAP3 SWAP4 POP PUSH1 0x0 DUP4 DUP3 DUP5 ADD ADD MSTORE PUSH1 0x1F DUP1 NOT SWAP2 ADD AND ADD ADD SWAP1 JUMP JUMPDEST DUP2 DUP2 ADD DUP7 ADD MLOAD DUP5 DUP3 ADD PUSH1 0x40 ADD MSTORE DUP6 ADD PUSH2 0x6E6 JUMP JUMPDEST PUSH1 0x4 CALLDATALOAD SWAP1 PUSH1 0x1 PUSH1 0x1 PUSH1 0xA0 SHL SUB DUP3 AND DUP3 SUB PUSH2 0x732 JUMPI JUMP JUMPDEST PUSH1 0x0 DUP1 REVERT JUMPDEST PUSH1 0x24 CALLDATALOAD SWAP1 PUSH1 0x1 PUSH1 0x1 PUSH1 0xA0 SHL SUB DUP3 AND DUP3 SUB PUSH2 0x732 JUMPI JUMP JUMPDEST SWAP2 SWAP1 DUP3 ADD DUP1 SWAP3 GT PUSH2 0x75A JUMPI JUMP JUMPDEST PUSH4 0x4E487B71 PUSH1 0xE0 SHL PUSH1 0x0 MSTORE PUSH1 0x11 PUSH1 0x4 MSTORE PUSH1 0x24 PUSH1 0x0 REVERT JUMPDEST PUSH1 0x1 PUSH1 0x1 PUSH1 0xA0 SHL SUB SWAP1 DUP2 AND SWAP2 DUP3 ISZERO PUSH2 0x88B JUMPI AND SWAP2 DUP3 ISZERO PUSH2 0x83A JUMPI PUSH1 0x0 DUP3 DUP2 MSTORE DUP1 PUSH1 0x20 MSTORE PUSH1 0x40 DUP2 KECCAK256 SLOAD SWAP2 DUP1 DUP4 LT PUSH2 0x7E6 JUMPI PUSH1 0x40 DUP3 DUP3 PUSH32 0xDDF252AD1BE2C89B69C2B068FC378DAA952BA7F163C4A11628F55A4DF523B3EF SWAP6 DUP8 PUSH1 0x20 SWAP7 MSTORE DUP3 DUP7 MSTORE SUB DUP3 DUP3 KECCAK256 SSTORE DUP7 DUP2 MSTORE KECCAK256 DUP2 DUP2 SLOAD ADD SWAP1 SSTORE PUSH1 0x40 MLOAD SWAP1 DUP2 MSTORE LOG3 JUMP JUMPDEST PUSH1 0x40 MLOAD PUSH3 0x461BCD PUSH1 0xE5 SHL DUP2 MSTORE PUSH1 0x20 PUSH1 0x4 DUP3 ADD MSTORE PUSH1 0x26 PUSH1 0x24 DUP3 ADD MSTORE PUSH32 0x45524332303A207472616E7366657220616D6F756E7420657863656564732062 PUSH1 0x44 DUP3 ADD MSTORE PUSH6 0x616C616E6365 PUSH1 0xD0 SHL PUSH1 0x64 DUP3 ADD MSTORE PUSH1 0x84 SWAP1 REVERT JUMPDEST PUSH1 0x40 MLOAD PUSH3 0x461BCD PUSH1 0xE5 SHL DUP2 MSTORE PUSH1 0x20 PUSH1 0x4 DUP3 ADD MSTORE PUSH1 0x23 PUSH1 0x24 DUP3 ADD MSTORE PUSH32 0x45524332303A207472616E7366657220746F20746865207A65726F2061646472 PUSH1 0x44 DUP3 ADD MSTORE PUSH3 0x657373 PUSH1 0xE8 SHL PUSH1 0x64 DUP3 ADD MSTORE PUSH1 0x84 SWAP1 REVERT JUMPDEST PUSH1 0x40 MLOAD PUSH3 0x461BCD PUSH1 0xE5 SHL DUP2 MSTORE PUSH1 0x20 PUSH1 0x4 DUP3 ADD MSTORE PUSH1 0x25 PUSH1 0x24 DUP3 ADD MSTORE PUSH32 0x45524332303A207472616E736665722066726F6D20746865207A65726F206164 PUSH1 0x44 DUP3 ADD MSTORE PUSH5 0x6472657373 PUSH1 0xD8 SHL PUSH1 0x64 DUP3 ADD MSTORE PUSH1 0x84 SWAP1 REVERT JUMPDEST PUSH1 0x1 PUSH1 0x1 PUSH1 0xA0 SHL SUB SWAP1 DUP2 AND SWAP2 DUP3 ISZERO PUSH2 0x98F JUMPI AND SWAP2 DUP3 ISZERO PUSH2 0x93F JUMPI PUSH1 0x20 PUSH32 0x8C5BE1E5EBEC7D5BD14F71427D1E84F3DD0314C0F7B2291E5B200AC8C7C3B925 SWAP2 DUP4 PUSH1 0x0 MSTORE PUSH1 0x1 DUP3 MSTORE PUSH1 0x40 PUSH1 0x0 KECCAK256 DUP6 PUSH1 0x0 MSTORE DUP3 MSTORE DUP1 PUSH1 0x40 PUSH1 0x0 KECCAK256 SSTORE PUSH1 0x40 MLOAD SWAP1 DUP2 MSTORE LOG3 JUMP JUMPDEST PUSH1 0x40 MLOAD PUSH3 0x461BCD PUSH1 0xE5 SHL DUP2 MSTORE PUSH1 0x20 PUSH1 0x4 DUP3 ADD MSTORE PUSH1 0x22 PUSH1 0x24 DUP3 ADD MSTORE PUSH32 0x45524332303A20617070726F766520746F20746865207A65726F206164647265 PUSH1 0x44 DUP3 ADD MSTORE PUSH2 0x7373 PUSH1 0xF0 SHL PUSH1 0x64 DUP3 ADD MSTORE PUSH1 0x84 SWAP1 REVERT JUMPDEST PUSH1 0x40 MLOAD PUSH3 0x461BCD PUSH1 0xE5 SHL DUP2 MSTORE PUSH1 0x20 PUSH1 0x4 DUP3 ADD MSTORE PUSH1 0x24 DUP1 DUP3 ADD MSTORE PUSH32 0x45524332303A20617070726F76652066726F6D20746865207A65726F20616464 PUSH1 0x44 DUP3 ADD MSTORE PUSH4 0x72657373 PUSH1 0xE0 SHL PUSH1 0x64 DUP3 ADD MSTORE PUSH1 0x84 SWAP1 REVERT JUMPDEST PUSH1 0x1 PUSH1 0x1 PUSH1 0xA0 SHL SUB AND DUP1 ISZERO PUSH2 0xA98 JUMPI PUSH1 0x0 SWAP2 DUP2 DUP4 MSTORE DUP3 PUSH1 0x20 MSTORE PUSH1 0x40 DUP4 KECCAK256 SLOAD DUP2 DUP2 LT PUSH2 0xA48 JUMPI DUP2 PUSH32 0xDDF252AD1BE2C89B69C2B068FC378DAA952BA7F163C4A11628F55A4DF523B3EF SWAP3 PUSH1 0x20 SWAP3 DUP6 DUP8 MSTORE DUP7 DUP5 MSTORE SUB PUSH1 0x40 DUP7 KECCAK256 SSTORE DUP1 PUSH1 0x2 SLOAD SUB PUSH1 0x2 SSTORE PUSH1 0x40 MLOAD SWAP1 DUP2 MSTORE LOG3 JUMP JUMPDEST PUSH1 0x40 MLOAD PUSH3 0x461BCD PUSH1 0xE5 SHL DUP2 MSTORE PUSH1 0x20 PUSH1 0x4 DUP3 ADD MSTORE PUSH1 0x22 PUSH1 0x24 DUP3 ADD MSTORE PUSH32 0x45524332303A206275726E20616D6F756E7420657863656564732062616C616E PUSH1 0x44 DUP3 ADD MSTORE PUSH2 0x6365 PUSH1 0xF0 SHL PUSH1 0x64 DUP3 ADD MSTORE PUSH1 0x84 SWAP1 REVERT JUMPDEST PUSH1 0x40 MLOAD PUSH3 0x461BCD PUSH1 0xE5 SHL DUP2 MSTORE PUSH1 0x20 PUSH1 0x4 DUP3 ADD MSTORE PUSH1 0x21 PUSH1 0x24 DUP3 ADD MSTORE PUSH32 0x45524332303A206275726E2066726F6D20746865207A65726F20616464726573 PUSH1 0x44 DUP3 ADD MSTORE PUSH1 0x73 PUSH1 0xF8 SHL PUSH1 0x64 DUP3 ADD MSTORE PUSH1 0x84 SWAP1 REVERT INVALID LOG2 PUSH5 0x6970667358 0x22 SLT KECCAK256 ADDRESS PUSH2 0x391F MSTORE OR EXTCODESIZE 0x4A PUSH15 0x4845443EBEB1EA49658159B0938E7E 0xE9 PUSH27 0x1A9C26DD151F64736F6C6343000812003300000000000000000000 "},"gasEstimates":{"creation":{"codeDepositCost":"569000","executionCost":"infinite","totalCost":"infinite"},"external":{"allowance(address,address)":"2854","approve(address,uint256)":"24387","balanceOf(address)":"2585","burn(uint256)":"50723","burnAll()":"35875","decimals()":"262","decreaseAllowance(address,uint256)":"26894","increaseAllowance(address,uint256)":"26785","mint(uint256)":"50738","name()":"infinite","symbol()":"infinite","totalSupply()":"2324","transfer(address,uint256)":"51032","transferFrom(address,address,uint256)":"77385"}},"methodIdentifiers":{"allowance(address,address)":"dd62ed3e","approve(address,uint256)":"095ea7b3","balanceOf(address)":"70a08231","burn(uint256)":"42966c68","burnAll()":"9975038c","decimals()":"313ce567","decreaseAllowance(address,uint256)":"a457c2d7","increaseAllowance(address,uint256)":"39509351","mint(uint256)":"a0712d68","name()":"06fdde03","symbol()":"95d89b41","totalSupply()":"18160ddd","transfer(address,uint256)":"a9059cbb","transferFrom(address,address,uint256)":"23b872dd"}},"storageLayout":{"storage":[{"astId":933,"contract":"contracts/mocks/MockUSDC.sol:MockUSDT","label":"_balances","offset":0,"slot":"0","type":"t_mapping(t_address,t_uint256)"},{"astId":939,"contract":"contracts/mocks/MockUSDC.sol:MockUSDT","label":"_allowances","offset":0,"slot":"1","type":"t_mapping(t_address,t_mapping(t_address,t_uint256))"},{"astId":941,"contract":"contracts/mocks/MockUSDC.sol:MockUSDT","label":"_totalSupply","offset":0,"slot":"2","type":"t_uint256"},{"astId":943,"contract":"contracts/mocks/MockUSDC.sol:MockUSDT","label":"_name","offset":0,"slot":"3","type":"t_string_storage"},{"astId":945,"contract":"contracts/mocks/MockUSDC.sol:MockUSDT","label":"_symbol","offset":0,"slot":"4","type":"t_string_storage"}],"types":{"t_address":{"encoding":"inplace","label":"address","numberOfBytes":"20"},"t_mapping(t_address,t_mapping(t_address,t_uint256))":{"encoding":"mapping","key":"t_address","label":"mapping(address => mapping(address => uint256))","numberOfBytes":"32","value":"t_mapping(t_address,t_uint256)"},"t_mapping(t_address,t_uint256)":{"encoding":"mapping","key":"t_address","label":"mapping(address => uint256)","numberOfBytes":"32","value":"t_uint256"},"t_string_storage":{"encoding":"bytes","label":"string","numberOfBytes":"32"},"t_uint256":{"encoding":"inplace","label":"uint256","numberOfBytes":"32"}}},"userdoc":{"kind":"user","methods":{},"version":1}}}}