{
  "_format": "hh-sol-artifact-1",
  "contractName": "MockUSDT",
  "sourceName": "contracts/mocks/MockUSDC.sol",
  "abi": [
    {
      "inputs": [],
      "stateMutability": "nonpayable",
      "type": "constructor"
    },
    {
      "anonymous": false,
      "inputs": [
        {
          "indexed": true,
          "internalType": "address",
          "name": "owner",
          "type": "address"
        },
        {
          "indexed": true,
          "internalType": "address",
          "name": "spender",
          "type": "address"
        },
        {
          "indexed": false,
          "internalType": "uint256",
          "name": "value",
          "type": "uint256"
        }
      ],
      "name": "Approval",
      "type": "event"
    },
    {
      "anonymous": false,
      "inputs": [
        {
          "indexed": true,
          "internalType": "address",
          "name": "from",
          "type": "address"
        },
        {
          "indexed": true,
          "internalType": "address",
          "name": "to",
          "type": "address"
        },
        {
          "indexed": false,
          "internalType": "uint256",
          "name": "value",
          "type": "uint256"
        }
      ],
      "name": "Transfer",
      "type": "event"
    },
    {
      "inputs": [
        {
          "internalType": "address",
          "name": "owner",
          "type": "address"
        },
        {
          "internalType": "address",
          "name": "spender",
          "type": "address"
        }
      ],
      "name": "allowance",
      "outputs": [
        {
          "internalType": "uint256",
          "name": "",
          "type": "uint256"
        }
      ],
      "stateMutability": "view",
      "type": "function"
    },
    {
      "inputs": [
        {
          "internalType": "address",
          "name": "spender",
          "type": "address"
        },
        {
          "internalType": "uint256",
          "name": "amount",
          "type": "uint256"
        }
      ],
      "name": "approve",
      "outputs": [
        {
          "internalType": "bool",
          "name": "",
          "type": "bool"
        }
      ],
      "stateMutability": "nonpayable",
      "type": "function"
    },
    {
      "inputs": [
        {
          "internalType": "address",
          "name": "account",
          "type": "address"
        }
      ],
      "name": "balanceOf",
      "outputs": [
        {
          "internalType": "uint256",
          "name": "",
          "type": "uint256"
        }
      ],
      "stateMutability": "view",
      "type": "function"
    },
    {
      "inputs": [
        {
          "internalType": "uint256",
          "name": "_amount",
          "type": "uint256"
        }
      ],
      "name": "burn",
      "outputs": [],
      "stateMutability": "nonpayable",
      "type": "function"
    },
    {
      "inputs": [],
      "name": "burnAll",
      "outputs": [],
      "stateMutability": "nonpayable",
      "type": "function"
    },
    {
      "inputs": [],
      "name": "decimals",
      "outputs": [
        {
          "internalType": "uint8",
          "name": "",
          "type": "uint8"
        }
      ],
      "stateMutability": "view",
      "type": "function"
    },
    {
      "inputs": [
        {
          "internalType": "address",
          "name": "spender",
          "type": "address"
        },
        {
          "internalType": "uint256",
          "name": "subtractedValue",
          "type": "uint256"
        }
      ],
      "name": "decreaseAllowance",
      "outputs": [
        {
          "internalType": "bool",
          "name": "",
          "type": "bool"
        }
      ],
      "stateMutability": "nonpayable",
      "type": "function"
    },
    {
      "inputs": [
        {
          "internalType": "address",
          "name": "spender",
          "type": "address"
        },
        {
          "internalType": "uint256",
          "name": "addedValue",
          "type": "uint256"
        }
      ],
      "name": "increaseAllowance",
      "outputs": [
        {
          "internalType": "bool",
          "name": "",
          "type": "bool"
        }
      ],
      "stateMutability": "nonpayable",
      "type": "function"
    },
    {
      "inputs": [
        {
          "internalType": "uint256",
          "name": "_amount",
          "type": "uint256"
        }
      ],
      "name": "mint",
      "outputs": [],
      "stateMutability": "nonpayable",
      "type": "function"
    },
    {
      "inputs": [],
      "name": "name",
      "outputs": [
        {
          "internalType": "string",
          "name": "",
          "type": "string"
        }
      ],
      "stateMutability": "view",
      "type": "function"
    },
    {
      "inputs": [],
      "name": "symbol",
      "outputs": [
        {
          "internalType": "string",
          "name": "",
          "type": "string"
        }
      ],
      "stateMutability": "view",
      "type": "function"
    },
    {
      "inputs": [],
      "name": "totalSupply",
      "outputs": [
        {
          "internalType": "uint256",
          "name": "",
          "type": "uint256"
        }
      ],
      "stateMutability": "view",
      "type": "function"
    },
    {
      "inputs": [
        {
          "internalType": "address",
          "name": "to",
          "type": "address"
        },
        {
          "internalType": "uint256",
          "name": "amount",
          "type": "uint256"
        }
      ],
      "name": "transfer",
      "outputs": [
        {
          "internalType": "bool",
          "name": "",
          "type": "bool"
        }
      ],
      "stateMutability": "nonpayable",
      "type": "function"
    },
    {
      "inputs": [
        {
          "internalType": "address",
          "name": "from",
          "type": "address"
        },
        {
          "internalType": "address",
          "name": "to",
          "type": "address"
        },
        {
          "internalType": "uint256",
          "name": "amount",
          "type": "uint256"
        }
      ],
      "name": "transferFrom",
      "outputs": [
        {
          "internalType": "bool",
          "name": "",
          "type": "bool"
        }
      ],
      "stateMutability": "nonpayable",
      "type": "function"
    }
  ],
  "bytecode": "0x608034620003c2576040906001600160401b0381830181811183821017620002c257835260088252602090674d6f636b5544534360c01b8284015283519284840184811083821117620002c257855260058452644d5553444360d81b83850152805191808311620002c25760038054936001938486811c96168015620003b7575b87871014620003a1578190601f968781116200034b575b508790878311600114620002e457600092620002d8575b505060001982841b1c191690841b1781555b8551918211620002c25760049586548481811c91168015620002b7575b87821014620002a25785811162000257575b508590858411600114620001ec57938394918492600095620001e0575b50501b92600019911b1c19161783555b3315620001a1575060025469d3c21bcecceda1000000928382018092116200018c57506000917fddf252ad1be2c89b69c2b068fc378daa952ba7f163c4a11628f55a4df523b3ef9160025533835282815284832084815401905584519384523393a351610b1d9081620003c88239f35b601190634e487b7160e01b6000525260246000fd5b90606493519262461bcd60e51b845283015260248201527f45524332303a206d696e7420746f20746865207a65726f2061646472657373006044820152fd5b0151935038806200010c565b9190601f198416928860005284886000209460005b8a898383106200023f575050501062000224575b50505050811b0183556200011c565b01519060f884600019921b161c191690553880808062000215565b86860151895590970196948501948893500162000201565b87600052866000208680860160051c82019289871062000298575b0160051c019085905b8281106200028b575050620000ef565b600081550185906200027b565b9250819262000272565b602288634e487b7160e01b6000525260246000fd5b90607f1690620000dd565b634e487b7160e01b600052604160045260246000fd5b015190503880620000ae565b90869350601f1983169185600052896000209260005b8b8282106200033457505084116200031b575b505050811b018155620000c0565b015160001983861b60f8161c191690553880806200030d565b8385015186558a97909501949384019301620002fa565b90915083600052876000208780850160051c8201928a861062000397575b918891869594930160051c01915b8281106200038757505062000097565b6000815585945088910162000377565b9250819262000369565b634e487b7160e01b600052602260045260246000fd5b95607f169562000080565b600080fdfe608060408181526004918236101561001657600080fd5b600092833560e01c91826306fdde03146105fb57508163095ea7b3146105d157816318160ddd146105b257816323b872dd146104e8578163313ce567146104cc578163395093511461047c57816342966c681461045e57816370a082311461042757816395d89b41146103085781639975038c14610293578163a0712d68146101e2578163a457c2d71461013a57508063a9059cbb1461010a5763dd62ed3e146100bf57600080fd5b34610106578060031936011261010657806020926100db61071c565b6100e3610737565b6001600160a01b0391821683526001865283832091168252845220549051908152f35b5080fd5b503461010657806003193601126101065760209061013361012961071c565b6024359033610770565b5160018152f35b905082346101df57826003193601126101df5761015561071c565b918360243592338152600160205281812060018060a01b038616825260205220549082821061018e5760208561013385850387336108de565b608490602086519162461bcd60e51b8352820152602560248201527f45524332303a2064656372656173656420616c6c6f77616e63652062656c6f77604482015264207a65726f60d81b6064820152fd5b80fd5b9190503461028f57602036600319011261028f57813591331561024d575061020c8260025461074d565b6002553383528260205280832082815401905551908152817fddf252ad1be2c89b69c2b068fc378daa952ba7f163c4a11628f55a4df523b3ef60203393a380f35b6020606492519162461bcd60e51b8352820152601f60248201527f45524332303a206d696e7420746f20746865207a65726f2061646472657373006044820152fd5b8280fd5b90503461028f578260031936011261028f5733835282602052818320549182156102c557836102c284336109e0565b80f35b906020606492519162461bcd60e51b8352820152601960248201527f4d6f636b555344543a204e6f7468696e6720746f206275726e000000000000006044820152fd5b838334610106578160031936011261010657805190828454600181811c9080831692831561041d575b602093848410811461040a578388529081156103ee5750600114610399575b505050829003601f01601f191682019267ffffffffffffffff84118385101761038657508291826103829252826106d3565b0390f35b634e487b7160e01b815260418552602490fd5b8787529192508591837f8a35acfbc15ff81a39ae7d344fd709f28e8600b4aa8c65c6b64bfe7fe36bd19b5b8385106103da5750505050830101858080610350565b8054888601830152930192849082016103c4565b60ff1916878501525050151560051b8401019050858080610350565b634e487b7160e01b895260228a52602489fd5b91607f1691610331565b5050346101065760203660031901126101065760209181906001600160a01b0361044f61071c565b16815280845220549051908152f35b839034610106576020366003190112610106576102c29035336109e0565b5050346101065780600319360112610106576101336020926104c561049f61071c565b338352600186528483206001600160a01b0382168452865291849020546024359061074d565b90336108de565b5050346101065781600319360112610106576020905160128152f35b839150346101065760603660031901126101065761050461071c565b61050c610737565b91846044359460018060a01b038416815260016020528181203382526020522054906000198203610546575b602086610133878787610770565b84821061056f575091839161056460209695610133950333836108de565b919394819350610538565b606490602087519162461bcd60e51b8352820152601d60248201527f45524332303a20696e73756666696369656e7420616c6c6f77616e63650000006044820152fd5b5050346101065781600319360112610106576020906002549051908152f35b5050346101065780600319360112610106576020906101336105f161071c565b60243590336108de565b8490843461028f578260031936011261028f5782600354600181811c908083169283156106c9575b602093848410811461040a578388529081156103ee575060011461067357505050829003601f01601f191682019267ffffffffffffffff84118385101761038657508291826103829252826106d3565b600387529192508591837fc2575a0e9e593c00f959f8c92f12db2869c3395a3b0502d05e2516446f71f85b5b8385106106b55750505050830101858080610350565b80548886018301529301928490820161069f565b91607f1691610623565b6020808252825181830181905290939260005b82811061070857505060409293506000838284010152601f8019910116010190565b8181018601518482016040015285016106e6565b600435906001600160a01b038216820361073257565b600080fd5b602435906001600160a01b038216820361073257565b9190820180921161075a57565b634e487b7160e01b600052601160045260246000fd5b6001600160a01b0390811691821561088b571691821561083a576000828152806020526040812054918083106107e657604082827fddf252ad1be2c89b69c2b068fc378daa952ba7f163c4a11628f55a4df523b3ef958760209652828652038282205586815220818154019055604051908152a3565b60405162461bcd60e51b815260206004820152602660248201527f45524332303a207472616e7366657220616d6f756e7420657863656564732062604482015265616c616e636560d01b6064820152608490fd5b60405162461bcd60e51b815260206004820152602360248201527f45524332303a207472616e7366657220746f20746865207a65726f206164647260448201526265737360e81b6064820152608490fd5b60405162461bcd60e51b815260206004820152602560248201527f45524332303a207472616e736665722066726f6d20746865207a65726f206164604482015264647265737360d81b6064820152608490fd5b6001600160a01b0390811691821561098f571691821561093f5760207f8c5be1e5ebec7d5bd14f71427d1e84f3dd0314c0f7b2291e5b200ac8c7c3b925918360005260018252604060002085600052825280604060002055604051908152a3565b60405162461bcd60e51b815260206004820152602260248201527f45524332303a20617070726f766520746f20746865207a65726f206164647265604482015261737360f01b6064820152608490fd5b60405162461bcd60e51b8152602060048201526024808201527f45524332303a20617070726f76652066726f6d20746865207a65726f206164646044820152637265737360e01b6064820152608490fd5b6001600160a01b03168015610a9857600091818352826020526040832054818110610a4857817fddf252ad1be2c89b69c2b068fc378daa952ba7f163c4a11628f55a4df523b3ef926020928587528684520360408620558060025403600255604051908152a3565b60405162461bcd60e51b815260206004820152602260248201527f45524332303a206275726e20616d6f756e7420657863656564732062616c616e604482015261636560f01b6064820152608490fd5b60405162461bcd60e51b815260206004820152602160248201527f45524332303a206275726e2066726f6d20746865207a65726f206164647265736044820152607360f81b6064820152608490fdfea26469706673582212203061391f52173b4a6e4845443ebeb1ea49658159b0938e7ee97a1a9c26dd151f64736f6c63430008120033",
  "linkReferences": {},
  "deployedLinkReferences": {}
}