{
  "_format": "hh-sol-artifact-1",
  "contractName": "Gateway",
  "sourceName": "contracts/Gateway.sol",
  "abi": [
    {
      "inputs": [],
      "stateMutability": "nonpayable",
      "type": "constructor"
    },
    {
      "anonymous": false,
      "inputs": [
        {
          "indexed": true,
          "internalType": "address",
          "name": "sender",
          "type": "address"
        },
        {
          "indexed": true,
          "internalType": "address",
          "name": "token",
          "type": "address"
        },
        {
          "indexed": true,
          "internalType": "uint256",
          "name": "amount",
          "type": "uint256"
        }
      ],
      "name": "Deposit",
      "type": "event"
    },
    {
      "anonymous": false,
      "inputs": [
        {
          "indexed": false,
          "internalType": "uint8",
          "name": "version",
          "type": "uint8"
        }
      ],
      "name": "Initialized",
      "type": "event"
    },
    {
      "anonymous": false,
      "inputs": [
        {
          "indexed": true,
          "internalType": "address",
          "name": "sender",
          "type": "address"
        },
        {
          "indexed": true,
          "internalType": "address",
          "name": "token",
          "type": "address"
        },
        {
          "indexed": true,
          "internalType": "uint256",
          "name": "amount",
          "type": "uint256"
        },
        {
          "indexed": false,
          "internalType": "uint256",
          "name": "protocolFee",
          "type": "uint256"
        },
        {
          "indexed": false,
          "internalType": "bytes32",
          "name": "orderId",
          "type": "bytes32"
        },
        {
          "indexed": false,
          "internalType": "uint256",
          "name": "rate",
          "type": "uint256"
        },
        {
          "indexed": false,
          "internalType": "string",
          "name": "messageHash",
          "type": "string"
        }
      ],
      "name": "OrderCreated",
      "type": "event"
    },
    {
      "anonymous": false,
      "inputs": [
        {
          "indexed": false,
          "internalType": "uint256",
          "name": "fee",
          "type": "uint256"
        },
        {
          "indexed": true,
          "internalType": "bytes32",
          "name": "orderId",
          "type": "bytes32"
        }
      ],
      "name": "OrderRefunded",
      "type": "event"
    },
    {
      "anonymous": false,
      "inputs": [
        {
          "indexed": false,
          "internalType": "bytes32",
          "name": "splitOrderId",
          "type": "bytes32"
        },
        {
          "indexed": true,
          "internalType": "bytes32",
          "name": "orderId",
          "type": "bytes32"
        },
        {
          "indexed": true,
          "internalType": "address",
          "name": "liquidityProvider",
          "type": "address"
        },
        {
          "indexed": false,
          "internalType": "uint96",
          "name": "settlePercent",
          "type": "uint96"
        }
      ],
      "name": "OrderSettled",
      "type": "event"
    },
    {
      "anonymous": false,
      "inputs": [
        {
          "indexed": true,
          "internalType": "address",
          "name": "previousOwner",
          "type": "address"
        },
        {
          "indexed": true,
          "internalType": "address",
          "name": "newOwner",
          "type": "address"
        }
      ],
      "name": "OwnershipTransferStarted",
      "type": "event"
    },
    {
      "anonymous": false,
      "inputs": [
        {
          "indexed": true,
          "internalType": "address",
          "name": "previousOwner",
          "type": "address"
        },
        {
          "indexed": true,
          "internalType": "address",
          "name": "newOwner",
          "type": "address"
        }
      ],
      "name": "OwnershipTransferred",
      "type": "event"
    },
    {
      "anonymous": false,
      "inputs": [
        {
          "indexed": false,
          "internalType": "address",
          "name": "account",
          "type": "address"
        }
      ],
      "name": "Paused",
      "type": "event"
    },
    {
      "anonymous": false,
      "inputs": [
        {
          "indexed": true,
          "internalType": "bytes32",
          "name": "what",
          "type": "bytes32"
        },
        {
          "indexed": true,
          "internalType": "address",
          "name": "treasuryAddress",
          "type": "address"
        }
      ],
      "name": "ProtocolAddressUpdated",
      "type": "event"
    },
    {
      "anonymous": false,
      "inputs": [
        {
          "indexed": false,
          "internalType": "uint64",
          "name": "protocolFee",
          "type": "uint64"
        }
      ],
      "name": "ProtocolFeeUpdated",
      "type": "event"
    },
    {
      "anonymous": false,
      "inputs": [
        {
          "indexed": true,
          "internalType": "address",
          "name": "sender",
          "type": "address"
        },
        {
          "indexed": true,
          "internalType": "uint256",
          "name": "amount",
          "type": "uint256"
        }
      ],
      "name": "SenderFeeTransferred",
      "type": "event"
    },
    {
      "anonymous": false,
      "inputs": [
        {
          "indexed": true,
          "internalType": "address",
          "name": "treasuryAddress",
          "type": "address"
        }
      ],
      "name": "SetFeeRecipient",
      "type": "event"
    },
    {
      "anonymous": false,
      "inputs": [
        {
          "indexed": true,
          "internalType": "bytes32",
          "name": "what",
          "type": "bytes32"
        },
        {
          "indexed": true,
          "internalType": "address",
          "name": "value",
          "type": "address"
        },
        {
          "indexed": false,
          "internalType": "uint256",
          "name": "status",
          "type": "uint256"
        }
      ],
      "name": "SettingManagerBool",
      "type": "event"
    },
    {
      "anonymous": false,
      "inputs": [
        {
          "indexed": false,
          "internalType": "address",
          "name": "account",
          "type": "address"
        }
      ],
      "name": "Unpaused",
      "type": "event"
    },
    {
      "inputs": [],
      "name": "acceptOwnership",
      "outputs": [],
      "stateMutability": "nonpayable",
      "type": "function"
    },
    {
      "inputs": [
        {
          "internalType": "address",
          "name": "_token",
          "type": "address"
        },
        {
          "internalType": "uint256",
          "name": "_amount",
          "type": "uint256"
        },
        {
          "internalType": "uint96",
          "name": "_rate",
          "type": "uint96"
        },
        {
          "internalType": "address",
          "name": "_senderFeeRecipient",
          "type": "address"
        },
        {
          "internalType": "uint256",
          "name": "_senderFee",
          "type": "uint256"
        },
        {
          "internalType": "address",
          "name": "_refundAddress",
          "type": "address"
        },
        {
          "internalType": "string",
          "name": "messageHash",
          "type": "string"
        }
      ],
      "name": "createOrder",
      "outputs": [
        {
          "internalType": "bytes32",
          "name": "orderId",
          "type": "bytes32"
        }
      ],
      "stateMutability": "nonpayable",
      "type": "function"
    },
    {
      "inputs": [
        {
          "internalType": "address",
          "name": "_token",
          "type": "address"
        },
        {
          "internalType": "uint256",
          "name": "_amount",
          "type": "uint256"
        }
      ],
      "name": "deposit",
      "outputs": [
        {
          "internalType": "bool",
          "name": "",
          "type": "bool"
        }
      ],
      "stateMutability": "nonpayable",
      "type": "function"
    },
    {
      "inputs": [
        {
          "internalType": "address",
          "name": "_token",
          "type": "address"
        },
        {
          "internalType": "address",
          "name": "_provider",
          "type": "address"
        }
      ],
      "name": "getBalance",
      "outputs": [
        {
          "internalType": "uint256",
          "name": "",
          "type": "uint256"
        }
      ],
      "stateMutability": "view",
      "type": "function"
    },
    {
      "inputs": [],
      "name": "getFeeDetails",
      "outputs": [
        {
          "internalType": "uint64",
          "name": "",
          "type": "uint64"
        },
        {
          "internalType": "uint256",
          "name": "",
          "type": "uint256"
        }
      ],
      "stateMutability": "view",
      "type": "function"
    },
    {
      "inputs": [
        {
          "internalType": "bytes32",
          "name": "_orderId",
          "type": "bytes32"
        }
      ],
      "name": "getOrderInfo",
      "outputs": [
        {
          "components": [
            {
              "internalType": "address",
              "name": "sender",
              "type": "address"
            },
            {
              "internalType": "address",
              "name": "token",
              "type": "address"
            },
            {
              "internalType": "address",
              "name": "senderFeeRecipient",
              "type": "address"
            },
            {
              "internalType": "uint256",
              "name": "senderFee",
              "type": "uint256"
            },
            {
              "internalType": "uint256",
              "name": "protocolFee",
              "type": "uint256"
            },
            {
              "internalType": "bool",
              "name": "isFulfilled",
              "type": "bool"
            },
            {
              "internalType": "bool",
              "name": "isRefunded",
              "type": "bool"
            },
            {
              "internalType": "address",
              "name": "refundAddress",
              "type": "address"
            },
            {
              "internalType": "uint96",
              "name": "currentBPS",
              "type": "uint96"
            },
            {
              "internalType": "uint256",
              "name": "amount",
              "type": "uint256"
            }
          ],
          "internalType": "struct IGateway.Order",
          "name": "",
          "type": "tuple"
        }
      ],
      "stateMutability": "view",
      "type": "function"
    },
    {
      "inputs": [],
      "name": "initialize",
      "outputs": [],
      "stateMutability": "nonpayable",
      "type": "function"
    },
    {
      "inputs": [
        {
          "internalType": "address",
          "name": "_token",
          "type": "address"
        }
      ],
      "name": "isTokenSupported",
      "outputs": [
        {
          "internalType": "bool",
          "name": "",
          "type": "bool"
        }
      ],
      "stateMutability": "view",
      "type": "function"
    },
    {
      "inputs": [],
      "name": "owner",
      "outputs": [
        {
          "internalType": "address",
          "name": "",
          "type": "address"
        }
      ],
      "stateMutability": "view",
      "type": "function"
    },
    {
      "inputs": [],
      "name": "pause",
      "outputs": [],
      "stateMutability": "nonpayable",
      "type": "function"
    },
    {
      "inputs": [],
      "name": "paused",
      "outputs": [
        {
          "internalType": "bool",
          "name": "",
          "type": "bool"
        }
      ],
      "stateMutability": "view",
      "type": "function"
    },
    {
      "inputs": [],
      "name": "pendingOwner",
      "outputs": [
        {
          "internalType": "address",
          "name": "",
          "type": "address"
        }
      ],
      "stateMutability": "view",
      "type": "function"
    },
    {
      "inputs": [
        {
          "internalType": "uint256",
          "name": "_fee",
          "type": "uint256"
        },
        {
          "internalType": "bytes32",
          "name": "_orderId",
          "type": "bytes32"
        }
      ],
      "name": "refund",
      "outputs": [
        {
          "internalType": "bool",
          "name": "",
          "type": "bool"
        }
      ],
      "stateMutability": "nonpayable",
      "type": "function"
    },
    {
      "inputs": [],
      "name": "renounceOwnership",
      "outputs": [],
      "stateMutability": "nonpayable",
      "type": "function"
    },
    {
      "inputs": [
        {
          "internalType": "bytes32",
          "name": "what",
          "type": "bytes32"
        },
        {
          "internalType": "address",
          "name": "value",
          "type": "address"
        },
        {
          "internalType": "uint256",
          "name": "status",
          "type": "uint256"
        }
      ],
      "name": "settingManagerBool",
      "outputs": [],
      "stateMutability": "nonpayable",
      "type": "function"
    },
    {
      "inputs": [
        {
          "internalType": "bytes32",
          "name": "_splitOrderId",
          "type": "bytes32"
        },
        {
          "internalType": "bytes32",
          "name": "_orderId",
          "type": "bytes32"
        },
        {
          "internalType": "address",
          "name": "_liquidityProvider",
          "type": "address"
        },
        {
          "internalType": "uint64",
          "name": "_settlePercent",
          "type": "uint64"
        }
      ],
      "name": "settle",
      "outputs": [
        {
          "internalType": "bool",
          "name": "",
          "type": "bool"
        }
      ],
      "stateMutability": "nonpayable",
      "type": "function"
    },
    {
      "inputs": [
        {
          "internalType": "address",
          "name": "newOwner",
          "type": "address"
        }
      ],
      "name": "transferOwnership",
      "outputs": [],
      "stateMutability": "nonpayable",
      "type": "function"
    },
    {
      "inputs": [],
      "name": "unpause",
      "outputs": [],
      "stateMutability": "nonpayable",
      "type": "function"
    },
    {
      "inputs": [
        {
          "internalType": "bytes32",
          "name": "what",
          "type": "bytes32"
        },
        {
          "internalType": "address",
          "name": "value",
          "type": "address"
        }
      ],
      "name": "updateProtocolAddress",
      "outputs": [],
      "stateMutability": "nonpayable",
      "type": "function"
    },
    {
      "inputs": [
        {
          "internalType": "uint64",
          "name": "_protocolFeePercent",
          "type": "uint64"
        }
      ],
      "name": "updateProtocolFee",
      "outputs": [],
      "stateMutability": "nonpayable",
      "type": "function"
    }
  ],
  "bytecode": "0x608080604052346100c1576000549060ff8260081c1661006f575060ff80821603610034575b60405161199390816100c78239f35b60ff90811916176000557f7f26b83ff96e1f2b6a682f133852f6798a09c465da95921460cefb3847402498602060405160ff8152a138610025565b62461bcd60e51b815260206004820152602760248201527f496e697469616c697a61626c653a20636f6e747261637420697320696e697469604482015266616c697a696e6760c81b6064820152608490fd5b600080fdfe6080604052600436101561001257600080fd5b60003560e01c80633f4ba83a146114f857806340ebc6771461134f57806347094e2e146112e157806347e7ef24146111ec5780635c975abb146111c9578063715018a61461116257806371eedb8814610f1757806375151b6314610eea578063768c6ec014610d5857806379ba509714610cd1578063809804f7146108385780638129fc1c146106df5780638456cb59146106855780638da5cb5b1461065c578063b810c6361461062d578063cd99240014610543578063d4fac45d146104f1578063e30c3978146104c8578063f22ee7041461016a5763f2fde38b146100f857600080fd5b34610165576020366003190112610165576101116115a2565b610119611609565b606580546001600160a01b0319166001600160a01b039283169081179091556033549091167f38d16b8cac22d99fc7c124b9cd0de2d3fa1faef420bfe791d8c362d765e22700600080a3005b600080fd5b34610165576080366003190112610165576044356001600160a01b0380821690602435908284036101655760643567ffffffffffffffff91828216809203610165576101bb8160995416331461182d565b8360005260ff906020968288526101dc83600560406000200154161561186a565b856000528288526101fa8360056040600020015460081c16156118a7565b856000528288526040600020906006836001840154169201938454946001600160601b03908782881603968288116104b257828d9816906001600160601b03191617905588600052818652604060002090600682015416156103d7575b50936102ed9461027b6102728860076040600020015461177f565b60975490611792565b9089600052825260076040600020016102958282546118e3565b90556102b36102ac6102726098549a8b168461177f565b80926118e3565b6040805163a9059cbb60e01b8082529a90911c969096166001600160a01b0316600487015260248601919091529394859081906044820190565b03816000865af180156103ae57610335968a956000926103ba575b506040519081526001600160a01b0390921660048301526024820193909352948592839182906044820190565b03925af19081156103ae577f98ece21e01a01cbe1d1c0dad3b053c8fbd368f99be78be958fcf1d1d13fd249a92604092610381575b50815190600435825286820152a360405160018152f35b6103a090873d89116103a7575b6103988183611745565b810190611767565b508661036a565b503d61038e565b6040513d6000823e3d90fd5b6103d090873d89116103a7576103988183611745565b508b610308565b60058101805460ff19166001179055600381015490816103f8575b50610257565b600181015460029091015460405163a9059cbb60e01b81529087166001600160a01b03166004820152602481019290925290959086908616816000816044810103925af19081156103ae576102ed958b92610495575b50886000528082526040600020600386600283015416910154907f44f6938ca4a10313aabb76f874cced61e35710a734a126e4afb34461bf8c2501600080a390948b6103f2565b6104ab90833d85116103a7576103988183611745565b508b61044e565b634e487b7160e01b600052601160045260246000fd5b34610165576000366003190112610165576065546040516001600160a01b039091168152602090f35b346101655760403660031901126101655761050a6115a2565b61051261158c565b9060018060a01b03809116600052610133602052604060002091166000526020526020604060002054604051908152f35b346101655760603660031901126101655760043561055f61158c565b906044359161056c611609565b6001600160a01b031691610581831515611919565b600181148015610623575b156105de57643a37b5b2b760d91b82146105a257005b60207fcfa976492af7c14a916cc3a239f4c9c75bbd7f5f0e398beb41d892c7eeccae4c9184600052609a825280604060002055604051908152a3005b60405162461bcd60e51b815260206004820152601760248201527f476174657761793a20696e76616c6964207374617475730000000000000000006044820152606490fd5b506002811461058c565b3461016557600036600319011261016557604067ffffffffffffffff6098541660975482519182526020820152f35b34610165576000366003190112610165576033546040516001600160a01b039091168152602090f35b346101655760003660031901126101655761069e611609565b6106a66116c1565b600160ff1960cd54161760cd557f62e78cea01bee320cd4e420270b5ea74000d11b0c9f74754ebdbfc544b05a2586020604051338152a1005b346101655760003660031901126101655760005460ff8160081c161580809161082b575b8015610814575b156107b85760ff1982811660011760005591816107a6575b50620186a060975561074460ff60005460081c1661073f81611661565b611661565b61074d336115b8565b6000549161076460ff8460081c1661073f81611661565b60cd541660cd5561077157005b61ff0019166000557f7f26b83ff96e1f2b6a682f133852f6798a09c465da95921460cefb3847402498602060405160018152a1005b61ffff19166101011760005582610722565b60405162461bcd60e51b815260206004820152602e60248201527f496e697469616c697a61626c653a20636f6e747261637420697320616c72656160448201526d191e481a5b9a5d1a585b1a5e995960921b6064820152608490fd5b50303b15801561070a5750600160ff83161461070a565b50600160ff831610610703565b346101655760e0366003190112610165576108516115a2565b6044356001600160601b0381168103610165576064356001600160a01b03811681036101655760a4356001600160a01b03811681036101655767ffffffffffffffff60c435116101655736602360c4350112156101655767ffffffffffffffff60c43560040135116101655736602460c4356004013560c435010111610165576108d96116c1565b6001600160a01b0384166000908152609a60205260409020546108fe906001146117b2565b61090b60243515156117f2565b6001600160a01b03811615610c9957608435610c46575b60c4356004013515610c0c5761096e6020610941608435602435611705565b6040516323b872dd60e01b8152336004820152306024820152604481019190915291829081906064820190565b038160006001600160a01b038a165af180156103ae57610bed575b5033600052610100602052604060002091825460001981146104b25760209560079460017f40ccd1ceb111a3c186ef9911e1b876dc1f789ed331b86097b3b8851055b6a137930190553360005261010087526001600160601b03610a13610a21604060002054604051928391338d840160209093929193604081019460018060a01b031681520152565b03601f198101835282611745565b8881519101209667ffffffffffffffff610a41816098541660243561177f565b610a4e6097548092611792565b9760405197610a5c89611712565b33895260018060a01b0387168d8a015260018060a01b031660408901526084356060890152886080890152600060a0890152600060c089015260018060a01b031660e0880152166101008601526024356101208601528760005260ff8952604060002061012060018060a01b03875116968460a01b88818554161784556001840160018060a01b038e8401511682825416179055600284019060018060a01b036040840151169082541617905560608101516003840155608081015160048401556005830160a08201511515815461ff0060c0850151151560081b169060ff62010000600160b01b0360e087015160101b1693169069ffffffffffffffffffff60b01b16171717905560068301856101008301511686198254161790550151978891015560405195865287898701521660408501526080606085015260c43560040135608085015260c43560040135602460c4350160a0860137600060a060c435600401358601015260018060a01b03169260a081601f19601f60c4356004013501168101030190a4604051908152f35b610c059060203d6020116103a7576103988183611745565b5084610989565b60405162461bcd60e51b8152602060048201526012602482015271092dcecc2d8d2c89acae6e6c2ceca90c2e6d60731b6044820152606490fd5b6001600160a01b0382166109225760405162461bcd60e51b815260206004820152601960248201527f496e76616c696453656e646572466565526563697069656e74000000000000006044820152606490fd5b60405162461bcd60e51b815260206004820152601060248201526f5468726f775a65726f4164647265737360801b6044820152606490fd5b3461016557600036600319011261016557606554336001600160a01b0390911603610d0157610cff336115b8565b005b60405162461bcd60e51b815260206004820152602960248201527f4f776e61626c6532537465703a2063616c6c6572206973206e6f7420746865206044820152683732bb9037bbb732b960b91b6064820152608490fd5b34610165576020366003190112610165576000610120604051610d7a81611712565b8281528260208201528260408201528260608201528260808201528260a08201528260c08201528260e082015282610100820152015260043560005260ff6020526101406040600020610120604051610dd281611712565b600760018060a01b038454169384835260018060a01b03600182015416602084015260018060a01b0360028201541660408401526003810154606084015260048101546080840152600581015460ff8116151560a085015260ff8160081c16151560c085015260018060a01b039060101c1660e08401526001600160601b0360068201541661010084015201548282015260405192835260018060a01b03602082015116602084015260018060a01b036040820151166040840152606081015160608401526080810151608084015260a0810151151560a084015260c0810151151560c084015260018060a01b0360e08201511660e08401526001600160601b03610100820151166101008401520151610120820152f35b34610165576020366003190112610165576020610f0d610f086115a2565b6118f0565b6040519015158152f35b346101655760403660031901126101655760043560243560018060a01b03610f448160995416331461182d565b8160005260ff92602093808552610f6581600560406000200154161561186a565b83600052808552610f838160056040600020015460081c16156118a7565b836000528085528160046040600020015410611125578490826110a4575b6110429385600052818352610fe184600760406000206005810161010061ff0019825416179055600681016001600160601b0319815416905501546118e3565b9186600052835261100d60406000209260038360018601541693600586015460101c1694015490611705565b60405163a9059cbb60e01b81526001600160a01b03909316600484015260248301529093849190829060009082906044820190565b03925af19081156103ae577f0736fe428e1747ca8d387c2e6fa1a31a0cde62d3a167c40a46ade59a3cdc828e928592611087575b50604051908152a260405160018152f35b61109d90833d85116103a7576103988183611745565b5085611076565b6000858152818752604080822060010154609854825163a9059cbb60e01b8152921c87166001600160a01b03166004830152602482018690529095935087918691604491839187165af19182156103ae57611042948793611108575b509350610fa1565b61111e90843d86116103a7576103988183611745565b5087611100565b60405162461bcd60e51b81526004810186905260156024820152744665654578636565647350726f746f636f6c46656560581b6044820152606490fd5b346101655760003660031901126101655761117b611609565b606580546001600160a01b03199081169091556033805491821690556000906001600160a01b03167f8be0079c531659141344cd1fd0a4f28419497f9722a3daafe3b4186f6b6457e08280a3005b3461016557600036600319011261016557602060ff60cd54166040519015158152f35b34610165576040366003190112610165576112056115a2565b6024359060018060a01b031680600052602091609a835261122d6001604060002054146117b2565b6112388115156117f2565b6040516323b872dd60e01b81523360048201523060248201526044810182905283816064816000875af180156103ae576112c4575b5081600052610133835260406000203360005283526040600020611292828254611705565b905560405191337f5548c837ab068cf56a2c2479df0882a4922fd203edb7517321831d95078c5f62600080a460018152f35b6112da90843d86116103a7576103988183611745565b508361126d565b346101655760203660031901126101655760043567ffffffffffffffff81168091036101655760207f1ce29a697a4765bd17d91df93ba75b250b629ecf030553ff1f6ab59f15ae6c7b91611333611609565b8067ffffffffffffffff196098541617609855604051908152a1005b346101655760403660031901126101655760043561136b61158c565b90611374611609565b6001600160a01b038281169261138b841515611919565b600067747265617375727960c01b8403611461575083609854928360401c161461140e5768010000000000000000600160e01b031990911660409190911b68010000000000000000600160e01b03161760985560015b6113e757005b7fbbc5b96e57cfecb3dbeeadf92e87f15e58e64fcd75cbe256dcc5d9ef2e51e8a4600080a3005b60405162461bcd60e51b815260206004820152602560248201527f476174657761793a207472656173757279206164647265737320616c726561646044820152641e481cd95d60da1b6064820152608490fd5b9190506930b3b3b932b3b0ba37b960b11b831461147f575b506113e1565b6099549150811683146114a3576001600160a01b0319168217609955600183611479565b60405162461bcd60e51b815260206004820152602760248201527f476174657761793a2061676772656761746f72206164647265737320616c726560448201526618591e481cd95d60ca1b6064820152608490fd5b3461016557600036600319011261016557611511611609565b60cd5460ff8116156115505760ff191660cd557f5db9ee0a495bf2e6ff9c91a7834c1ba4fdd244a5e8aa4e537bd38aeae4b073aa6020604051338152a1005b60405162461bcd60e51b815260206004820152601460248201527314185d5cd8589b194e881b9bdd081c185d5cd95960621b6044820152606490fd5b602435906001600160a01b038216820361016557565b600435906001600160a01b038216820361016557565b6001600160601b0360a01b90816065541660655560335460018060a01b038092168093821617603355167f8be0079c531659141344cd1fd0a4f28419497f9722a3daafe3b4186f6b6457e0600080a3565b6033546001600160a01b0316330361161d57565b606460405162461bcd60e51b815260206004820152602060248201527f4f776e61626c653a2063616c6c6572206973206e6f7420746865206f776e65726044820152fd5b1561166857565b60405162461bcd60e51b815260206004820152602b60248201527f496e697469616c697a61626c653a20636f6e7472616374206973206e6f74206960448201526a6e697469616c697a696e6760a81b6064820152608490fd5b60ff60cd54166116cd57565b60405162461bcd60e51b815260206004820152601060248201526f14185d5cd8589b194e881c185d5cd95960821b6044820152606490fd5b919082018092116104b257565b610140810190811067ffffffffffffffff82111761172f57604052565b634e487b7160e01b600052604160045260246000fd5b90601f8019910116810190811067ffffffffffffffff82111761172f57604052565b90816020910312610165575180151581036101655790565b818102929181159184041417156104b257565b811561179c570490565b634e487b7160e01b600052601260045260246000fd5b156117b957565b60405162461bcd60e51b8152602060048201526011602482015270151bdad95b939bdd14dd5c1c1bdc9d1959607a1b6044820152606490fd5b156117f957565b60405162461bcd60e51b815260206004820152600c60248201526b416d6f756e7449735a65726f60a01b6044820152606490fd5b1561183457565b60405162461bcd60e51b815260206004820152600e60248201526d27b7363ca0b3b3b932b3b0ba37b960911b6044820152606490fd5b1561187157565b60405162461bcd60e51b815260206004820152600e60248201526d13dc99195c919d5b199a5b1b195960921b6044820152606490fd5b156118ae57565b60405162461bcd60e51b815260206004820152600d60248201526c13dc99195c9499599d5b991959609a1b6044820152606490fd5b919082039182116104b257565b6001600160a01b03166000908152609a602052604090205460011461191457600090565b600190565b1561192057565b60405162461bcd60e51b8152602060048201526015602482015274476174657761793a207a65726f206164647265737360581b6044820152606490fdfea26469706673582212200ef09afd6ea06ce77d51285cf717f95ab3ee7baf9cf47a9fc964c8e9f5854fb164736f6c63430008120033",
  "linkReferences": {},
  "deployedLinkReferences": {}
}