{
  "_format": "hh-sol-artifact-1",
  "contractName": "Gateway",
  "sourceName": "contracts/Gateway.sol",
  "abi": [
    {
      "inputs": [],
      "stateMutability": "nonpayable",
      "type": "constructor"
    },
    {
      "anonymous": false,
      "inputs": [
        {
          "indexed": true,
          "internalType": "address",
          "name": "sender",
          "type": "address"
        },
        {
          "indexed": true,
          "internalType": "address",
          "name": "token",
          "type": "address"
        },
        {
          "indexed": true,
          "internalType": "uint256",
          "name": "amount",
          "type": "uint256"
        }
      ],
      "name": "Deposit",
      "type": "event"
    },
    {
      "anonymous": false,
      "inputs": [
        {
          "indexed": false,
          "internalType": "uint8",
          "name": "version",
          "type": "uint8"
        }
      ],
      "name": "Initialized",
      "type": "event"
    },
    {
      "anonymous": false,
      "inputs": [
        {
          "indexed": true,
          "internalType": "address",
          "name": "sender",
          "type": "address"
        },
        {
          "indexed": true,
          "internalType": "address",
          "name": "token",
          "type": "address"
        },
        {
          "indexed": true,
          "internalType": "uint256",
          "name": "amount",
          "type": "uint256"
        },
        {
          "indexed": false,
          "internalType": "uint256",
          "name": "protocolFee",
          "type": "uint256"
        },
        {
          "indexed": false,
          "internalType": "bytes32",
          "name": "orderId",
          "type": "bytes32"
        },
        {
          "indexed": false,
          "internalType": "uint256",
          "name": "rate",
          "type": "uint256"
        },
        {
          "indexed": false,
          "internalType": "string",
          "name": "messageHash",
          "type": "string"
        }
      ],
      "name": "OrderCreated",
      "type": "event"
    },
    {
      "anonymous": false,
      "inputs": [
        {
          "indexed": false,
          "internalType": "uint256",
          "name": "fee",
          "type": "uint256"
        },
        {
          "indexed": true,
          "internalType": "bytes32",
          "name": "orderId",
          "type": "bytes32"
        }
      ],
      "name": "OrderRefunded",
      "type": "event"
    },
    {
      "anonymous": false,
      "inputs": [
        {
          "indexed": true,
          "internalType": "address",
          "name": "provider",
          "type": "address"
        },
        {
          "indexed": true,
          "internalType": "address",
          "name": "senderAddress",
          "type": "address"
        },
        {
          "indexed": true,
          "internalType": "uint256",
          "name": "amount",
          "type": "uint256"
        },
        {
          "indexed": false,
          "internalType": "address",
          "name": "token",
          "type": "address"
        },
        {
          "indexed": false,
          "internalType": "bytes32",
          "name": "orderId",
          "type": "bytes32"
        }
      ],
      "name": "OrderSettledIn",
      "type": "event"
    },
    {
      "anonymous": false,
      "inputs": [
        {
          "indexed": false,
          "internalType": "bytes32",
          "name": "splitOrderId",
          "type": "bytes32"
        },
        {
          "indexed": true,
          "internalType": "bytes32",
          "name": "orderId",
          "type": "bytes32"
        },
        {
          "indexed": true,
          "internalType": "address",
          "name": "liquidityProvider",
          "type": "address"
        },
        {
          "indexed": false,
          "internalType": "uint96",
          "name": "settlePercent",
          "type": "uint96"
        }
      ],
      "name": "OrderSettledOut",
      "type": "event"
    },
    {
      "anonymous": false,
      "inputs": [
        {
          "indexed": true,
          "internalType": "address",
          "name": "previousOwner",
          "type": "address"
        },
        {
          "indexed": true,
          "internalType": "address",
          "name": "newOwner",
          "type": "address"
        }
      ],
      "name": "OwnershipTransferStarted",
      "type": "event"
    },
    {
      "anonymous": false,
      "inputs": [
        {
          "indexed": true,
          "internalType": "address",
          "name": "previousOwner",
          "type": "address"
        },
        {
          "indexed": true,
          "internalType": "address",
          "name": "newOwner",
          "type": "address"
        }
      ],
      "name": "OwnershipTransferred",
      "type": "event"
    },
    {
      "anonymous": false,
      "inputs": [
        {
          "indexed": false,
          "internalType": "address",
          "name": "account",
          "type": "address"
        }
      ],
      "name": "Paused",
      "type": "event"
    },
    {
      "anonymous": false,
      "inputs": [
        {
          "indexed": true,
          "internalType": "bytes32",
          "name": "what",
          "type": "bytes32"
        },
        {
          "indexed": true,
          "internalType": "address",
          "name": "treasuryAddress",
          "type": "address"
        }
      ],
      "name": "ProtocolAddressUpdated",
      "type": "event"
    },
    {
      "anonymous": false,
      "inputs": [
        {
          "indexed": false,
          "internalType": "uint64",
          "name": "protocolFee",
          "type": "uint64"
        }
      ],
      "name": "ProtocolFeeUpdated",
      "type": "event"
    },
    {
      "anonymous": false,
      "inputs": [
        {
          "indexed": true,
          "internalType": "address",
          "name": "sender",
          "type": "address"
        },
        {
          "indexed": true,
          "internalType": "uint256",
          "name": "amount",
          "type": "uint256"
        }
      ],
      "name": "SenderFeeTransferred",
      "type": "event"
    },
    {
      "anonymous": false,
      "inputs": [
        {
          "indexed": true,
          "internalType": "address",
          "name": "treasuryAddress",
          "type": "address"
        }
      ],
      "name": "SetFeeRecipient",
      "type": "event"
    },
    {
      "anonymous": false,
      "inputs": [
        {
          "indexed": true,
          "internalType": "bytes32",
          "name": "what",
          "type": "bytes32"
        },
        {
          "indexed": true,
          "internalType": "address",
          "name": "value",
          "type": "address"
        },
        {
          "indexed": false,
          "internalType": "uint256",
          "name": "status",
          "type": "uint256"
        }
      ],
      "name": "SettingManagerBool",
      "type": "event"
    },
    {
      "anonymous": false,
      "inputs": [
        {
          "indexed": false,
          "internalType": "address",
          "name": "account",
          "type": "address"
        }
      ],
      "name": "Unpaused",
      "type": "event"
    },
    {
      "inputs": [],
      "name": "acceptOwnership",
      "outputs": [],
      "stateMutability": "nonpayable",
      "type": "function"
    },
    {
      "inputs": [
        {
          "internalType": "address",
          "name": "_token",
          "type": "address"
        },
        {
          "internalType": "uint256",
          "name": "_amount",
          "type": "uint256"
        },
        {
          "internalType": "uint96",
          "name": "_rate",
          "type": "uint96"
        },
        {
          "internalType": "address",
          "name": "_senderFeeRecipient",
          "type": "address"
        },
        {
          "internalType": "uint256",
          "name": "_senderFee",
          "type": "uint256"
        },
        {
          "internalType": "address",
          "name": "_refundAddress",
          "type": "address"
        },
        {
          "internalType": "string",
          "name": "messageHash",
          "type": "string"
        }
      ],
      "name": "createOrder",
      "outputs": [
        {
          "internalType": "bytes32",
          "name": "orderId",
          "type": "bytes32"
        }
      ],
      "stateMutability": "nonpayable",
      "type": "function"
    },
    {
      "inputs": [
        {
          "internalType": "address",
          "name": "_token",
          "type": "address"
        },
        {
          "internalType": "uint256",
          "name": "_amount",
          "type": "uint256"
        }
      ],
      "name": "deposit",
      "outputs": [
        {
          "internalType": "bool",
          "name": "",
          "type": "bool"
        }
      ],
      "stateMutability": "nonpayable",
      "type": "function"
    },
    {
      "inputs": [
        {
          "internalType": "address",
          "name": "_token",
          "type": "address"
        },
        {
          "internalType": "address",
          "name": "_provider",
          "type": "address"
        }
      ],
      "name": "getBalance",
      "outputs": [
        {
          "internalType": "uint256",
          "name": "",
          "type": "uint256"
        }
      ],
      "stateMutability": "view",
      "type": "function"
    },
    {
      "inputs": [],
      "name": "getFeeDetails",
      "outputs": [
        {
          "internalType": "uint64",
          "name": "",
          "type": "uint64"
        },
        {
          "internalType": "uint256",
          "name": "",
          "type": "uint256"
        }
      ],
      "stateMutability": "view",
      "type": "function"
    },
    {
      "inputs": [
        {
          "internalType": "bytes32",
          "name": "_orderId",
          "type": "bytes32"
        }
      ],
      "name": "getOrderInfoIn",
      "outputs": [
        {
          "components": [
            {
              "internalType": "uint256",
              "name": "amount",
              "type": "uint256"
            },
            {
              "internalType": "address",
              "name": "provider",
              "type": "address"
            },
            {
              "internalType": "address",
              "name": "sender",
              "type": "address"
            },
            {
              "internalType": "address",
              "name": "token",
              "type": "address"
            },
            {
              "internalType": "bytes32",
              "name": "orderId",
              "type": "bytes32"
            }
          ],
          "internalType": "struct IGateway.OrderIn",
          "name": "",
          "type": "tuple"
        }
      ],
      "stateMutability": "view",
      "type": "function"
    },
    {
      "inputs": [
        {
          "internalType": "bytes32",
          "name": "_orderId",
          "type": "bytes32"
        }
      ],
      "name": "getOrderInfoOut",
      "outputs": [
        {
          "components": [
            {
              "internalType": "address",
              "name": "sender",
              "type": "address"
            },
            {
              "internalType": "address",
              "name": "token",
              "type": "address"
            },
            {
              "internalType": "address",
              "name": "senderFeeRecipient",
              "type": "address"
            },
            {
              "internalType": "uint256",
              "name": "senderFee",
              "type": "uint256"
            },
            {
              "internalType": "uint256",
              "name": "protocolFee",
              "type": "uint256"
            },
            {
              "internalType": "bool",
              "name": "isFulfilled",
              "type": "bool"
            },
            {
              "internalType": "bool",
              "name": "isRefunded",
              "type": "bool"
            },
            {
              "internalType": "address",
              "name": "refundAddress",
              "type": "address"
            },
            {
              "internalType": "uint96",
              "name": "currentBPS",
              "type": "uint96"
            },
            {
              "internalType": "uint256",
              "name": "amount",
              "type": "uint256"
            }
          ],
          "internalType": "struct IGateway.OrderOut",
          "name": "",
          "type": "tuple"
        }
      ],
      "stateMutability": "view",
      "type": "function"
    },
    {
      "inputs": [],
      "name": "initialize",
      "outputs": [],
      "stateMutability": "nonpayable",
      "type": "function"
    },
    {
      "inputs": [
        {
          "internalType": "bytes32",
          "name": "_orderId",
          "type": "bytes32"
        }
      ],
      "name": "isOrderProcessed",
      "outputs": [
        {
          "internalType": "bool",
          "name": "",
          "type": "bool"
        }
      ],
      "stateMutability": "view",
      "type": "function"
    },
    {
      "inputs": [
        {
          "internalType": "address",
          "name": "_token",
          "type": "address"
        }
      ],
      "name": "isTokenSupported",
      "outputs": [
        {
          "internalType": "bool",
          "name": "",
          "type": "bool"
        }
      ],
      "stateMutability": "view",
      "type": "function"
    },
    {
      "inputs": [],
      "name": "owner",
      "outputs": [
        {
          "internalType": "address",
          "name": "",
          "type": "address"
        }
      ],
      "stateMutability": "view",
      "type": "function"
    },
    {
      "inputs": [],
      "name": "pause",
      "outputs": [],
      "stateMutability": "nonpayable",
      "type": "function"
    },
    {
      "inputs": [],
      "name": "paused",
      "outputs": [
        {
          "internalType": "bool",
          "name": "",
          "type": "bool"
        }
      ],
      "stateMutability": "view",
      "type": "function"
    },
    {
      "inputs": [],
      "name": "pendingOwner",
      "outputs": [
        {
          "internalType": "address",
          "name": "",
          "type": "address"
        }
      ],
      "stateMutability": "view",
      "type": "function"
    },
    {
      "inputs": [
        {
          "internalType": "uint256",
          "name": "_fee",
          "type": "uint256"
        },
        {
          "internalType": "bytes32",
          "name": "_orderId",
          "type": "bytes32"
        }
      ],
      "name": "refundOrder",
      "outputs": [
        {
          "internalType": "bool",
          "name": "",
          "type": "bool"
        }
      ],
      "stateMutability": "nonpayable",
      "type": "function"
    },
    {
      "inputs": [],
      "name": "renounceOwnership",
      "outputs": [],
      "stateMutability": "nonpayable",
      "type": "function"
    },
    {
      "inputs": [
        {
          "internalType": "bytes32",
          "name": "what",
          "type": "bytes32"
        },
        {
          "internalType": "address",
          "name": "value",
          "type": "address"
        },
        {
          "internalType": "uint256",
          "name": "status",
          "type": "uint256"
        }
      ],
      "name": "settingManagerBool",
      "outputs": [],
      "stateMutability": "nonpayable",
      "type": "function"
    },
    {
      "inputs": [
        {
          "internalType": "bytes32",
          "name": "_orderId",
          "type": "bytes32"
        },
        {
          "internalType": "bytes",
          "name": "_signature",
          "type": "bytes"
        },
        {
          "internalType": "address",
          "name": "_provider",
          "type": "address"
        },
        {
          "internalType": "address",
          "name": "_sender",
          "type": "address"
        },
        {
          "internalType": "address",
          "name": "_token",
          "type": "address"
        },
        {
          "internalType": "uint256",
          "name": "_amount",
          "type": "uint256"
        }
      ],
      "name": "settleOrderIn",
      "outputs": [],
      "stateMutability": "nonpayable",
      "type": "function"
    },
    {
      "inputs": [
        {
          "internalType": "bytes32",
          "name": "_splitOrderId",
          "type": "bytes32"
        },
        {
          "internalType": "bytes32",
          "name": "_orderId",
          "type": "bytes32"
        },
        {
          "internalType": "address",
          "name": "_provider",
          "type": "address"
        },
        {
          "internalType": "uint64",
          "name": "_settlePercent",
          "type": "uint64"
        }
      ],
      "name": "settleOrderOut",
      "outputs": [
        {
          "internalType": "bool",
          "name": "",
          "type": "bool"
        }
      ],
      "stateMutability": "nonpayable",
      "type": "function"
    },
    {
      "inputs": [
        {
          "internalType": "address",
          "name": "newOwner",
          "type": "address"
        }
      ],
      "name": "transferOwnership",
      "outputs": [],
      "stateMutability": "nonpayable",
      "type": "function"
    },
    {
      "inputs": [],
      "name": "unpause",
      "outputs": [],
      "stateMutability": "nonpayable",
      "type": "function"
    },
    {
      "inputs": [
        {
          "internalType": "bytes32",
          "name": "what",
          "type": "bytes32"
        },
        {
          "internalType": "address",
          "name": "value",
          "type": "address"
        }
      ],
      "name": "updateProtocolAddress",
      "outputs": [],
      "stateMutability": "nonpayable",
      "type": "function"
    },
    {
      "inputs": [
        {
          "internalType": "uint64",
          "name": "_protocolFeePercent",
          "type": "uint64"
        }
      ],
      "name": "updateProtocolFee",
      "outputs": [],
      "stateMutability": "nonpayable",
      "type": "function"
    }
  ],
  "bytecode": "0x608080604052346100c1576000549060ff8260081c1661006f575060ff80821603610034575b6040516122e690816100c78239f35b60ff90811916176000557f7f26b83ff96e1f2b6a682f133852f6798a09c465da95921460cefb3847402498602060405160ff8152a138610025565b62461bcd60e51b815260206004820152602760248201527f496e697469616c697a61626c653a20636f6e747261637420697320696e697469604482015266616c697a696e6760c81b6064820152608490fd5b600080fdfe608080604052600436101561001357600080fd5b60003560e01c908162b727da14611ca1575080633f4ba83a14611c0d57806340ebc67714611a6457806347094e2e146119f857806347b0f1cd146117ad57806347e7ef24146116b85780635c975abb14611695578063715018a61461162e57806375151b631461160157806379ba50971461157a578063809804f714610ff45780638129fc1c14610e9b5780638456cb5914610e415780638da5cb5b14610e185780639a06601f14610ae85780639bb39e13146109565780639c0fea2c14610896578063b682b66714610320578063b810c636146102f2578063cd99240014610208578063d4fac45d146101b6578063e30c39781461018d5763f2fde38b1461011b57600080fd5b3461018857602036600319011261018857610134611ce5565b61013c611dd0565b606580546001600160a01b0319166001600160a01b039283169081179091556033549091167f38d16b8cac22d99fc7c124b9cd0de2d3fa1faef420bfe791d8c362d765e22700600080a3005b600080fd5b34610188576000366003190112610188576065546040516001600160a01b039091168152602090f35b34610188576040366003190112610188576101cf611ce5565b6101d7611ccf565b9060018060a01b03809116600052610102602052604060002091166000526020526020604060002054604051908152f35b3461018857606036600319011261018857600435610224611ccf565b9060443591610231611dd0565b6001600160a01b03169161024683151561226c565b6001811480156102e8575b156102a357643a37b5b2b760d91b821461026757005b60207fcfa976492af7c14a916cc3a239f4c9c75bbd7f5f0e398beb41d892c7eeccae4c9184600052609a825280604060002055604051908152a3005b60405162461bcd60e51b815260206004820152601760248201527f476174657761793a20696e76616c6964207374617475730000000000000000006044820152606490fd5b5060028114610251565b346101885760003660031901126101885760406001600160401b036098541660975482519182526020820152f35b346101885760c0366003190112610188576024356001600160401b03811161018857366023820112156101885780600401356001600160401b0381116108805760405191610378601f8301601f191660200184611d5e565b8183523660248383010111610188578160009260246020930183860137830101526103a1611d11565b6103a9611cfb565b916084356001600160a01b0381169003610188576103d260018060a01b03609954163314611f9f565b6103df60a4351515611f64565b60043560005261010360205260ff6040600020541661083b576001600160a01b038216156107f6576001600160a01b038316156107b85761049e6104a691604051602081019060043582526001600160601b0319808760601b166040830152808860601b16605483015260843560601b16606882015260a435607c820152607c815261046a81611d43565b5190207f19457468657265756d205369676e6564204d6573736167653a0a333200000000600052601c52603c60002061217c565b919091612062565b6001600160a01b0382811691160361077f576104db6104d26001600160401b036098541660a435611ef1565b60975490611f04565b6001600160a01b0360843581166000908152610102602081815260408084209487168452939052919020546105128360a435611ecc565b11610743576004356000526101036020526040600020600160ff1982541617905561053f8260a435611ecc565b9060018060a01b0360843516600052602052604060002060018060a01b0384166000526020526105756040600020918254612055565b905560405161058381611d43565b60a4358082526001600160a01b03848116602080850191825287831660408087018281526084358616606089018181526004803560808c01818152600091825261010089528682209c518d55985160018d018054918c166001600160a01b0319928316179055945160028d018054918c16918716919091179055915160038c01805491909a169416939093179097559451978101979097555163a9059cbb60e01b80825296810191909152602481019490945291839160449183915af1801561071857610724575b508161069d575b5050604080516001600160a01b0360843581168252600435602083015260a4359481169316917f6e169b3fe3601f2c225fbdb8de390eccb476ad5a83176809af89dab4a7bea32e91a4005b609854604080519283521c6001600160a01b0316600482015260248101919091526020818060448101038160006084356001600160a01b03165af18015610718576106e9575b80610652565b61070a9060203d602011610711575b6107028183611d5e565b810190611ed9565b50826106e3565b503d6106f8565b6040513d6000823e3d90fd5b61073c9060203d602011610711576107028183611d5e565b508461064b565b60405162461bcd60e51b8152602060048201526014602482015273496e73756666696369656e742062616c616e636560601b6044820152606490fd5b60405162461bcd60e51b8152602060048201526011602482015270496e76616c6964207369676e617475726560781b6044820152606490fd5b60405162461bcd60e51b8152602060048201526016602482015275496e76616c69642073656e646572206164647265737360501b6044820152606490fd5b60405162461bcd60e51b815260206004820152601860248201527f496e76616c69642070726f7669646572206164647265737300000000000000006044820152606490fd5b60405162461bcd60e51b815260206004820152601760248201527f4f7264657220616c72656164792070726f6365737365640000000000000000006044820152606490fd5b634e487b7160e01b600052604160045260246000fd5b3461018857602036600319011261018857600060806040516108b781611d43565b828152826020820152826040820152826060820152015260043560005261010060205260a060406000206040516108ed81611d43565b815491828252600180851b03908180600183015416602085019081528180600285015416916040870192835260806004836003880154169660608a0197885201549701968752604051978852511660208701525116604085015251166060830152516080820152f35b3461018857602036600319011261018857600061012060405161097881611d27565b8281528260208201528260408201528260608201528260808201528260a08201528260c08201528260e082015282610100820152015260043560005260ff60205261014060406000206101206040516109d081611d27565b600760018060a01b038454169384835260018060a01b03600182015416602084015260018060a01b0360028201541660408401526003810154606084015260048101546080840152600581015460ff8116151560a085015260ff8160081c16151560c085015260018060a01b039060101c1660e08401526001600160601b0360068201541661010084015201548282015260405192835260018060a01b03602082015116602084015260018060a01b036040820151166040840152606081015160608401526080810151608084015260a0810151151560a084015260c0810151151560c084015260018060a01b0360e08201511660e08401526001600160601b03610100820151166101008401520151610120820152f35b3461018857608036600319011261018857602435610b04611d11565b90606435906001600160401b0392838316809303610188576099546001600160a01b039190610b369083163314611f9f565b8260005260ff91602095838752610b57846005604060002001541615611fdc565b84600052838752610b758460056040600020015460081c1615612019565b846000528387526040600020936006836001870154169501948554956001600160601b03968988821603888111610e02578816906001600160601b0319161790558660005281895260406000209560068701541615610d2b575b610c599550610be96104d289600760406000200154611ef1565b918760005289526007604060002001610c03838254612055565b905588610c22610c1b6104d260985496871686611ef1565b8094612055565b92604051809881928863a9059cbb60e01b9889855260401c166004840160209093929193604081019460018060a01b031681520152565b03816000855af192831561071857610ca3968a94610d0e575b506040519081526001600160a01b038616600482015260248101929092529094859190829060009082906044820190565b03925af1918215610718577fd466be5516d4d2372b27b6e13104cd3f5d1656e5c9e5ae9a6939da8cf62dbbde93604093610cf1575b508251956004358752878701521693a360405160018152f35b610d0790883d8a11610711576107028183611d5e565b5087610cd8565b610d2490853d8711610711576107028183611d5e565b508a610c72565b60058601600160ff1982541617905588600387015480610d4d575b5050610bcf565b600188015460029098015460405163a9059cbb60e01b81529087166001600160a01b0316600482015260248101919091529687908616816000816044810103925af195861561071857610c5996610de5575b50866000528189526040600020600385600283015416910154907f44f6938ca4a10313aabb76f874cced61e35710a734a126e4afb34461bf8c2501600080a3888a610d46565b610dfb908a3d8c11610711576107028183611d5e565b5089610d9f565b634e487b7160e01b600052601160045260246000fd5b34610188576000366003190112610188576033546040516001600160a01b039091168152602090f35b3461018857600036600319011261018857610e5a611dd0565b610e62611e88565b600160ff1960cd54161760cd557f62e78cea01bee320cd4e420270b5ea74000d11b0c9f74754ebdbfc544b05a2586020604051338152a1005b346101885760003660031901126101885760005460ff8160081c1615808091610fe7575b8015610fd0575b15610f745760ff198281166001176000559181610f62575b50620186a0609755610f0060ff60005460081c16610efb81611e28565b611e28565b610f0933611d7f565b60005491610f2060ff8460081c16610efb81611e28565b60cd541660cd55610f2d57005b61ff0019166000557f7f26b83ff96e1f2b6a682f133852f6798a09c465da95921460cefb3847402498602060405160018152a1005b61ffff19166101011760005582610ede565b60405162461bcd60e51b815260206004820152602e60248201527f496e697469616c697a61626c653a20636f6e747261637420697320616c72656160448201526d191e481a5b9a5d1a585b1a5e995960921b6064820152608490fd5b50303b158015610ec65750600160ff831614610ec6565b50600160ff831610610ebf565b346101885760e03660031901126101885761100d611ce5565b6044356001600160601b038116810361018857611028611cfb565b9060a4356001600160a01b0381168103610188576001600160401b0360c435116101885736602360c435011215610188576001600160401b0360c43560040135116101885736602460c4356004013560c43501011161018857611089611e88565b6001600160a01b0384166000908152609a60205260409020546110ae90600114611f24565b6110bb6024351515611f64565b6001600160a01b03811615611542576084356114ef575b60c43560040135156114b55761111e60206110f1608435602435611ecc565b6040516323b872dd60e01b8152336004820152306024820152604481019190915291829081906064820190565b038160006001600160a01b038a165af1801561071857611496575b50336000526101016020526040600020938454946000198614610e025760016020960190553360005261010185526111976111a5604060002054604051928391338a840160209093929193604081019460018060a01b031681520152565b03601f198101835282611d5e565b858151910120936001600160401b036111c48160985416602435611ef1565b6111d16097548092611f04565b94604051936111df85611d27565b33855260018060a01b0386168a86015260018060a01b031660408501526084356060850152856080850152600060a0850152600060c085015260018060a01b031660e0840152166101008201526024356101208201528460005260ff8652600761012060406000209260018060a01b038151166001600160601b0360a01b8554161784556001840160018060a01b038a830151166001600160601b0360a01b8254161790556002840160018060a01b036040830151166001600160601b0360a01b82541617905560608101516003850155608081015160048501556005840160a08201511515815461ff0060c0850151151560081b169060ff62010000600160b01b0360e087015160101b1693169069ffffffffffffffffffff60b01b161717179055600684016001600160601b03610100830151166001600160601b0319825416179055015191015560018060a01b0360985460401c1660046040519161134683611d43565b602435835287830190815260408301338152606084019060018060a01b03861682526080850192898452896000526101008b52604060002095518655600186019060018060a01b039051166001600160601b0360a01b825416179055600285019060018060a01b039051166001600160601b0360a01b825416179055600384019060018060a01b039051166001600160601b0360a01b8254161790555191015560ff85527f40ccd1ceb111a3c186ef9911e1b876dc1f789ed331b86097b3b8851055b6a1376040600020916001600160601b03600760018060a01b038554169401549560405195865287898701521660408501526080606085015260c43560040135608085015260c43560040135602460c4350160a0860137600060a060c435600401358601015260018060a01b03169260a081601f19601f60c4356004013501168101030190a4604051908152f35b6114ae9060203d602011610711576107028183611d5e565b5084611139565b60405162461bcd60e51b8152602060048201526012602482015271092dcecc2d8d2c89acae6e6c2ceca90c2e6d60731b6044820152606490fd5b6001600160a01b0383166110d25760405162461bcd60e51b815260206004820152601960248201527f496e76616c696453656e646572466565526563697069656e74000000000000006044820152606490fd5b60405162461bcd60e51b815260206004820152601060248201526f5468726f775a65726f4164647265737360801b6044820152606490fd5b3461018857600036600319011261018857606554336001600160a01b03909116036115aa576115a833611d7f565b005b60405162461bcd60e51b815260206004820152602960248201527f4f776e61626c6532537465703a2063616c6c6572206973206e6f7420746865206044820152683732bb9037bbb732b960b91b6064820152608490fd5b3461018857602036600319011261018857602061162461161f611ce5565b612243565b6040519015158152f35b3461018857600036600319011261018857611647611dd0565b606580546001600160a01b03199081169091556033805491821690556000906001600160a01b03167f8be0079c531659141344cd1fd0a4f28419497f9722a3daafe3b4186f6b6457e08280a3005b3461018857600036600319011261018857602060ff60cd54166040519015158152f35b34610188576040366003190112610188576116d1611ce5565b6024359060018060a01b031680600052602091609a83526116f9600160406000205414611f24565b611704811515611f64565b6040516323b872dd60e01b81523360048201523060248201526044810182905283816064816000875af1801561071857611790575b508160005261010283526040600020336000528352604060002061175e828254611ecc565b905560405191337f5548c837ab068cf56a2c2479df0882a4922fd203edb7517321831d95078c5f62600080a460018152f35b6117a690843d8611610711576107028183611d5e565b5083611739565b346101885760403660031901126101885760043560243560018060a01b036117da81609954163314611f9f565b8160005260ff926020938085526117fb816005604060002001541615611fdc565b836000528085526118198160056040600020015460081c1615612019565b8360005280855281600460406000200154106119bb5784908261193a575b6118d8938560005281835261187784600760406000206005810161010061ff0019825416179055600681016001600160601b031981541690550154612055565b918660005283526118a360406000209260038360018601541693600586015460101c1694015490611ecc565b60405163a9059cbb60e01b81526001600160a01b03909316600484015260248301529093849190829060009082906044820190565b03925af1908115610718577f0736fe428e1747ca8d387c2e6fa1a31a0cde62d3a167c40a46ade59a3cdc828e92859261191d575b50604051908152a260405160018152f35b61193390833d8511610711576107028183611d5e565b508561190c565b6000858152818752604080822060010154609854825163a9059cbb60e01b8152921c87166001600160a01b03166004830152602482018690529095935087918691604491839187165af1918215610718576118d894879361199e575b509350611837565b6119b490843d8611610711576107028183611d5e565b5087611996565b60405162461bcd60e51b81526004810186905260156024820152744665654578636565647350726f746f636f6c46656560581b6044820152606490fd5b34610188576020366003190112610188576004356001600160401b0381168091036101885760207f1ce29a697a4765bd17d91df93ba75b250b629ecf030553ff1f6ab59f15ae6c7b91611a49611dd0565b806001600160401b03196098541617609855604051908152a1005b3461018857604036600319011261018857600435611a80611ccf565b90611a89611dd0565b6001600160a01b0382811692611aa084151561226c565b600067747265617375727960c01b8403611b76575083609854928360401c1614611b235768010000000000000000600160e01b031990911660409190911b68010000000000000000600160e01b03161760985560015b611afc57005b7fbbc5b96e57cfecb3dbeeadf92e87f15e58e64fcd75cbe256dcc5d9ef2e51e8a4600080a3005b60405162461bcd60e51b815260206004820152602560248201527f476174657761793a207472656173757279206164647265737320616c726561646044820152641e481cd95d60da1b6064820152608490fd5b9190506930b3b3b932b3b0ba37b960b11b8314611b94575b50611af6565b609954915081168314611bb8576001600160a01b0319168217609955600183611b8e565b60405162461bcd60e51b815260206004820152602760248201527f476174657761793a2061676772656761746f72206164647265737320616c726560448201526618591e481cd95d60ca1b6064820152608490fd5b3461018857600036600319011261018857611c26611dd0565b60cd5460ff811615611c655760ff191660cd557f5db9ee0a495bf2e6ff9c91a7834c1ba4fdd244a5e8aa4e537bd38aeae4b073aa6020604051338152a1005b60405162461bcd60e51b815260206004820152601460248201527314185d5cd8589b194e881b9bdd081c185d5cd95960621b6044820152606490fd5b3461018857602036600319011261018857602090600435600052610103825260ff6040600020541615158152f35b602435906001600160a01b038216820361018857565b600435906001600160a01b038216820361018857565b606435906001600160a01b038216820361018857565b604435906001600160a01b038216820361018857565b61014081019081106001600160401b0382111761088057604052565b60a081019081106001600160401b0382111761088057604052565b90601f801991011681019081106001600160401b0382111761088057604052565b6001600160601b0360a01b90816065541660655560335460018060a01b038092168093821617603355167f8be0079c531659141344cd1fd0a4f28419497f9722a3daafe3b4186f6b6457e0600080a3565b6033546001600160a01b03163303611de457565b606460405162461bcd60e51b815260206004820152602060248201527f4f776e61626c653a2063616c6c6572206973206e6f7420746865206f776e65726044820152fd5b15611e2f57565b60405162461bcd60e51b815260206004820152602b60248201527f496e697469616c697a61626c653a20636f6e7472616374206973206e6f74206960448201526a6e697469616c697a696e6760a81b6064820152608490fd5b60ff60cd5416611e9457565b60405162461bcd60e51b815260206004820152601060248201526f14185d5cd8589b194e881c185d5cd95960821b6044820152606490fd5b91908201809211610e0257565b90816020910312610188575180151581036101885790565b81810292918115918404141715610e0257565b8115611f0e570490565b634e487b7160e01b600052601260045260246000fd5b15611f2b57565b60405162461bcd60e51b8152602060048201526011602482015270151bdad95b939bdd14dd5c1c1bdc9d1959607a1b6044820152606490fd5b15611f6b57565b60405162461bcd60e51b815260206004820152600c60248201526b416d6f756e7449735a65726f60a01b6044820152606490fd5b15611fa657565b60405162461bcd60e51b815260206004820152600e60248201526d27b7363ca0b3b3b932b3b0ba37b960911b6044820152606490fd5b15611fe357565b60405162461bcd60e51b815260206004820152600e60248201526d13dc99195c919d5b199a5b1b195960921b6044820152606490fd5b1561202057565b60405162461bcd60e51b815260206004820152600d60248201526c13dc99195c9499599d5b991959609a1b6044820152606490fd5b91908203918211610e0257565b600581101561216657806120735750565b600181036120c05760405162461bcd60e51b815260206004820152601860248201527f45434453413a20696e76616c6964207369676e617475726500000000000000006044820152606490fd5b6002810361210d5760405162461bcd60e51b815260206004820152601f60248201527f45434453413a20696e76616c6964207369676e6174757265206c656e677468006044820152606490fd5b60031461211657565b60405162461bcd60e51b815260206004820152602260248201527f45434453413a20696e76616c6964207369676e6174757265202773272076616c604482015261756560f01b6064820152608490fd5b634e487b7160e01b600052602160045260246000fd5b9060418151146000146121aa576121a6916020820151906060604084015193015160001a906121b4565b9091565b5050600090600290565b9291907f7fffffffffffffffffffffffffffffff5d576e7357a4501ddfe92f46681b20a083116122375791608094939160ff602094604051948552168484015260408301526060820152600093849182805260015afa1561222a5781516001600160a01b03811615612224579190565b50600190565b50604051903d90823e3d90fd5b50505050600090600390565b6001600160a01b03166000908152609a602052604090205460011461226757600090565b600190565b1561227357565b60405162461bcd60e51b8152602060048201526015602482015274476174657761793a207a65726f206164647265737360581b6044820152606490fdfea2646970667358221220bfd6144b88e19d5379811ba9759b5478ae14720ef07c22d60ee549fa6d3d0c1164736f6c63430008120033",
  "linkReferences": {},
  "deployedLinkReferences": {}
}